:020000042000DA
:100000001884002041020020490200204B020020F9
:1000100000000000000000000000000000000000E0
:100020000000000000000000000000004D02002061
:1000300000000000000000004F0200204F110020CF
:1000400053020020530200205302002053020020DC
:1000500053020020530200205302002053020020CC
:1000600053020020530200205302002053020020BC
:1000700017100020530200205302002053020020DA
:10008000530200205302002053020020050B0020E1
:100090000F0B0020310B00203B0B0020450B0020F4
:1000A00000F002F800F0BDF80CA030C808382418A1
:1000B0002D18A246671EAB4654465D46AC4201D1A0
:1000C00000F0AFF87E460F3E0FCCB6460126334215
:1000D00000D0FB1AA246AB4633431847842F0000DA
:1000E000A42F0000103A02D378C878C1FAD852077A
:1000F00001D330C830C101D504680C6070470000DE
:100100000023002400250026103A01D378C1FBD833
:10011000520700D330C100D50B60704710B56E296F
:1001200002D101F0F3FA10BD702902D101F02DFCCB
:1001300010BD662902D102F005FE10BD652902D16D
:1001400002F000FE10BD672902D102F0FBFD10BDD8
:10015000612902D102F0FEFD10BD03681B0A01D324
:1001600080231943692902D101F09AFA10BD64294C
:1001700002D101F095FA10BD752902D101F090FA73
:1001800010BD6F2902D101F0ABFB10BD782902D15F
:1001900001F0E8FB10BDE92902D101F047FB10BDD9
:1001A000E42902D101F042FB10BDF52902D101F092
:1001B0003DFB10BDEF2902D101F09EFB10BDF829D7
:1001C00002D101F0DDFB10BD0368DB0901D3802300
:1001D0001943632902D102F0C0F810BD732902D17E
:1001E00002F0C3F810BDE32902D102F0CDF810BD32
:1001F000F32902D102F0D0F810BD002010BD1FB5C8
:1002000002F02AF904000020002102F085FD401CC4
:1002100060600020002102F069FDE0601FBD10B5A4
:1002200010BD02F0F1F81146FFF7E9FF00F06AF89F
:1002300002F012FC03B4FFF7F2FF03BC02F00AFD68
:100240000748804707480047FEE7FEE7FEE7FEE76E
:10025000FEE7FEE704480549054A064B70470000E3
:1002600079020020A10000201881002018840020BD
:100270001882002018820020034804490860704753
:10028000014802490860704700E1F505048000203C
:1002900010B500F03AFF10BD10B500F046FF10BDDC
:1002A000FEB506460F4614461D460020034602468C
:1002B00039460090304600F061FA002003460246BD
:1002C00029460090204600F059FA0A2001210B46E9
:1002D0001322009101903946304600F099FA0A2025
:1002E00001210B461422009101902946204600F07E
:1002F0008FFA3249132000F0DEFB3149142000F060
:10030000DAFBFEBD0EB50020052109070880082094
:100310002C49088005200007408A2021884320308E
:100320000521090748820846408A80218843803099
:100330000521090748820846008A022188430521D1
:100340000907088206220521022000F0B9FE0020DC
:10035000012201906923009202900522042100F0FD
:100360003EFC012007220190062300920290002209
:10037000022101F080F801F06EF80221084601F038
:10038000DAF8AA21552001F039F8032302220921C5
:100390001046FFF785FF0FE00921022000F026FA42
:1003A000002801D000F0B9FE0321022000F01EFA5F
:1003B000002801D000F0A1FEEEE700009902002025
:1003C000910200200033005030B5CC4C237005243E
:1003D0002407A4882025AC43203405252D07AC80B4
:1003E0000024C74DAC816124C54D603D2C802C4656
:1003F00024880625AC434D002C43C14D603D2C8024
:100400002C4624881025AC4315012C43BC4D603D7F
:100410002C808405A40DAC800124B94DAC8100BFB3
:10042000B74C248A20252C40002CF9D1B54D2870DA
:1004300030BD0020B2498881052000078088202136
:100440008843052109078880704700211DE00820A6
:10045000AB4B603B188200BFA948008A04231840B8
:100460000028F9D000BFA648008A202318400028A1
:10047000F9D1A34820300288A1482038808AD007CB
:10048000C00F002800D17047491C9F488142DED32D
:100490000120F8E799490978012902D0022926D1DB
:1004A0001CE00021964A9181012109040140090CB8
:1004B000944A12781143924A603A91800121904AFD
:1004C000918100BF8E49098A202211400029F9D16B
:1004D0000104090E8A4A603A118208E00102090EFD
:1004E000874A603A11820104090E118200BF00BFE1
:1004F000C1B2834A603A1182704770B505460C4616
:10050000FFF7A3FF002801D0012070BD00BF00F05D
:10051000EEF80646012000F0EDF82846FFF7BAFF96
:10052000FF200130764960390882002E03D1002077
:1005300000F0E0F802E0012000F0DCF800BF00BFAE
:100540006F48008B0028FBD06D486038008A20700F
:1005500000BF6B48008A042108400028F9D000BF82
:100560006748008A202108400028F9D100BFCCE765
:10057000F8B505460F461646FFF767FF002801D07D
:100580000120F8BD00BF00F0B2F80090012000F09B
:10059000B1F83846FFF77EFF00240CE000BF584852
:1005A000008A022108400028F9D0C8015449603966
:1005B0000882601C84B2B442F0D30098002802D1B3
:1005C00000F098F802E0012000F094F800BF002449
:1005D0000BE000BF4A48008B0028FBD04848603839
:1005E000008A28706D1C601C84B2B442F1D300BF35
:1005F0004348008A042108400028F9D000BF404841
:10060000008A202108400028F9D100BFB9E770B561
:1006100005460C46FFF719FF002801D0012070BDE8
:1006200000BF00F064F80646012000F063F8284699
:10063000FFF730FFE0B2324960390882002E03D163
:10064000002000F057F802E0012000F053F800BF4E
:1006500000BF2B48008A042108400028F9D000BFC1
:100660002748008A202108400028F9D100BFD6E79A
:10067000F8B504460E461546FFF7E7FE002801D000
:100680000120F8BD00BF00F032F80746012000F05D
:1006900031F83046FFF7FEFE00BF00BF1848008A61
:1006A000022108400028F9D02078154960390882D5
:1006B000641C681E85B2002DEFD1002F03D10020ED
:1006C00000F018F802E0012000F014F800BF00BFAD
:1006D0000B48008A042108400028F9D000BF0848D0
:1006E000008A202108400028F9D100BFC9E7EFF3B4
:1006F0001080704780F31088704700000880002049
:100700006013005009800020400D030001460029BD
:100710000AD0481E4840C003010C002201E04910E5
:10072000521C0029FBD100E0102290B270477047A4
:10073000F0B5032800D104204601F74FF5194E000B
:10074000AF1DF41916461E432680F0BD30B50328B0
:1007500000D104204401F04D63191A1D01248C407E
:10076000148030BD30B5032800D104204401EA4D87
:1007700063199A1C01248C40148030BDFFB50446D7
:100780000D461646099F002F04D029462046FFF744
:10079000E9FF03E029462046FFF7D8FF3246294605
:1007A0002046039BFFF7C4FFFFBDF8B50C46154676
:1007B000002801D1002600E0461E0096009E76002B
:1007C000D54F7037F119012802D12646083600E0CE
:1007D0002646F2B200230B88012696401F46B743F7
:1007E0003B462E46964033430B80F8BD10B502467B
:1007F000032A00D104225001C74C03191888012490
:100800008C402040002801D0012010BD0020FCE7D2
:10081000F8B505460E4614461F46C0A00068009075
:1008200021461339FF2201328A4090B2FFF76EFF52
:1008300001460798002801DD012000E000208840E3
:10084000B74989892246133AFF23013393409943DC
:100850000843B34988813F20FFF758FF01460798B6
:100860008840AF498989890989010843AC49888151
:1008700021461339FF2201328A4090B2FFF746FF2A
:10088000014606988840A649098A2246133AFF2362
:100890000133934099430843A1490882114601223C
:1008A0008A4090B2FFF732FF0146384688409C49A3
:1008B000098A2246133A01239340994308439849F1
:1008C00008823F20FFF722FF01466846405D8019FD
:1008D0008840214613394900914A891809888909B5
:1008E0008901084381B220461338400080180180F6
:1008F0000221204600F02BF900BFE106C90E0120BD
:1009000088408849086000BFF8BD01468448008AD5
:100910000A46133A01239340184001239340DA0713
:10092000D20F002A01D0002293E00B46133B012294
:100930009A4002231A40002A01D0012289E00B4686
:10094000133B01229A4004231A40002A01D00222BC
:100950007FE00B46133B01229A4008231A40002AED
:1009600001D0032275E00B46133B01229A4010236D
:100970001A40002A01D004226BE00B46133B0122EF
:100980009A4020231A40002A01D0052261E00B463C
:10099000133B01229A4040231A40002A01D006222C
:1009A00057E00B46133B01229A4080231A40002A4D
:1009B00001D007224DE00B46133B01229A40FF2352
:1009C00001331A40002A01D0082242E00B46133BB3
:1009D00001229A4001235B021A40002A01D0092219
:1009E00037E00B46133B01229A4001239B021A4039
:1009F000002A01D00A222CE00B46133B01229A4028
:100A00000123DB021A40002A01D00B2221E00B4611
:100A1000133B01229A4001231B031A40002A01D0F4
:100A20000C2216E00B46133B01229A4001235B0384
:100A30001A40002A01D00D220BE00B46133B012285
:100A40009A4001239B031A40002A01D00E2200E0A5
:100A50000F221041C0B2704770B504460D462146C2
:100A6000133901228A4090B2FFF750FE0146284612
:100A700088402B49098A2246133A0123934099431F
:100A800008432749088270BD10B504462146133932
:100A900001228A4090B2FFF739FE014601208840CA
:100AA0001F49C9892246133A0123934099430843B9
:100AB0001B49C88110BD172806DC132804DB024639
:100AC000133A9200184B9950704770B50446172C92
:100AD00017DC132C15DB2046FFF7D6FF2046133812
:100AE000800011490D58002D01D0A84708E000BF33
:100AF000E106C90E012088400C49086000BF00BF14
:100B000000BF70BD10B51320FFF7DFFF10BD10B59B
:100B10001420FFF7DAFF10BD0030005001090F1953
:100B20000014005000E100E02080002080E200E09E
:100B300010B51520FFF7C9FF10BD10B51620FFF73F
:100B4000C4FF10BD10B51720FFF7BFFF10BD10B5D3
:100B5000002819DA194A03071B0F083B9B089B0062
:100B6000D2588307DC0EFF23A3409A438B071B0E4A
:100B70008407E40EA3401A43104B0407240F083CDB
:100B8000A408A4001A5118E00D4A03231B02D2182E
:100B900083089B00D2588307DC0EFF23A3409A43AF
:100BA0008B071B0E8407E40EA3401A43044B032457
:100BB00024021B198408A4001A5110BD1CED00E08A
:100BC00000E100E0002107E0002201E0531C9AB29E
:100BD000A02AFBDD4B1C99B28142F5D97047F8B5CC
:100BE00006460F4614461D46002009230246394694
:100BF00000903046FFF7C2FD00200A23024621463E
:100C000000903046FFF7BAFD284606A90EC9FFF747
:100C1000DBFB00216B20FFF7FAFC7D20C000FFF713
:100C2000D1FF00211920FFF7F2FC02211A20FFF763
:100C3000EEFC18211B20FFF7EAFC18211C20FFF70F
:100C4000E6FC02211D20FFF7E2FC02213720FFF71E
:100C5000DEFC7D20C000FFF7B5FFF8BD08B5694692
:100C60007520FFF74AFC6846007808BD10B5FFF70D
:100C7000F5FF712801D1012010BD0020FCE71CB553
:100C8000044606223B216846FFF772FC684600785E
:100C9000010268464078014308B2208068468078A7
:100CA00001026846C078014308B260806846007956
:100CB000000269464979084300B2A0801CBD1CB5FA
:100CC0000446062243216846FFF752FC6846007836
:100CD000010268464078014308B220806846807867
:100CE00001026846C078014308B260806846007916
:100CF000000269464979084300B2A0801CBD38B59E
:100D000069464120FFF7F9FB00A901314120FFF7B7
:100D1000F4FB6946087800024978084304B220468B
:100D200038BD000038B504460D46002002230322DA
:100D3000120219460090FFF721FD00200123024610
:100D400003210090FFF71AFD05200007808880210D
:100D50008843803005210907888080206149888187
:100D60002004000E8880E0B2088008468581008A51
:100D7000402188435B490882012008810846808819
:100D800040084000401C88800C2001218140564AC8
:100D9000116000BF012100F06BF80C20012181409F
:100DA000514A803A116000BF00BF012181404F4A83
:100DB000116000BF38BD00BF4A48808AC007C00F1D
:100DC0000028F9D047480088C0B2704700BF4549A5
:100DD000898A202211400029F9D0C1B2414A1180EC
:100DE000704700B5034603E01878FFF7EFFF5B1C80
:100DF00018780028F8D100BD10B50446F020204036
:100E000003110A2B01DA302000E03720C018C3B2EA
:100E10001846FFF7DBFF23071B0F0A2B01DA3020F0
:100E200000E03720C018C3B21846FFF7CFFF10BD4F
:100E30000FB430B5A1B08021684600F0C9FB002492
:100E400025A820906846209A249900F091FB85B24D
:100E500005E06946085DFFF7B9FF601C84B2AC424B
:100E6000F7DB0020209021B030BC08BC04B018474C
:100E700010B5002819DA1E4A03071B0F083B9B0810
:100E80009B00D2588307DC0EFF23A3409A438B07B5
:100E90001B0E8407E40EA3401A43154B0407240FCE
:100EA000083CA408A4001A511AE00F4A803A032310
:100EB0001B02D21883089B00D2588307DC0EFF2345
:100EC000A3409A438B071B0E8407E40EA3401A43EA
:100ED000054B803B032424021B198408A4001A51EB
:100EE00010BD00000010005080E100E080E200E052
:100EF0001CED00E010B5024600200AE01378521CF9
:100F0000041263401B06DB0D4D4CE35A04026340A0
:100F100098B20B464C1EA1B2002BEFDC10BD002096
:100F200004E00021474A1154411C88B28028F8DBB4
:100F30000021454A1180704770B504460D4660781F
:100F4000030001F0A6FE0729050B11171D23290038
:100F500000F0D3F83DA0FFF744FF1DE000F0D5F806
:100F60003DA0FFF73EFF17E000F0D7F83EA0FFF7E7
:100F700038FF11E000F0D9F83FA0FFF732FF0BE097
:100F800000F069FA40A0FFF72CFF05E000F06BFAD3
:100F900041A0FFF726FF00BF00BF012070BD10B5C4
:100FA00000BF41494869C107C90F002932D000BFBD
:100FB0003D490868C1B22348234A12888154007809
:100FC000C02824D11F4820490988405CC0280ED180
:100FD0001D48008800280ADD1B4801881948FFF7D2
:100FE000ABFF0020184908801649087012E0164827
:100FF0000088602805DA14480088401C12490880DF
:1010000008E00020104908800E49087002E027A07F
:10101000FFF7E7FE10BD10B5234880680407240FD2
:10102000012C0CD0022C07D0042C02D00C2C04D1A3
:1010300004E0FFF7B4FF01E000E000BF00BF10BD17
:10104000642D0020348000200A8000205245442076
:101050004C4544204F4E0A00524544204C45442004
:101060004F46460A00000000475245454E204C4579
:1010700044204F4E0A000000475245454E204C4543
:1010800044204F46460A00004F4C454420504F57DD
:101090004552204F4E0A00004F4C454420504F57B8
:1010A0004552204F46460A0000100050636F6D6D98
:1010B000616E6420696E76616C69640A00000000EC
:1010C000F8B506460D4614461C4806701C480570C7
:1010D0001C480470012000230322120229460090BC
:1010E0003046FFF74BFB012000230322120221466A
:1010F00000903046FFF742FBF8BD10B5104801786C
:101100000E480078FFF722FB10BD10B50C4801789F
:101110000A480078FFF726FB10BD10B50948017892
:1011200006480078FFF712FB10BD10B5054801789E
:1011300002480078FFF716FB10BD00000C8000206D
:101140000D8000200E80002031490860704710B5E6
:101150002F480068002802D02D48006880472D489D
:101160000068401C2B49086010BD2A480068704781
:101170000020284908607047274A12695208520027
:10118000254B1A611A465269120E1206431E1A4363
:10119000214B5A611A469269120E12069A611A463A
:1011A000126902239A434B001A431B4B1A611A46D9
:1011B000126904239A43184B1A611A46126952089D
:1011C0005200521C1A61704713488069000E0006D5
:1011D000114988610846006940084000086170476D
:1011E00010B5044600212046FFF7C6FF00BF0A489D
:1011F0000069012109040840000C0028F7D0FFF71E
:10120000E3FF10BD044880690002000A7047000037
:10121000148000201080002000E000E010B5B548E8
:101220000178B5480078FFF79DFAB4480178B248D4
:101230000078FFF797FAB1480178AF480078FFF7D8
:1012400085FAAC480178AC480078FFF77FFA10BD0A
:1012500010B5A8480178A8480078FFF777FAA748A2
:101260000178A5480078FFF771FAA4480178A248F0
:101270000078FFF777FA9F4801789F480078FFF7DA
:1012800071FA10BDF8B505462C46002721E0264628
:101290009848017898480078FFF758FA802006406F
:1012A000802E06D19548017893480078FFF75AFAC6
:1012B00005E09248017890480078FFF747FA600609
:1012C000040E8C4801788C480078FFF74BFA781CA4
:1012D000C7B2082FDBDB8748017887480078FFF723
:1012E00035FA8448017884480078FFF73BFAF8BD66
:1012F00010B50446FFF792FF7820FFF7C3FF0020E8
:10130000FFF7C0FF2046FFF7BDFFFFF7A1FF10BDAD
:1013100010B50446FFF782FF7820FFF7B3FF4020A7
:10132000FFF7B0FF2046FFF7ADFFFFF791FF10BDBD
:1013300000E0401E0028FCD1704710B570480178CD
:1013400070480078FFF702FA7D20C000FFF7F0FF39
:101350006B4801786B480078FFF704FA7D20C000E5
:10136000FFF7E6FFAE20FFF7C3FF0020FFF7C0FF47
:101370001220FFF7BDFF0020FFF7BAFFB020FFF7F4
:10138000B7FF8120FFF7B4FF4F20FFF7B1FFA02088
:10139000FFF7AEFFA620FFF7ABFFA820FFF7A8FFDF
:1013A0001F20FFF7A5FFC820FFF7A2FFD320FFF7FC
:1013B0009FFF0020FFF79CFFD520FFF799FF8020BB
:1013C000FFF796FFD920FFF793FFF120FFF790FF7B
:1013D000DA20FFF78DFF1220FFF78AFFDB20FFF7EF
:1013E00087FF4020FFF784FF8D20FFF781FF142047
:1013F000FFF77EFFAF20FFF77BFF10BDF8B5074674
:101400000D460020FFF774FF1220FFF771FFB02098
:10141000FFF76EFF002418E02146B031C8B2FFF795
:1014200067FF0020FFF764FF1220FFF761FF00262F
:1014300007E03846FFF76CFF2846FFF769FF701C8E
:10144000C6B2602EF5DB601CC4B2062CE4DB2E486D
:10145000FFF76EFFF8BD10B52C4801782C480078D6
:10146000FFF780F910BD10B52848017828480078AA
:10147000FFF76CF910BDF8B506460F4614461D4639
:1014800023480670214807701E49079808701C49B8
:10149000089808701848047018480570154906988F
:1014A000087000200346032212023946009030469D
:1014B000FFF764F900200346032212020090089906
:1014C0000798FFF75BF90020034603221202294622
:1014D00000902046FFF752F9002003460322120233
:1014E000009020460699FFF749F9FFF7B4FFFFF790
:1014F00024FFF8BD1E8000201C8000201D800020DD
:101500001B8000201A80002060EA00001980002063
:101510001880002010B514480078002805D0FFF787
:1015200004FE00201049087004E0FFF7F6FD0120DA
:101530000D49087010BD7CB504460D4600200346D9
:101540000246294600902046FFF718F90120009036
:1015500000231522294601902046FFF759F9034937
:101560001520FFF7A8FA7CBD1F800020151500206C
:101570001CB50C46064B7B4469460090204600F0A3
:10158000DEF804460020694600F0ECF820461CBD59
:10159000EB01000001E004C0091F0429FBD28B0706
:1015A00001D50280801CC90700D002707047002955
:1015B0000BD0C30702D00270401C491E022904D37D
:1015C000830702D50280801C891EE3E70022EEE734
:1015D0000022DFE770477047704770B504468569A1
:1015E0000068C10601D5302600E02026C00707D0DC
:1015F00070BD62683046A1689047206A401C206236
:101600006D1EF6D570BD70B5044685690078C007BB
:1016100007D170BD6268A16820209047206A401CF5
:1016200020626D1EF6D570BD09684A0501D540B22D
:101630007047C905FCD500B2704709684A0501D555
:10164000C0B27047C905FCD580B2704770B50C4672
:101650000546012A05D02878800600D5EA690023CE
:1016600002E0012305E05B1C934202D2E05C00280B
:10167000F9D1A869E618C01AA861286AC0182862BA
:101680002846FFF7AAFF04E06A682078A968641C6E
:101690009047B442F8D32846FFF7B5FF70BD00006D
:1016A000F7B5002575291068009914A611D0FFF729
:1016B000BBFF002802DA404211A608E00099096841
:1016C0008A0701D50FA602E0490704D50EA6012519
:1016D00001E0FFF7B2FF009F0024243704E000F090
:1016E0007FFE30313955641C0028F8D12B46324634
:1016F0002146009800F057FAFEBD000000000000EF
:101700002D0000002B00000020000000116802687E
:10171000006A530501D5087009E0D30501D508809A
:1017200005E0130602D5C21705C100E008600120DC
:101730007047000001694A1C02610878704700B5D3
:101740008FB00291002105910549019379440391DD
:1017500011460490684600F025F90FB000BD000066
:10176000E5FFFFFF0A681070521C0A607047000016
:10177000F7B50446154686B02B487844002703C8C1
:101780003E460090019111E007986A467100415A67
:1017900002A800F005FE411C07D02178890603D578
:1017A000E269391891420ED83F18761C20788006DD
:1017B00002D5E069B84206DDAE42E5DB079871006C
:1017C000405A0028E0D1A069C01BA0612046FFF765
:1017D00004FF154878445A3803C80090002001914E
:1017E00016E041006A460798415A02A800F0D8FD69
:1017F0000590401C0AD0002505E0626802A8A16897
:10180000405D90476D1C05988542F6D30498401CB6
:10181000B0420490E5DB206AC01920622046FFF741
:10182000F2FE09B0F0BD0000E6170000F7B5D21DCA
:101830000025D20815A6D200F52905CA11D0002A24
:1018400005DA00214042914111A60A4608E00099BC
:1018500009688B0701D50FA602E0490701D50EA63E
:1018600001251146009F0024243704E000F05EF9B2
:1018700030323A55641C02460A43F7D12B463246B1
:101880002146009800F08FF9FEBD00000000000026
:101890002D0000002B0000002000000070B5044661
:1018A0000021243408E05507D2086D0F3035655407
:1018B0005D072A43DB08491C15461D43F3D1046824
:1018C000002310A2250708D520252C400C4304D066
:1018D000C46901230CA2641EC46100F064F970BDE8
:1018E00010B5044621461068FFF7A7FE0023024604
:1018F0002046FFF7D3FF10BDD21DD108C9000CC987
:10190000CCE700000000000030000000F8B50F46F2
:101910000188090502D5224C7C4402E0204C7C441D
:101920000E3405460021243508E016071209360F4B
:10193000A65D6E541E0732431B09491C16461E4302
:10194000F3D1224604780023240705D5702F06D052
:10195000002901D00223113200F025F9F8BD01233E
:101960001032F9E770B504460D4621461068FFF7BE
:1019700064FE0023024629462046FFF7C7FF70BDDC
:10198000D21DD308DB000CCBC0E730B403682024A1
:101990001268234303600823C36130BC0023B5E70A
:1019A00050160000F3B50446002081B020622046A6
:1019B000E1688847002872D0252802D06268A168B3
:1019C000ABE0594F00267F442046E1688847202835
:1019D000054608DB312D06D278192038007800281A
:1019E00001D00643F0E7B00701D50420864300206C
:1019F000E0610746A0612A2D0AD0284601F06EF961
:101A0000002827D0B8000019303D0090856119E00A
:101A10000298BA00121902C8916102902046E1684A
:101A20008847012F054617D1E06900281FDA2020DA
:101A300086431CE000980A218069484300994019B8
:101A4000303888612046E1688847054601F046F94C
:101A50000028EFD1012F0AD02E2D08D12046E168B1
:101A600088470546202006437F1C022FC3DBA06960
:101A7000002803DA4042A06101200643F00701D0AC
:101A8000102086436C2D0BD0682D09D04C2D3CD0F6
:101A90006A2D38D0742D38D07A2D36D016E040E03B
:101AA000E1682F4620468847B842054609D16C2F89
:101AB00029D001208002E168064320468847054678
:101AC00004E06C2F1DD0FF2001300643002D28D0EC
:101AD00028464138192803D80120C0020643203582
:101AE000204626602946029A1646FEF717FB002874
:101AF00010D001280BD0F61DF008C000083002906D
:101B000055E74020E1E78020D5E70020D3E7361DE8
:101B100002964CE762682846A1689047206A401CFC
:101B200044E7206AFEBD0000CA1500000B4670B5F0
:101B3000024689078008084319469D08141AA941DE
:101B400025090807054308092C194841250A0106FB
:101B50000D43010A2C194141200C0D0428430D0CA2
:101B600000194D41002140194D41C0086907084343
:101B7000E908840F8D002543840024184D41241961
:101B80006D41121BAB4107E00925ED432C115219A1
:101B900063410024401C61411C460A250026551B58
:101BA000B441F1D270BDFFB504460D4681B024307A
:101BB00000902168880604D51022E06991432160D5
:101BC00000E00120A84201DD471B00E00027049847
:101BD000A1697A191018081AA0612078C00602D4E9
:101BE0002046FFF7FAFC002608E003986268A16827
:101BF000805D9047206A401C761C206204988642D3
:101C0000F3DB2078C0060AD52046FFF7E6FC06E0A5
:101C10006268A16830209047206A401C20623846E4
:101C20007F1E0028F4DC07E000986268A168405D30
:101C30009047206A401C206228466D1E0028F3DC75
:101C40002046FFF7E0FC2078000602D5022005B010
:101C5000F0BD0120FBE700007047FFB50C461E46B3
:101C60008FB003CA089009914F007D0D00D16D1E01
:101C7000002108460020C0460321099A8905084032
:101C8000002A03DA8200801840080840800D0128ED
:101C90000A9002DD0020C0430A90089807430DD047
:101CA000EF48F049281848430714189800281DD019
:101CB0007542291E1DDD0A9842421BE01898012832
:101CC00002D00020302104E00020F24305E021543E
:101CD000401CB042FBDB30460022189B00212154FF
:101CE0000F998B600A60486013B0F0BDBD1B6D1C7E
:101CF000DFE70A9A002900DA69420BA800F0F4FB3A
:101D00000BAB07CB03AB07C30899099800F050FC55
:101D10006B4607C30146D4480918002D00910ADD1F
:101D2000D14903980A9A4942401803A9039068468A
:101D300000F063FE07E003990A9A081803A90390CC
:101D4000684600F030FE6B4607C30004000C03D069
:101D50000020C043410800E01046189A002A03D032
:101D60000022009215461EE0751E05D4FFF7DEFE28
:101D7000303262556D1EF9D501220843079602D014
:101D800000227F1C04E02078302801D100227F1E31
:101D9000002A069789D01EE0112D07DAFFF7C6FE4C
:101DA000303262556D1C02460A43F5D1084303D018
:101DB0000098002819D00EE00021681E05E0235C81
:101DC000625C63542254401E491C8142F7DBA81B0D
:101DD000401E07950690079A18990020A0540F9866
:101DE000079B069A81600CC07EE7112600201890A0
:101DF0005BE7D21DF0B50D460446D10893B0C9008B
:101E000003C90C900D9100F053FF02460D98C00FCE
:101E100001D02D2007E02068810701D52B2002E0AA
:101E20004007C00F4001032A0F9001D0072A05DBAD
:101E300003462946204600F013FB0EE12078800679
:101E400001D5E76900E006272846652D04D06628FD
:101E500014D0672D69D12DE00020112F009001DBF7
:101E6000112300E07B1C0CAA03A910A8FFF7F5FEC4
:101E70001199002610987D1C0E9142E001203B46EE
:101E80000CAAC0070B900120009003A910A8FFF72F
:101E9000E4FE119D12981099002600280E9501D19C
:101EA000781C0D18781B02D446427D1C761EE81B58
:101EB00000903AE0012F00DA01270020112F009056
:101EC00001DD112300E03B460CAA03A910A8FFF78F
:101ED000C4FE11993D46109800260E9121780907FD
:101EE0000BD40E99A94200DA0D4603A9012D04DD99
:101EF0004A19203AD27F302A06D0B84201DA011DB1
:101F000004DA012100910FE06D1EEFE7002802DCEA
:101F100086192D1A03E0411CA94200DD0D46801BE5
:101F2000401C00900120C0070B902078000705D4CA
:101F30000098A84202DB0020C043009069460020C0
:101F4000C8720B98012102AF0337C907884225D018
:101F5000022010902B2011900B9800280BDA4042A1
:101F60000B902D20119006E00B9800F039FA3031DB
:101F70007F1E0B9039701099481E00291090F3DCD9
:101F80000B980028F0D111987F1E3870208800052A
:101F900001D5452000E065207F1E387001A8C01BD8
:101FA000C01D0B900F98002800D001204119009807
:101FB000C01709180B980818A169081A401EA061DB
:101FC0002078C00602D42046FFF707FB0F980028B0
:101FD00005D06268A1689047206A401C2062207882
:101FE000C00625D52046FFF7F8FA21E0002E07DBD2
:101FF0000E98B04204DD03A86268805DA16802E02B
:102000006268A16830209047206A761C401C2062DC
:102010000098401E002800900AD100F01DFAC06808
:1020200062680168405CA1689047206A401C206299
:1020300028466D1E0028D9DC07E062683878A16860
:102040007F1C9047206A401C20620B99481E002983
:102050000B90F2DC2046FFF7D6FA032044E600009E
:1020600001FCFFFF104D0000E1DFFFFFD21DF0B5C6
:1020700004460D46D0088DB0C0004668076831465A
:10208000384600F015FE0246F00F01D02D2307E080
:102090002068810701D52B2302E04007C00F4301D0
:1020A0006846002B037001D0012000E00020032AC5
:1020B0000A9001D0072A04DB2946204600F0D0F917
:1020C0002DE12078800601D40D2500E0E56970003F
:1020D000400D0D2D01904BDA300D00210B9008467C
:1020E0000020C046032189050840002E05DA820041
:1020F0008018C20F1018401008408015012801DD1B
:102100000020C043A9000023182906D39C460A4694
:102110000123183A1B07D34003E001221205CA40ED
:1021200094460C31202902D33A46203900E0324649
:102130008A40002802DD002A06D119E0002817D1C4
:102140000121C9078A4213D3194663467F185E41AD
:10215000002806D10120C007824202D108468743E9
:102160009E430B98310D814202D00198401C019092
:102170002088000502D57149794402E06F4979440D
:1021800019396B460A9830221A540A980A7C401C66
:102190001A54401C0A900198002801DC302000E00D
:1021A00031201872019A0120002A02D0644BD21803
:1021B00004E072003A4302D0614A521C0192002DA1
:1021C00002DC2278120703D56A462E2050720220C4
:1021D0000022864694460CE032033601120F6D1E33
:1021E0008B5C02AA13546246521C401C9446052A7A
:1021F00001DA002DF0DC002202AE08E03B0F3F01C7
:10220000CB5C521C6D1E3354401C082A01DA002D91
:10221000F4DC23689A0601D511E0401E704504DD08
:102220003218203AD27F302AF7D0002807DD321842
:10223000203AD27F2E2A02D11A0700D4401E002D48
:1022400003DD3E223254401C6D1E497C31540199FD
:10225000401C002906DA2D21471C315401984042C8
:10226000019003E02B21471C315401987D21C900C6
:10227000884206DB00F002FC3030F0557F1C0191F3
:1022800001E0642808DB0198642100F0F7FB30309E
:10229000F0557F1C019101E00A2806DB01980A2114
:1022A00000F0ECFB3030F0557F1C01980A2100F063
:1022B000E5FB3031F1550A98A1697F1C7A19101895
:1022C000081AA0612078C00602D42046FFF785F9DD
:1022D000216A6E460A980818206204E06268307825
:1022E000A168761C90470A98401E0A90401CF5D1C0
:1022F0002078C00602D52046FFF76FF902AE09E04C
:102300003078761C3E280DD06268A1689047206A1C
:10231000401C20627F1EF3D22046FFF774F90DB0F7
:102320000320F0BD206A4019206203E06268A168C2
:10233000302090476D1EEDD3F8E700003C0E000002
:1023400001FCFFFF10B54369002B02D0C046C04618
:1023500001E0FFF77BF9012010BD1278014624311E
:102360000A7000224A700122ECE711680022D24371
:10237000E8E710B54369002B02D0C046C04601E033
:10238000FFF7F6F9012010BD12880146243182843E
:102390000022C2840122ECE711680022D243E8E760
:1023A00070B516460C46054600F04EF80368FF204F
:1023B0000230C05C012807D0FF2C0ED8185D002821
:1023C0000BD001202C7070BDFF33324621460833FC
:1023D0001868C3182846984770BD0020C04370BDD8
:1023E00001468008081A02091018020A1018020C87
:1023F0001018C008820012185200891A01E0401C0F
:102400000A390A29FBD27047754600F0DBFBAE465D
:10241000050069465346C008C000854618B020B57F
:10242000FDF718FF60BC00274908B6460026C0C566
:10243000C0C5C0C5C0C5C0C5C0C5C0C5C0C5403D7C
:1024400049008D467047000010B500F005F8001DEA
:1024500010BD00BFC508000000487047D4800020B0
:10246000F8B51F46044601230068DB020326014637
:102470001840072A05DB002801D017A506E017A59C
:1024800004E0002801D016A500E016A51020814325
:102490002160A069C01E002FA06101D0401EA06174
:1024A0002046FFF79AF8002F09D038466268A168E5
:1024B0009047206A401C2062C01C206206E0206A0F
:1024C000FAE762682878A1686D1C9047761EF8D2FA
:1024D0002046FFF798F8F8BD4E414E006E616E0041
:1024E000494E4600696E6600F7B516468AB02F4819
:1024F00078446C4603467C33C06F5A689B680DC4B1
:102500002A487844763003AC0DC80DC43720C0018A
:10251000081837211B3000F0B1FA05460C46803D03
:102520001B3C02D56442012000E0002000270990F6
:102530000FE0E0070BD00C201C4978437944324669
:102540004C394118684600F02EFA6B4607C36410F8
:102550007F1C002CEDD1154F7F442C3F15E0E80780
:1025600011D02001C0190EC8069108930792006887
:10257000F04201D198190890324606A903A800F04C
:1025800012FA03AB07C36D10641C002DE7D132466D
:1025900069460998002803A802D000F02EFA01E04D
:1025A00000F001FA0A9B07C30DB0F0BDD80A000085
:1025B000034640000A4610B5400D0BD00121C90763
:1025C0000F24A40200191C0364082143540D214365
:1025D000D20207E000210120F2E7D40F4900214395
:1025E0005200401E0029F8DADB0FDB07184310BD4C
:1025F000FFB50D46144685B04868516800F031FBC0
:1026000000910190A868A16800F02BFB0291039053
:10261000A868616800F025FB029A121882420292B3
:1026200001D2012000E00020019A0B18D2180028E6
:10263000019202D08A4202D903E08A4201D20120EB
:1026400000E000200099081800906868A16800F078
:1026500008FB029A12188242029201D2012000E085
:102660000020019A0B18D2180028019202D08A4249
:1026700002D903E08A4201D2012000E00020009943
:10268000081800902868216840004900400849085F
:102690004018EE49471814E001994000C90F08435B
:1026A0000090019802994000C90F084301900298D8
:1026B00003994000C90F08430290039840007F1E11
:1026C000039000980028E7DA0898002801D0E04E2F
:1026D00000E00026B74228DAF71BF806C00E15D036
:1026E000029B2021091A039A8B401A430392029AF3
:1026F000019BC2408B401A430292019A009BC24048
:102700008B4000991A430192C14000917A110BD07D
:102710006B460320811A01D5002101E08900595838
:102720008700401ED951F5D53746039802990028F5
:1027300000D00120014308980291002808460CD0DF
:10274000002800D001200199019A49050843012180
:10275000D20AC902D202019200E001210E9B01229D
:10276000D207012B02D0002B03D013E0002807D1A1
:1027700016E0904204D890420CD1019B0B4209D044
:10278000019B5918019105D10099491C009101D173
:102790007F1C0092002803D0102108460020C0466C
:1027A00028682168019B009A4840C10F0598C90715
:1027B00039430EC009B0F0BDFFB587B0099A08983B
:1027C0000899536892684068896896460022039386
:1027D00017469446089A12685300099A5B081268D3
:1027E000520052089A1A9B4BD4180A9A002A01D018
:1027F000352200E040220692002201231546049271
:10280000DB07059324E0002D05D175460346039EA2
:102810004D1BB34109D375466646039B491B049D76
:102820009841059B7519AC465F4163463B4308D010
:10283000059B049EDD0776082E435B0804960593EE
:1028400001E0521E641EC50FED0749184041521C9D
:10285000069B9A42D7DB002D04D17546039A6B1A6A
:10286000824101D203200CE0039A0B466B404240A8
:10287000134303D0014303D0012002E0022000E013
:102880000020614601910021009702910A990029D8
:1028900005D06146400201436D4B019102E0800783
:1028A000002302909C423ADA1A1BD006C00E15D0C3
:1028B000029D2021019C091AC5408C402543029CA1
:1028C0008C4000D001242543019C02953D46C44024
:1028D0008D4039462C43C1400194009154111DD0C4
:1028E0006D460221002202290CD10320001B07E0C3
:1028F000002804DB8600AE59002E00D00122401CC7
:102900000328F5DB081B02D588002A5004E080006C
:10291000285810438A00A850491EE3D51C460A983F
:10292000002802980CD0002800D001200199019ABB
:10293000490508430121D20AC902D202019200E0EE
:102940000121109B0122D207012B02D0002B03D0C2
:1029500013E0002807D116E0904204D890420CD131
:10296000019B0B4209D0019B5918019105D1009997
:10297000491C009101D1641C0092002803D0102151
:1029800008460020C04608980999019A006809681D
:1029900048400099C30F0798DB0723430360826018
:1029A00041600BB0F0BD1FB5002300920A460146FE
:1029B00001A8FFF71DFE01AB07CB04B010BD1FB58A
:1029C000012300920A46014601A8FFF711FE01AB60
:1029D0000F2407CBA402C30F4000DB074008001BF5
:1029E000002900DB0020490000054908CC0A2043EB
:1029F00049051843D20A1143DFE71FB500230092AF
:102A00000A46014601A8FFF7D7FE01AB07CBD4E782
:102A10001FB5012300920A46014601A8FFF7CCFE2C
:102A200001AB0F2407CBA402C30F4000DB07400813
:102A3000001B002900DB0020490000054908CC0AE2
:102A4000204349051843D20A1143B6E702C0FFFFED
:102A5000013C0000FF3F000010B50446C046C046E0
:102A60002046FDF7E7FB10BD002203098B422CD363
:102A7000030A8B4211D300239C464EE003460B43CE
:102A80003CD4002243088B4231D303098B421CD330
:102A9000030A8B4201D394463FE0C3098B4201D322
:102AA000CB01C01A524183098B4201D38B01C01A5A
:102AB000524143098B4201D34B01C01A52410309D1
:102AC0008B4201D30B01C01A5241C3088B4201D380
:102AD000CB00C01A524183088B4201D38B00C01A2D
:102AE000524143088B4201D34B00C01A5241411A54
:102AF00000D201465241104670475DE0CA0F00D037
:102B00004942031000D34042534000229C4603092F
:102B10008B422DD3030A8B4212D3FC22890112BAB5
:102B2000030A8B420CD3890192118B4208D389018D
:102B300092118B4204D389013AD0921100E08909A5
:102B4000C3098B4201D3CB01C01A524183098B4286
:102B500001D38B01C01A524143098B4201D34B016F
:102B6000C01A524103098B4201D30B01C01A5241D2
:102B7000C3088B4201D3CB00C01A524183088B4259
:102B800001D38B00C01A5241D9D243088B4201D3E2
:102B90004B00C01A5241411A00D2014663465241CD
:102BA0005B10104601D34042002B00D549427047CC
:102BB00063465B1000D3404201B50020C046C046CA
:102BC00002BD000000487047B4800020024670B586
:102BD0000A4392072AD11E4DEE0104C808C9541BAE
:102BE0009443344017D0D0B2D9B2401A21060143E1
:102BF00010D190B299B2401A210401430AD11002B7
:102C00001902000A090A401A2102014302D1100EDA
:102C1000190E401A70BD9A42DFD010BA19BA884214
:102C200001D9012070BD0020C04370BD02780B782F
:102C3000401C491C002A09D09A4207D102780B781F
:102C4000401C491C002A01D09A42EFD0D01A70BD16
:102C50000101010101491820ABBEFEE72600020078
:102C60007047F8B5040C8BB2264682B25E4310461C
:102C700058430D0C370C3604002180191646794153
:102C80006E43370C36048019264679416E43891904
:102C9000F8BD30B47446641E2578641CAB4204D37E
:102CA000635D5B00E31830BC18471D46F8E7000081
:102CB0004900CA020243100000D004204A0D01D08E
:102CC00001221043044A490D914201D102210843D7
:102CD000012800D105207047FF07000030380A287E
:102CE00001D20120704700207047000010B5002974
:102CF0000AD00878002807D005487844FFF766FF17
:102D0000002801D0002010BD0248784410BD00000A
:102D1000860300007E03000010B500290AD0087861
:102D2000002807D005487844FFF750FF002801D05D
:102D3000002010BD0248784410BD0000760300005A
:102D40006E03000003B402487844844603BC604725
:102D5000A7F0FFFF03B402487844844603BC6047F1
:102D600011F3FFFF00002110422063308440A55082
:102D7000C660E770088129914AA16BB18CC1ADD1C1
:102D8000CEE1EFF13112100273325222B552944269
:102D9000F772D662399318837BB35AA3BDD39CC311
:102DA000FFF3DEE36224433420040114E664C774B5
:102DB000A44485546AA54BB528850995EEE5CFF561
:102DC000ACC58DD55336722611163006D776F66609
:102DD0009556B4465BB77AA719973887DFF7FEE7B1
:102DE0009DD7BCC7C448E5588668A77840086118D5
:102DF00002282338CCC9EDD98EE9AFF94889699901
:102E00000AA92BB9F55AD44AB77A966A711A500AA8
:102E1000333A122AFDDBDCCBBFFB9EEB799B588B50
:102E20003BBB1AABA66C877CE44CC55C222C033CF4
:102E3000600C411CAEED8FFDECCDCDDD2AAD0BBDA0
:102E4000688D499D977EB66ED55EF44E133E322E48
:102E5000511E700E9FFFBEEFDDDFFCCF1BBF3AAFF0
:102E6000599F788F8891A981CAB1EBA10CD12DC14E
:102E70004EF16FE18010A100C230E32004502540E4
:102E800046706760B9839893FBA3DAB33DC31CD344
:102E90007FE35EF3B1029012F322D2323542145234
:102EA00077625672EAB5CBA5A89589856EF54FE590
:102EB0002CD50DC5E234C324A01481046674476484
:102EC00024540544DBA7FAB79987B8975FE77EF7E4
:102ED0001DC73CD7D326F2369106B01657667676D4
:102EE000154634564CD96DC90EF92FE9C899E989B0
:102EF0008AB9ABA94458654806782768C018E10824
:102F00008238A3287DCB5CDB3FEB1EFBF98BD89B83
:102F1000BBAB9ABB754A545A376A167AF10AD01A73
:102F2000B32A923A2EFD0FED6CDD4DCDAABD8BADCF
:102F3000E89DC98D267C076C645C454CA23C832CC3
:102F4000E01CC10C1FEF3EFF5DCF7CDF9BAFBABF23
:102F5000D98FF89F176E367E554E745E932EB23E13
:102F6000D10EF01E000000000000000030313233AE
:102F700034353637383941424344454640305800AD
:102F800030313233343536373839616263646566DF
:102F9000403078000400000800000000000000023B
:102FA00000010000103031323334353637383961A2
:102FB0006263646566787000303132333435363799
:102FC0003839414243444546585000000240000011
:102FD000000000A00000000005400000000000C844
:102FE000000000000C4000000000409C00000000B9
:102FF000194000000020BCBE00000000344000006A
:10300000BFC91B8E00000004B5400000504BCFD05C
:103010006607E2CF010000006C4100003E8251AA29
:10302000DFEEA73401000000D9420000DCB5A0E2C9
:103030003A301F97FFFFFFFFB4450000FD25A0C8F1
:10304000E9A3C14FFFFFFFFFFF3F0000000000802A
:1030500000000000FF3F00000000008000000000B2
:10306000AC3100200080002020000000E40000209F
:10307000CC31002020800020F80300000001002057
:103080001C00000043000000F8FFFFFF0C000000E0
:103090000E0000000F0000002E00000010010000D4
:1030A00043000000F8FFFFFF004040404040404028
:1030B000404041414141414040404040404040400B
:1030C00040404040404040404005020202020202AF
:1030D00002020202020202020220202020202020FE
:1030E0002020200202020202020290909090909012
:1030F00010101010101010101010101010101010D0
:103100001010101002020202020288888888888843
:10311000080808080808080808080808080808082F
:103120000808080802020202400000000000000037
:10313000000000000000000000000000000000008F
:10314000000000000000000000000000000000007F
:10315000000000000000000000000000000000006F
:10316000000000000000000000000000000000005F
:10317000000000000000000000000000000000004F
:10318000000000000000000000000000000000003F
:10319000000000000000000000000000000000002F
:1031A00000000000000000000000000000E1F50544
:1031B00000E1F50500000000000000000000000034
:0C31C00000000000000000000000000003
:04000005200000A136
:00000001FF
