:020000042000DA
:10000000A0870020C1010020C90100208D0600202A
:1000100000000000000000000000000000000000E0
:10002000000000000000000000000000CD010020E2
:100030000000000000000000CF010020D1010020DE
:10004000D3010020D3010020D3010020D3010020E0
:10005000D3010020D3010020D3010020D3010020D0
:10006000D3010020D3010020D3010020D3010020C0
:10007000D3010020D3010020D3010020D3010020B0
:10008000D3010020D3010020D3010020D111002092
:10009000D5110020D9110020DD110020E111002030
:1000A00000F002F800F044F80CA030C8083824181A
:1000B0002D18A246671EAB4654465D46AC4201D1A0
:1000C00000F036F87E460F3E0FCCB646012633428E
:1000D00000D0FB1AA246AB4633431847984D0000A8
:1000E000B84D0000103A02D378C878C1FAD8520748
:1000F00001D330C830C101D504680C6070470000DE
:100100000023002400250026103A01D378C1FBD833
:10011000520700D330C100D50B6070471FB500985F
:10012000019901F004FB01F09FF91FBD10B510BD4E
:1001300001F057FB1146FFF7F1FF00F07FFC01F0E3
:100140006FFB03B4FFF7F2FF03BC01F09FFB00005D
:1001500030B40C490C684A6823681068C0181060F5
:10016000241D121D8C4207D28A4208D20C604A60BC
:1001700030BC4000400870470C00DC3CF6E70A0049
:10018000DC3AF3E73884002070B505460C46164685
:1001900002E00FCC0FC5103E102EFAD2082E02D36B
:1001A00003CC03C5083E042E07D301CC01C5361F7E
:1001B00003E021782970641C6D1C761EF9D270BD95
:1001C0000748804707480047FEE7FEE7FEE7FEE7EF
:1001D000FEE7FEE704480549054A064B7047000064
:1001E000F9010020A1000020A0840020A0870020A9
:1001F000A0850020A08500200449034808607047BE
:10020000024901480860704700E1F50500800020C0
:10021000F8B50F460646A0482E214A43151800247B
:1002200000950F350FE031194878092807D1325D64
:100230002846891C01F04DF90098315D8173305DCD
:10024000641C0019C4B2BC42EDD3F8BD10B592498C
:100250000120087000F070FC002010BD10B53F2A8E
:1002600001D100F025FC002010BD8B490020087052
:10027000704789480078042802D00020C0437047A6
:100280000020704770B5844C0D462078002801D0BE
:10029000012822D100F0D4FA022020707F4C288857
:1002A00020852946204606220A31213001F011F925
:1002B0002046FF21803041750175C17404233F221F
:1002C0000121774800F00BF9218D01800021817018
:1002D00000F0ECF8002000F082FC002070BD10B5AA
:1002E0006E4A0888128D904209D18A780146102002
:1002F00000F047FD68490020087000F001FC002074
:1003000010BD664809788030417500207047F8B507
:10031000624D087840350C46022806D0032835D0B7
:10032000052805D0072835D114E00120A87331E055
:100330005A481022A11C6C3001F0CBF857482146D6
:10034000102212317C3001F0C4F85448217E8030F4
:1003500081701FE0608A2884504821461431623041
:1003600008220F46064601F0B4F84C48217F603061
:100370008172227FA11C103801F0ABF8608A2884BA
:1003800008223946304601F0A4F803E00020A873A3
:1003900000F03BFC0020F8BD10B53F2A08D13E49D3
:1003A000002008703F4902228A71087200F09CFB0D
:1003B000002010BD10B5084600F087FC002010BDDD
:1003C00070B518460E4601461223374800F087F8EC
:1003D000324D04464035A87B00281BD02846082211
:1003E000B11C223001F048F8002813D1288C318844
:1003F00088420FD10120207028462030817A617414
:100400000146827A1039601C01F063F8012000F087
:10041000E6FB01E000202070204600F047F80020B5
:1004200070BD0020704710B50878002809D11B481E
:100430004B88028D1B489A4201D1097900E00021C6
:10044000C17100F0F6FB002010BD10B51248007815
:10045000002801D100F054FB002010BD10B5C87871
:10046000022802D1887800F006F810BD10B588780F
:1004700000F001F810BD10B5002806D0012807D003
:10048000022801D100F0B9F910BD00F0D9F910BD72
:1004900000F091F910BD000028800020A881002004
:1004A000030400001C8000201838000070B5704D57
:1004B0000446287E083C012807D021466D4800F0FC
:1004C00039F9688B401C688370BDE088214608308C
:1004D00080B200F022FF204600F089FF70BDFFB51A
:1004E0000746184681B01D460E46093000F04EFF03
:1004F0000780044646800398A080E580002D04D044
:1005000020462946083001F041F82046083005B061
:10051000F0BD10B5083800F06AFF10BD0020C043E0
:10052000704770B51C464B78002B09D10D782B0015
:1005300001F0D2F90406030608062346FFF72CFF54
:10054000002070BD2346FFF781FE70BD70B5428864
:100550003F2A1AD10488484D0146631B0831AC423A
:1005600053D020DC454BE51A9C4244D00EDC444B72
:10057000E31867D0434D5B1933D0012B36D0072BDE
:1005800003D183882046FFF770FE70BD3F231B0117
:10059000EB1AFAD0012B33D0032BF6D183882046F7
:1005A000FFF79DFE70BDFF26F6009D1BB342F9D0FC
:1005B0000CDC0A2B33D00C2B2CD00E2B34D0102B70
:1005C000F0D183882046FFF72CFF70BD012D34D079
:1005D000032D2ED0052DF8D183881046FFF73EFF5E
:1005E00070BD83882046FFF79CFF70BD838820463E
:1005F000FFF734FE70BD83882046FFF73AFE70BDDA
:1006000083882046FFF73EFE70BD83882046FFF7B3
:1006100078FE70BD83882046FFF779FE70BD838821
:100620002046FFF7C7FE70BD83882046FFF7C8FE4F
:1006300070BD1046FFF709FF70BD83881046FFF7B5
:1006400015FF70BD83880E484042FFF7ECFE70BD79
:1006500010B50D480068002808D00B4800F07CF861
:100660000446FFF773FF204600F0C1FE10BD0000F6
:10067000288200200C80002009380000103400007F
:10068000F1FBFFFF0FD0FFFF04800020FEE700001A
:10069000F8B50125032636020823324629460020F4
:1006A000009500F068FC00240723324621462046CE
:1006B000009400F060FC06233246032100200094E1
:1006C00000F059FC0022052302211046009400F09E
:1006D00052FC00236A0207211846009400F04BFCEC
:1006E000012100232A020846009500F044FCF8BDD1
:1006F0000021052000070180818803221202914316
:10070000FF31FF3102318180094A08211180418A7D
:10071000202211434182418A802211434182018A71
:10072000022291430182818A0907FCD5B0E70000CB
:100730000033005070B504460D46082000F026FE38
:10074000002122C021680838002903D061680860B0
:10075000606070BD2060FBE710B5014600680028AE
:1007600005D002680A60446800F041FE204610BDD2
:10077000312051490001888105200007818803222A
:1007800011438180828808210A4382804B48028875
:100790008A43028001880222914301800188042259
:1007A000914301807D21C9018180C180018801229E
:1007B00011430180704731203F49000148810520E5
:1007C00000078188032211438180828808210A431F
:1007D00082803A4802888A4302800188022291433B
:1007E0000180018804229143018035498180C180C4
:1007F0000188012211430180704731202E490001F8
:100800004881052000078188032211438180828866
:1008100008210A438280294802888A43028001888D
:1008200002229143018001880422914301807D21AD
:1008300089018180C18001880122114301807047B4
:1008400010B51E4801884908490001801A4A002154
:100850005181918105221207948808239C4394803A
:100860008180C180418090885021984308439080C6
:1008700010BD10B50124134824050460142000F0B5
:1008800075FCFFF7DDFF104804600E4880380460F7
:1008900010BD1CB501240B49200508600B4914202C
:1008A00000F074FC002001230190142219460094EA
:1008B000184600F096FB1CBD20300050003400505C
:1008C000C05D000080E100E080E200E073080020ED
:1008D000F8B50E460746564C00F08FFA00F086FA3F
:1008E000002520E0002F04D0012F12D0022F18D1B4
:1008F00026E0207800F0F7FA20880004000E00F0CF
:10090000F2FA20680002000E00F0EDFA2068000EF6
:1009100005E0208880B200F0E6FA2068000C00F0C4
:10092000E2FA241D6D1CB542DCD300F066FA00F03B
:100930005DFA002000F0D7FAC0B2AA2808D101E081
:100940002068ECE7002000F0CEFAC0B2022803D005
:1009500000F053FA0020F8BD00F04FFA0120F8BD76
:1009600070B515460E46044600F040FA702000F0BF
:10097000BAFA502000F0B7FA002000F0B4FAE0B262
:1009800000F0B1FA02280BD12004000E00F0ABFAFF
:10099000304600F0A8FA284600F0A5FA022803D055
:1009A00000F02BFA002070BD002000F09CFA00F04F
:1009B00024FA012070BD30B50446FF2000211C4DF3
:1009C0000CE08A00AA58130E43401002000E584053
:1009D00013041B0E4340D0B25840491CA142F0D32F
:1009E00030BDF0B5134885B0012646700024124F83
:1009F00004703846FFF7DFFF0025039000942B4674
:100A00002A462946029601940A4800F0FDF93C4620
:100A10002A4620460399FFF7A3FF0006000EF7D0F1
:100A200021460020FFF754FF00F044FA05B0F0BD66
:100A300000190020148000205D0D00000EB5D8487C
:100A40000125457000260670FFF752FED54C26762C
:100A50006683A683FFF7C5FF002300961A46194652
:100A6000CF480296019500F0CFF900F048FCFFF75F
:100A700010FF207E012812D1608B00280FD0CA48B9
:100A8000FFF76AFE0546C0882946083080B200F0AC
:100A900044FC284600F0ABFC608B401E6083A08BBA
:100AA0000028E6D0FFF7D4FDA08B401EA083E0E72E
:100AB00070B501233F220D21BC48FFF710FD012531
:100AC0000021BB4C0570217061700A462E235343F0
:100AD0001B199D70D970D9739973521C5973092AC7
:100AE000F4DBFFF7E3FC70BD10B501233F221021BA
:100AF000B048FFF7F4FC01210170FFF7D7FC10BDEF
:100B0000AA4810B522233F220D21801CFFF7E7FCE5
:100B1000032101700A214170002141820175417554
:100B2000082202831022428381836422C28320220E
:100B30001154FFF7BBFC10BDF0B59C4891B0502399
:100B40003F220D210C30FFF7CAFC04460E20207016
:100B5000002060700121C902A181E1810720207479
:100B60000120607426461F21203631742046082259
:100B70001430E27490A1054600F0ABFC0A22204636
:100B8000327490A1313000F0A4FCE07C1A21081AE4
:100B90000606360E1ED008273A468DA16846FFF796
:100BA000F3FA082E01D93A4600E03246E17C501CA7
:100BB00048551646E27C2046092115301154E17C47
:100BC000401C08183246694600F083FCE07CB61CE5
:100BD0008019E0742046FFF769FC11B0F0BD10B534
:100BE000044670482C238038008D3F2200020E30CE
:100BF00081B27A48FFF773FC01462030047200226C
:100C000042720846FFF752FC10BD664810B58038A6
:100C1000008D022300020E3081B270483F22801CFA
:100C2000FFF75DFC0121017013214170FFF73EFCCD
:100C300010BD10B5102106233F228802FFF74FFC9C
:100C400058498039098D01800121817064498A7970
:100C5000C270C9790171FFF729FC10BDF8B50646CD
:100C60005048002420388672514DFFF771FA291937
:100C7000FF31E131641CE4B28870082CF5D3002404
:100C80001027381BB04201DD002007E0FFF760FAB3
:100C9000C117090E0918090A0902401A2919FF315A
:100CA000C131641CE4B20874102CEAD3FFF750FA87
:100CB0003C4940390884F8BD10B5FFF749FA494965
:100CC00000F072FC4848081810BDF8B507463548D2
:100CD0001E238038008D3F2200020E3081B23F4833
:100CE0001230FFF7FCFB0446387804260125002863
:100CF00007D0042812D0072824D02046FFF709FC8B
:100D0000F8BD257065700020E0701021617103212D
:100D1000A1702571A671E57120722EE07878012806
:100D20002BD1FFF7C9FF0746267065701021A01C64
:100D300000F02CFC380EA073380CE073380A2074D5
:100D400067741AE07878FFF789FF0720207015484C
:100D500065702038807A2077124812494038008C1C
:100D60006082204608221E39143000F0B2FB0D4983
:100D700010223039A01C00F0ACFB2046FFF796FB98
:100D8000F8BD70B50D4601461448144604233F22B1
:100D9000401CFFF7A4FB05808470FFF787FB70BD44
:100DA00016800020288200200C80002002340000E1
:100DB00028800020034000000703031802180418CD
:100DC0000000000009FF006052572D424C45000012
:100DD00046455F50524F5852000000000238000054
:100DE0001C800020A0BB0D00A086010010B54F485C
:100DF0004178007800F0ABF810BD10B54B48417851
:100E0000007800F0AEF810BDF8B50E46154647491B
:100E10000278079F0A7040781C464870FFF7EDFF84
:100E20000520000781880122D202114381804048B9
:100E300001884908490001800188FF2281329143DD
:100E4000F20111430180018840229143AA0111431C
:100E50000180018804229143A2001143018001888E
:100E600002229143069A5200114301800188012217
:100E700092039143BA0311430180018818229143E0
:100E8000089AD20011430180018801221143018098
:100E9000F8BD27490A88520852000A800A88FF23B1
:100EA00081339A43C00102430A800888012210431B
:100EB0000880704710B51E48018849084900018024
:100EC0000520000781880122D202914381801748C2
:100ED0004178007800F045F810BD154801884908B0
:100EE00049000180704710B5114900230A88D205D6
:100EF000920F012A01D9040C8C8048800888800454
:100F0000FCD50120C880012A01D9888803044888BB
:100F1000C01810BD10B50446FFF768FF2046FFF764
:100F2000E2FF0446FFF769FF204610BD188000204D
:100F300000120050704710B5032800D10420B14CB6
:100F400040010019490008181A43C28010BD032847
:100F500000D10420AB4A4001801801228A408280DF
:100F60007047032800D10420A64A400180180122BE
:100F70008A404280704770B506460498144600289F
:100F80000D46304602D0FFF7ECFF01E0FFF7DFFF30
:100F9000224629463046FFF7CEFF70BD10B5002827
:100FA00007D0431E974C5B0070341B19012802D0F8
:100FB00002E00023F6E70831188801248C40A043A2
:100FC0008A4002431A8010BD032800D104208D4AB4
:100FD00040018018008801228A40104000D0012082
:100FE0007047FFB583B088A00068009010461338A2
:100FF000FF2601368640019014460D9FB0B200F0E6
:10100000F1F8002F01D0012100E000217F4D814047
:10101000A889B0430143A9813F2000F0E3F887404D
:10102000A889800980010743AF81B0B200F0DAF8E7
:101030000C998140288AB0430143298201260199F5
:1010400030468840074680B200F0CCF806998140CF
:10105000288AB843014329823F2000F0C3F803994E
:101060006A46525C049951188140684862004038D1
:101070001018428B9209920111434183A007C20EBE
:10108000FF21914080209040002C0BDA2207120FA4
:10109000083A93085E4A9B009A18D3698B4303432E
:1010A000D36107E0A3085B4A9B009A1813688B433F
:1010B00003431360E006C00E86405748066007B041
:1010C000F0BD52490A8A0121133881400A40C807FD
:1010D00001D0002038E0880701D5012034E048071E
:1010E00001D5022030E0080701D503202CE0C80616
:1010F00001D5042028E0880601D5052024E0480613
:1011000001D5062020E0080601D507201CE0C8050F
:1011100001D5082018E0880501D5092014E048050C
:1011200001D50A2010E0080501D50B200CE0C80409
:1011300001D50C2008E0880401D50D2004E0480406
:1011400001D50E2000E00F20C240D0B2704770B52C
:101150000124133884400D46A0B200F043F88540C6
:101160002A48018AA1430D43058270BD70B5012450
:101170002146133881400D4688B200F033F8844090
:101180002248C189A9430C43C48170BD0246133A69
:10119000042A04D8214A80008018803841637047AF
:1011A00010B50446133804280AD82046FFF7DEFF9E
:1011B0001A49A00040188038406B002801D08047B1
:1011C00010BDE106C90E012088401549086010BD18
:1011D0001320E5E71420E3E71520E1E71620DFE719
:1011E0001720DDE700280AD0411E4840C003010C4B
:1011F000002001E04908401C0029FBD100E010203C
:1012000080B270470030005001090F1900140050DF
:1012100000ED00E000E400E000E100E04883002091
:1012200080E200E0F8B50446801C0090FFF7E5FD81
:10123000FFF7DCFD0820FFF756FE0020FFF753FE06
:101240002070C0B24A4D641C052808D006283CD046
:1012500007283ED00024FFF7D0FD2046F8BD002629
:10126000641C0020FFF73FFE2070761CB6B2641CA1
:10127000062EF6D30020FFF736FEC6B226700020F9
:10128000FFF731FE607000028019002786B2A41CAF
:1012900006E00020FFF727FE7F1C2070BFB2641C11
:1012A000B742F6D330460830064600F06FF80446E1
:1012B0003246009900F00DF921462E48FFF73AFA20
:1012C000A88B401CA8830124C5E7012028760224AE
:1012D000C1E7002028760324BDE710B52648008822
:1012E00000060BD501242548E40404602448FFF7D8
:1012F00099FF2448046021488038046010BD1CB563
:1013000021491320FFF742FF0020009003461322DB
:1013100007210190FFF765FE1CBDF8B507460126C1
:101320001648F6040D46066007210020FFF74CFE24
:101330000028F9D1FFF761FDFFF758FD0520FFF701
:10134000D2FD002409E00C4801880906FCD4287865
:101350006D1CFFF7C8FD641CA4B2BC42F3D3FFF7B9
:101360004CFD08480660054880380660F8BD00005E
:1013700028820020048000200030005080E100E03E
:101380004682002080E200E0DB12002070B50646B5
:1013900000F0B0F9056830460B30C408E400B442F0
:1013A00001D8002070BD68682A46002818D001685E
:1013B000A14211D30B46214608318B4208D3436822
:1013C00001194B6003681B1B0B605160046001E056
:1013D00041685160001D70BD024640680028E6D19A
:1013E0002146284600F08EF90028DCD170BD70B58A
:1013F0000446051F00F07EF90068002C1AD04468EE
:1014000001E020466468002C01D0AC42F9D30168A9
:101410000A18AA4204D12A6805468918016000E02A
:10142000456028684119A14205D161686960216859
:101430004018286070BD6C6070BD00000B4A30B56C
:1014400011460B4C60310B46DC3B0CC1372106E0EA
:10145000020C8D0012185A51064A504300190A46D0
:10146000491E002AF4DC30BD0120E7E7D8830020C4
:10147000E119D666CD0D0100034610B50B439B075D
:101480000FD1042A0DD308C810C9121FA342F8D0E7
:1014900018BA21BA884201D9012010BD0020C043EA
:1014A00010BD002A03D0D30703D0521C07E0002050
:1014B00010BD03780C78401C491C1B1B07D1037816
:1014C0000C78401C491C1B1B01D1921EF1D11846FF
:1014D00010BDF8B5042A2CD3830712D00B78491C11
:1014E0000370401C521E83070BD00B78491C0370FD
:1014F000401C521E830704D00B78491C0370401C0B
:10150000521E8B079B0F05D0C91ADF002023DE1B5C
:1015100008C90AE0FEF738FEF8BD1D4608C9FD40BF
:101520001C46B4402C4310C0121F042AF5D2F30805
:10153000C91A521EF0D40B78491C0370401C521E6D
:10154000EAD40B78491C0370401C012AE4D40978C2
:101550000170F8BD01E004C0091F0429FBD28B070C
:1015600001D50280801CC90700D002707047002995
:101570000BD0C30702D00270401C491E022904D3BD
:10158000830702D50280801C891EE3E70022EEE774
:101590000022DFE7002203098B422CD3030A8B428F
:1015A00011D300239C464EE003460B433CD400225B
:1015B00043088B4231D303098B421CD3030A8B426D
:1015C00001D394463FE0C3098B4201D3CB01C01A3B
:1015D000524183098B4201D38B01C01A5241430906
:1015E0008B4201D34B01C01A524103098B4201D3F4
:1015F0000B01C01A5241C3088B4201D3CB00C01A61
:10160000524183088B4201D38B00C01A52414308D8
:101610008B4201D34B00C01A5241411A00D20146FD
:101620005241104670475DE0CA0F00D04942031096
:1016300000D34042534000229C4603098B422DD3E5
:10164000030A8B4212D3FC22890112BA030A8B428D
:101650000CD3890192118B4208D3890192118B42DC
:1016600004D389013AD0921100E08909C3098B4261
:1016700001D3CB01C01A524183098B4201D38B01A4
:10168000C01A524143098B4201D34B01C01A524147
:1016900003098B4201D30B01C01A5241C3088B428C
:1016A00001D3CB00C01A524183088B4201D38B0077
:1016B000C01A5241D9D243088B4201D34B00C01A01
:1016C0005241411A00D20146634652415B10104616
:1016D00001D34042002B00D54942704763465B105E
:1016E00000D3404201B50020C046C04602BD70474D
:1016F0007047704700487047488400207047704723
:101700007047704738B504460A4600206946C0460F
:10171000C046002805D002462046009900F040F857
:10172000012038BD10B5012000F054F810BDF8B507
:10173000C046C046054600200C461020C04606465E
:10174000A819A0420DD9324669460020C046C046BD
:10175000070001D100F03EF80098A04200D00546F5
:10176000C419FFF7C7FFF61D07460560F008C00063
:101770004619284600F008F8B44204D031463868CB
:10178000A21B00F00DF8F8BD0021016041608060EF
:1017900070471020704700000048704740840020C8
:1017A00010B50346406801E003464068002801D0B8
:1017B0008842F9D31868C3188B4206D0CB1CD808CE
:1017C000C000001D411A521A0146081D0A60FFF7A9
:1017D0000EFE10BD10B500F031F800F029F810BD74
:1017E00070477546FFF7D8FFAE4605006946534679
:1017F000C008C000854618B020B5FEF7EBFC60BC01
:1018000000274908B6460026C0C5C0C5C0C5C0C52A
:10181000C0C5C0C5C0C5C0C5403D49008D46704764
:1018200010B50446C046C0462046FEF78AFC10BDEF
:1018300010B5002801D000F029F810BD10B501281E
:1018400005D0002103A000F027F8012010BD09A158
:10185000F8E7000053494752544D454D3A204F7523
:1018600074206F662068656170206D656D6F727998
:10187000000000003A2048656170206D656D6F7250
:101880007920636F72727570746564000149182065
:10189000ABBEFEE72600020070B505460C460A20E6
:1018A00000E06D1C00F012F8002D06D0287800280A
:1018B000F7D102E0641C00F009F8002C02D0207877
:1018C0000028F7D10A2000F001F870BD08B569467C
:1018D00008700320ABBE08BD30B47446641E257882
:1018E000641CAB4200D21D46635D5B00E31830BC54
:1018F0001847000000000000000000000000000089
:1019000000980020C5040020CD040020E50400203C
:1019100000000000000000000000000000000000C7
:10192000000000000000000000000000FD04002096
:101930000000000000000000150500201705002031
:101940004B2200203F2300203D2F03002D230020A9
:10195000B3220020BD2F0300512300205923002073
:1019600019050020EB1C002071230020DD2F03004F
:10197000A77E02001905002019050020331C002055
:10198000190500201905002019050020351A00202E
:10199000391A00203D1A0020411A0020451A002063
:1019A000FFFFFFFFFFFFFFFFFFFFFFFFFFFFFFFF47
:1019B000FFFFFFFFFFFFFFFFFFFFFFFFFFFFFFFF37
:1019C000FFFFFFFFFFFFFFFFFFFFFFFFFFFFFFFF27
:1019D000FFFFFFFFFFFFFFFFFFFFFFFFFFFFFFFF17
:1019E000FFFFFFFFFFFFFFFFFFFFFFFFFFFFFFFF07
:1019F000FFFFFFFFFFFFFFFFFFFFFFFFFFFFFFFFF7
:101A0000FFFFFFFFFFFFFFFFFFFFFFFFFFFFFFFFE6
:101A1000FFFFFFFFFFFFFFFFFFFFFFFFFFFFFFFFD6
:101A2000FFFFFFFFFFFFFFFFFFFFFFFFFFFFFFFFC6
:101A3000FFFFFFFFFFFFFFFFFFFFFFFFFFFFFFFFB6
:101A4000FFFFFFFFFFFFFFFFFFFFFFFFFFFFFFFFA6
:101A5000FFFFFFFFFFFFFFFFFFFFFFFFFFFFFFFF96
:101A60003F000000AB050020EF1100209D28002062
:101A70000000000000000000A77D0200017E0200BF
:101A80000F7E02004B7E0200697E0200857E02000E
:101A9000AD7E0200BD210020910500206D0C0020CC
:101AA000770C002000000000000000003F00000054
:101AB000F48B002000040000140D08004C0100000D
:101AC00008090800000400006C0E08002005000052
:101AD0000000000020000000480000005800000046
:101AE00068000000260300003A0300004E030000D7
:101AF00054030000D02800008E2E000001000000DA
:101B000088130000791200200D5D0200119102007F
:101B1000572303001326030097710200D91F0020EA
:101B2000030000006D0E0020AD280020040000001E
:101B300087450200BF440200F91B02007B8E0200B1
:101B4000CF8E0200D78E0200577F0200C57F0200B1
:101B50006A310020BB8002009B81020049820200A2
:101B6000E98202000D830200738302008983020070
:101B70000B8502003186020033870200E5890200EE
:101B80001F8A0200278D02005B8A02003F8B020041
:101B9000118C02005F8C0200F30B0020ED8C020020
:101BA000474D0200754D02002F4E0200100000004C
:101BB00020030000803E00003F0000000D000000F8
:101BC00027000000000000000000000000000000EE
:101BD000504600030003983A6400F401B80B000C6F
:101BE000B80B120030003000CD009A011200240022
:101BF00030006400B0001800280012001200D00766
:101C00000000FFFF000000000000000000000000D6
:101C10001F0000024441313435383100000000001B
:101C200000000000000000000000000000000000B4
:101C300000000000FFFFFFFFFFFFFFFFFFFFFFFFB0
:101C4000FFFFFFFFFFFFFFFFFFFFFFFFFFFFFFFFA4
:101C5000FFFF010000C201000000000000000000C2
:101C60000000F4010100011B0A071AFFD20002154F
:101C7000585CDE931B0142CC9A1325009BEDC65E97
:101C800000010002C5000000000009FF006052577B
:101C90002D424C4500000000000000000000000044
:101CA00000000000000000000000444131343538DD
:101CB00078000000000000000000000000000000AC
:101CC0000000000000000000000000000000000014
:101CD0000000000000000000000000000000000004
:101CE0000000000000000000010000CAEA80D007E8
:101CF00006406432FFFFFFFFFFFFFFFFFFFFFFFF14
:101D0000FFFFFFFFFFFFFFFFFFFFFFFFFFFFFFFFE3
:101D1000FFFFFFFFFFFFFFFFFFFFFFFFFFFFFFFFD3
:101D2000FFFFFFFFFFFFFFFFFFFFFFFFFFFFFFFFC3
:101D3000FFFFFFFFFFFFFFFFFFFFFFFFFFFFFFFFB3
:101D4000FFFFFFFFFFFFFFFFFFFFFFFFFFFFFFFFA3
:101D50000348854602F0BEFC00480047211C0200F3
:101D600000980020134906200880FF201249013006
:101D7000086005200007818A0906FCD54189890889
:101D80008900418141890906FCD50C4A91683E23AE
:101D900099432E31916000220280018A0F231B0299
:101DA0001943018201210648C90404C1401EFCD523
:101DB00062B670470034005080E100E0003300500C
:101DC000FF0B000015488047154800470420714666
:101DD000084203D0EFF3098012490847EFF3088067
:101DE0001049084704207146084203D0EFF30980E8
:101DF0000D490847EFF308800B4908470420714656
:101E0000084203D0EFF3098008490847EFF3088040
:101E100006490847FEE7FEE7FEE7000065040020EC
:101E2000510400202D090020310500200D0E002056
:101E300005221207518A80231943518212490368EF
:101E40000B6043684B6083688B60C368CB60036939
:101E50000B6143694B6183698B61C369CB61086224
:101E60000A48836A4B62C36A8B62036BCB62C36BA3
:101E70000B63436B4B63806B8863908A800601D54C
:101E800000BE7047FEE700000018080000ED00E00B
:101E900010B592490020086000F026FB0120800761
:101EA000016B49004908016310BD08B58C49012048
:101EB00008708C490820088002F01EFC00F000FF2A
:101EC00000F07DFA88480178017088480178017037
:101ED000012002F017FCFF240134352021460001C7
:101EE00002F016FC01F014FD00F064FD00F08CFA25
:101EF000042000F0ECF8072000F0E9F80A2000F0D8
:101F0000E6F8062000F0E3F80B2000F0E0F80120EE
:101F100000F0DDF8022000F0DAF8002000F0D7F839
:101F20007348006802F0FAFB00F0DCFBA0050268D1
:101F30002243026000F03AFB00F0FDF8FFF7A8FF33
:101F4000002705242407E7826A484188E02291435C
:101F5000A0314180012002F0E7FB04262089000621
:101F600019D501208007006B000414D402F0E2FBB5
:101F7000C00710D1042002F0E3FB054602F0E6FBA7
:101F8000002D08D004216846009702F0E5FB0028E8
:101F900001D000F0BCFA00F0F3FA0028DED072B6EF
:101FA00001F0DCFC0546042806D0022D0BD0032DE1
:101FB00009D001287ED088E04F480078012801D060
:101FC000032500E00225208A304320824B48C06967
:101FD000012810D9032D19D102F0C4FB002815D017
:101FE00002F0C6FB002811D0032002F0C7FB002836
:101FF0000CD0022007E0032D08D1032002F0BEFB25
:10200000002803D001203E49087000E002253D4829
:10201000016931430161618A202291436182218AF1
:10202000022211432182618A022D1ED03143618236
:102030007F212288890180231A4322800022521C9A
:10204000D2B20A2AFBD3628A10231A4362822E4A32
:10205000491E516121888022914321802B49022D04
:102060000F700AD0032D08D023E031436182618ACA
:1020700010229143618225490F701E494A88FF232F
:1020800001339A434A806288214B1A804A8801238F
:102090001A434A8000970099491C00911429FADBE1
:1020A000618989088900491C618161894906FCD5DB
:1020B000678000E004E030BF0169B143016104E0E2
:1020C00000F05EFA002800D030BF62B646E7C106D5
:1020D000C90E012088400F4908607047FC040800C1
:1020E000008000200033005000000800D0280800C5
:1020F000209000202000005078030800E00100201C
:10210000B007080000ED00E0008000404E80002095
:102110005080002080E200E0704700003E480178D7
:10212000002902D08021417070473C49002008708E
:102130003B49C870704738480178002902D0812196
:10214000417070473549012008703549C8707047A3
:1021500031480178002902D08221417070472F490F
:10216000022008702E490120C87070472A488178E3
:10217000002904D0491E0906090E817017D1427842
:102180000021002A04D09207920F0270417004E0EF
:102190000278002A01D0521E02701206120E01703F
:1021A00005D0012A02D0022A01D1D1E7C3E7704746
:1021B00010B5194CA078401CA0702078002805D1DB
:1021C00002F0E2FA421CFFF7A9FF227010BD12498B
:1021D0000120C870704710490020C87070470E4831
:1021E000C07870470020EFF31081012282F310883D
:1021F000052212071289120605D40A480289012312
:102200001A4302811846002900D0012181F3108869
:102210007047054800787047018000207803080067
:10222000B2070800003300504C800020052212073E
:10223000118A042319431182118A0223194311823E
:102240001189402319431181184B01211960184B42
:1022500008211980518A8023194351821549036846
:102260000B6143684B6183688B61C368CB61036911
:102270000B6243694B6283698B62C369CB620863FB
:102280000D48836A4B63C36A8B63036BCB63C36B79
:10229000084940310B60436B4B60806B8860908ACB
:1022A000800601D500BE7047FEE7000080E200E036
:1022B000003300504018080000ED00E070B54D48B4
:1022C00000220168D243002901D0134600E0012317
:1022D000494903600D68DC174E682B4334430B609B
:1022E0004C604368002B01D0134600E0012343609B
:1022F000DC17DB180D6864414E682B4334430B60D8
:102300004C608368002B01D0144600E00124E317E1
:10231000A50F9B002B4384600D68A4004E682C43DE
:1023200033430C604B60C368002B01D0144600E0BF
:102330000124E317650FDB002B43C4600D68E40044
:102340004E682C4333430C604B60C369002B00D1B3
:102350000122C261D017530EC00118430C68D2018C
:102360004B68224318430A60486070BDF8B50024EA
:10237000FF220723013221462046009400F043FD4E
:1023800008239D012A4601210020009400F03BFD16
:102390000623DE01324602210020009400F033FDC6
:1023A00005232A4603210020009400F02CFD002381
:1023B000324607211846009400F025FDF8BD10B5FF
:1023C00005242407208A022188432082A08A00074E
:1023D000FCD50A484188FF2201321143418001F0B7
:1023E00000F800F09FF9FFF7C1FF608A2021084341
:1023F000608210BD30900020289000202000005006
:102400009A4900204860704770B50520000701898F
:102410003022914301810189802211430181018988
:1024200089088900491C0181018908231943018118
:102430008F490C8814430C80448A9C43448205894C
:10244000402425430581058A0426B5430582858AF3
:10245000AD07FCD5854E002575600D8801263543F6
:102460000D804D89AE05834D0E8801D52E4300E0C9
:10247000AE430E800D887826B54328350D800D8833
:10248000062635430D80458A1D4345820B889343BC
:102490000B800289A24302814889800503D57449D3
:1024A00005206031888001208007016882159143F2
:1024B0000160714801683F22520291434214891819
:1024C0000160016802031143016070BD03216B4884
:1024D00009028181082242800021491C9629FCD3EF
:1024E000828070477047704710B5654802F052F916
:1024F00010BD70B55E4C6088C006050F02F050F943
:1025000061881E2291436A001143618070BD10B53D
:102510005C490120C863C86B0028FCD101208007FA
:10252000C16959480268914201D200220260192310
:102530008A1ADB019A4212D3016002F037F9534A3A
:102540001188884201D9411A00E0091A89B2182974
:1025500005D31080012002F02FF902F033F910BDED
:1025600008B5009808BD08B5009808BD08B502F088
:102570002FF9009008BD08B502F030F9009008BDB1
:1025800010B53F2002F030F9002805D1404880788E
:10259000002803D0032801D0002010BD012010BD69
:1025A00040183721C0000901401870471FB5684620
:1025B00001F017F9009802F0A5F81FBD10B5354AD3
:1025C0000020117800290DD02E490120C863C86B66
:1025D0000028FCD101208007C0692F490968884282
:1025E00001D2012010BD0020107002F0CDF80228A9
:1025F00003D002F0C9F801280BD12849082008802F
:1026000005200007818A8906FCD4418A80229143F3
:102610004182002010BD0020704708B514494A8847
:1026200001231A434A8000210091491C009114297A
:10263000FBDB052109074A8992089200521C4A8156
:102640004A895206FCD54B89042213434B814880AA
:10265000488990434881888A0006FCD548898008CB
:102660008000488148890006FCD508BD088000200C
:1026700020000050001000000002004020300050F8
:10268000E2040000C0000040F8050800F40508005E
:102690001C06080000800020FC340020003300509D
:1026A00070B505460C46103C3F2002F09DF800280E
:1026B0000FD023488068322806D922498D4201D0A4
:1026C0003C2801D9002070BD21461D4802F092F837
:1026D00006E0204602F094F801213F2002F096F82F
:1026E000012070BD10B518490B780A1D002005E0C7
:1026F000C400145D3F2C04D0401CC0B29842F7D3F4
:1027000010BDC000114A4018826010BD8169203997
:10271000897F022905D20D4A8900083A5158816102
:102720007047FEE70B480A4901610B4941610B49BB
:1027300081610B49C1610B4901620B4941627047DC
:10274000FC050800103400004C080800A8310020E7
:102750001C4B02000084004001DFFFB5C4A802004A
:1027600000DFF8B57C45030035100020014600204D
:10277000002901D0022900D100487047B83100205B
:10278000F3B581B0002000900D464A88044601460A
:102790006B46019802F040F8060009D10098C48801
:1027A000019802F03FF8401E844200D2204684B2D5
:1027B00022460B21019802F03BF80746002E06D076
:1027C0006A882978334602F039F80020FEBD7C8003
:1027D000009922460831381D02F036F8384602F0DA
:1027E00039F8688802F03CF80028EED001990223FD
:1027F0000A0201890C32044802F038F86988018025
:1028000002F03AF8E1E7000012300000FFB506469A
:10281000807A81B0012805D0022340490D68002D3F
:1028200002D006E00023F8E7022870D0012871D01A
:102830003B4D3C4CF288A08BB18880B202F022F86C
:102840000090E0694E23042158434B042268C018CD
:102850001152E0694E235843344B22683249C01864
:102860001152E0694E23717A5843304B09025531B9
:102870009B1E2268C01811520098E26940304E2712
:1028800041887A431B11294F19433F1D2368D219F0
:102890009952E1694E277943244F4B2252010C375C
:1028A0002368C9195A5221464031E269097B4E27F3
:1028B000049B7A4309021D4F1943BF1C2368D21998
:1028C00099522368E1694E246143184C0022143464
:1028D00009195A52164A962111631549327A40391C
:1028E0000A610D62049941760299009801F0D0FFC7
:1028F0000398002803D00146009801F0C9FF009812
:1029000001F0CCFF009805B0F0BD00E002E0FF252B
:10291000F5358EE7024DFA3D8BE700001C80002064
:10292000DC050000E0010020278000000A0008000C
:10293000C0000040FFB581B01E4614460F46150A80
:10294000104601F051FF00280DD00849A800085892
:10295000C07B002807D0334622463946019801F053
:10296000A3FF05B0F0BD0020FBE70000C006080093
:102970000F4A518807235B0299434002014351806B
:10298000704705200007018830221143018001882B
:10299000032211430180704705200007018830227F
:1029A00091430180018889088900018070470000F7
:1029B0008000005030B5964A9649D005048880239F
:1029C0001C430480944C65892D0701D4521EFAD211
:1029D000924C01222260924C0A882280914A4988B6
:1029E000118001889943018030BD002070477047F5
:1029F000704770470020704701218907086B072244
:102A0000104308637047704730B5884986480860AE
:102A100087494C200880864C864B203C238287497E
:102A20008548488087488649018085491931418019
:102A30002221418181218900018283494182834988
:102A400001838149113141837E4A8149203291803D
:102A50004122804912018A807F4ACA807E4D10350A
:102A6000CD810A824A82921C8A826A1FCA82FF2210
:102A700046320A83794A4A83794A59211180784932
:102A8000784D20310D8043254D80774D5582D522DC
:102A90008A80FF22D3320A81744A4A81744A8A8129
:102AA000754A744911806249744A60394A80CA88FB
:102AB00010252A43CA806B4A0A3A0A815C4D704A43
:102AC000403D6A80638208224A815649644A0988E7
:102AD000403A118252496B4A098811806A49097843
:102AE000002901D03021018330BD4008704700B576
:102AF0008BB0664A4262664A8262664A4261664AB0
:102B0000C262664A0260664A0262664A4260664A79
:102B1000C261464A44480021106044484038026B74
:102B200003129A430263426B1F231B049A4303233D
:102B30001B04D21842635D480268C3129A430260C4
:102B4000026803139A43026068464154491CC9B2A3
:102B50002829FAD301462822554801F075FEFFF7CF
:102B600053FF01F023FE53490880002001F024FEAA
:102B700001F028FE0BB000BD10B52C4A0F212A48E9
:102B80000902106029484038426B1F231B049A43F6
:102B900003231B04D218426300060268D208D20045
:102BA000026005200007028992089200521C0281EF
:102BB000028908231A430281028A0A4302821648C4
:102BC0004189890504D50188782291430831018023
:102BD000FFF71AFF3848006B0078002804D0374808
:102BE000008813496039C880012001F09DFD10BDA7
:102BF0002548007870472449012008701149302089
:102C0000088370472049002008700E4908837047E8
:102C1000A0860100087F04002000005000800040D2
:102C20007A030800AE0408004C05540780000040F9
:102C3000602C00507F7F0000AC2900000022005073
:102C400009090000002400502204000030D00000D8
:102C5000EE110000002500502E020000442000006C
:102C6000402800500D95000002420000E4DC000006
:102C70001092000053780000002A00508B100000D2
:102C80009DD500000026005020800020EB10002081
:102C9000EF100020F5100020F9100020F1100020A6
:102CA00007110020F3100020EB110020000200406B
:102CB00020000800F405080020020020CE050800CE
:102CC000FEB50020F74E0346282200214243921908
:102CD0008C00491C13510A29FADB401C0428F3DB41
:102CE000FFF7ECFAEF480022083802604260154610
:102CF0000024ED486900475A0120A04080B20742F5
:102D00001CD0282068438019A1004058411C19D0CC
:102D1000002810D0C117224601F0CCFD2A0101F095
:102D2000C9FDE04B083B1A685B681043DD4A194354
:102D3000083A10605160641C0A2CDDDB6D1C042D08
:102D4000D6DBFEBD0095019400BEE3E7F8B516465C
:102D500004460D460A461F460120002101F0AAFD47
:102D6000220101F0A7FDCF4B083B1A685B681040B9
:102D70001940084300D100BE032C00D10424CB49E4
:102D800060014018690008183E43C680F8BD70B560
:102D900004460D460A460120002101F08BFD220168
:102DA00001F088FDBF4A083A136852681840114084
:102DB000084300D100BE032C00D10424BB496001AC
:102DC00040180121A940818070BD70B504460D46B0
:102DD0000A460120002101F06DFD220101F06AFD8B
:102DE000B04A083A1368526818401140084300D1AD
:102DF00000BE032C00D10424AC496001401801211D
:102E0000A940418070BDFFB581B00C4605460A4619
:102E10001F46012000210A9E01F04CFD2A0101F00D
:102E200049FDA04B083B1A685B68104019400843F5
:102E300000D100BE002E2146284602D0FFF7C5FF74
:102E400001E0FFF7A4FF3B4621462846039AFFF71F
:102E50007DFF05B0F0BD70B5154604460E460A4626
:102E60000120002101F026FD220101F023FD8D4B00
:102E7000083B1A685B6810401940084300D100BE47
:102E8000002C07D0601E8949400070314018012C89
:102E900002D002E00020F6E7083601880122B240A5
:102EA0009143B5400D43058070BD70B504460D4695
:102EB0000A460120002101F0FDFC220101F0FAFC8C
:102EC000784A083A1368526818401140084300D104
:102ED00000BE032C00D1042474496001401800880E
:102EE0000121A940084000D0012070BDFFB5144663
:102EF0000D4606460A4681B00120002101F0DAFCA9
:102F0000320101F0D7FC674B083B1A685B68104040
:102F10001940084300D100BE65A0006800906548D4
:102F2000838920461338FF22013282400B99934354
:102F3000002901D0012700E00027D10701D000219E
:102F400038E0910701D5012134E0510701D5022174
:102F500030E0110701D503212CE0D10601D5042171
:102F600028E0910601D5052124E0510601D506216E
:102F700020E0110601D507211CE0D10501D508216B
:102F800018E0910501D5092114E0510501D50A2168
:102F900010E0110501D50B210CE0D10401D50C2165
:102FA00008E0910401D50D2104E0510401D50E2162
:102FB00000E00F218F403F493B438B818B890B9F62
:102FC0009B099B013B438B810B8A9343D70701D01D
:102FD000002238E0970701D5012234E0570701D5D8
:102FE000022230E0170701D503222CE0D70601D5D5
:102FF000042228E0970601D5052224E0570601D5D2
:10300000062220E0170601D507221CE0D70501D5CE
:10301000082218E0970501D5092214E0570501D5CB
:103020000A2210E0170501D50B220CE0D70401D5C8
:103030000C2208E0970401D50D2204E0520401D5CA
:103040000E2200E00F220A9F97403B430B820B8A1F
:1030500002460127384690408343C20701D0002230
:1030600043E0820701D501223FE0420701D5022259
:103070003BE0020701D5032237E0C20601D5042256
:1030800033E0820601D505222FE0420601D5062253
:103090002BE0020601D5072227E0C2050CD5082245
:1030A00023E0000030900020C831002000300050A4
:1030B00001090F1900140050820501D5092214E0FE
:1030C000420501D50A2210E0020501D50B220CE0D1
:1030D000C20401D50C2208E0820401D50D2204E0CF
:1030E000400401D50E2200E00F22049890400343D3
:1030F0000B82954861000818418B6A468909925DE8
:103100008901521911434183A007C20EFF2191404A
:1031100080209040002C0BDA2207120F083A930807
:103120008A4A9B009B18DA698A430243DA6107E006
:10313000A308874A9B009B181A688A4302431A60B7
:10314000E006C00E87408348076082E67E49403132
:103150000A8A1338012181400A40C80701D00020A3
:1031600038E0880701D5012034E0480701D5022066
:1031700030E0080701D503202CE0C80601D5042063
:1031800028E0880601D5052024E0480601D5062060
:1031900020E0080601D507201CE0C80501D508205D
:1031A00018E0880501D5092014E0480501D50A205A
:1031B00010E0080501D50B200CE0C80401D50C2057
:1031C00008E0880401D50D2004E0480401D50E2054
:1031D00000E00F20C240D0B2704710B55A4C4034C6
:1031E000238A1338012282409343D00701D0002064
:1031F00038E0900701D5012034E0500701D50220C6
:1032000030E0100701D503202CE0D00601D50420C2
:1032100028E0900601D5052024E0500601D50620BF
:1032200020E0100601D507201CE0D00501D50820BC
:1032300018E0900501D5092014E0500501D50A20B9
:1032400010E0100501D50B200CE0D00401D50C20B6
:1032500008E0900401D50D2004E0500401D50E20B3
:1032600000E00F2081400B43238210BD10B5364C87
:103270004034E38901221338114681408B43C8074B
:1032800001D0002038E0880701D5012034E048074C
:1032900001D5022030E0080701D503202CE0C80644
:1032A00001D5042028E0880601D5052024E0480641
:1032B00001D5062020E0080601D507201CE0C8053E
:1032C00001D5082018E0880501D5092014E048053B
:1032D00001D50A2010E0080501D50B200CE0C80438
:1032E00001D50C2008E0880401D50D2004E0480435
:1032F00001D50E2000E00F2082401343E38110BD72
:10330000154A8000801880384163704710B5044624
:10331000FFF7ACFF1049A00040188038406B002830
:1033200001D0804710BDE106C90E012088400B493D
:10333000086010BD1320E9E71420E7E71520E5E752
:103340001620E3E71720E1E7C013005000ED00E08E
:1033500000E400E000E100E0D090002080E200E026
:10336000F8B5944C20888007C00FFBD00F2000F0E8
:10337000E4F880276780904801888904FCD541885B
:10338000C9B20829F8D10126C6808C490A68002AEA
:1033900020D04A68137805882D05FCD44380038922
:1033A0001B07FCD443880B68521C5B1E0B604A60F1
:1033B000002BEED1A78001E04288C68002889204EB
:1033C000D20FF9D1C680002048608A68002A01D057
:1033D0008860904701207A49C003086079490860F5
:1033E000F8BD0520000781880322120291438180E5
:1033F00081880122D202114381806F4801884908E7
:10340000490001800188FF228132914301800188B7
:1034100040221143018001880422914301800188E8
:1034200002229143018001885203114301800189E6
:1034300089088900018101885200114301800188B7
:103440000122114301805D4900200861C860486085
:1034500008605D4801680902090A0160704710B5FB
:10346000544C20888007C00FFBD00F2000F065F877
:1034700080226280504801888904FCD54188C9B205
:103480000829F8D10121C18003881B05DB0FFBD17E
:103490000623438003889B04FCD54388C1800189AF
:1034A0000907C90FFBD1A28001204549C00308606C
:1034B0004449086010BD10B53E4C20888007C00FFD
:1034C0001FD00F2000F039F8802262803A4801882E
:1034D0008904FCD54188C9B20829F8D10121C180ED
:1034E00003881B05DB0FFBD10723438003889B0464
:1034F000FCD54388C18001890907C90FFBD1A2808F
:10350000012010BD2D4B5A61D960186101202D4951
:10351000C0030860704710B5284B9A601960586066
:10352000FFF7C9FF0028FBD0FFF71AFFFFF797FF4F
:1035300010BD10B500F009F810BDC106C90E01207C
:103540008840204980310860704770B501231B4CCA
:10355000194809E04188C38022691170521CE16852
:103560002261491EE16004D001888904C90FF1D1AC
:1035700070BD0F20FFF7E1FF61690029F8D000223C
:1035800012486261807880250A4E01280CD120699A
:103590002038C37F807F1B02082801D9012000E06A
:1035A0000020181800D07580002022618847B5805F
:1035B00070BD000000300050001200502480002038
:1035C00080E200E000E100E00CE400E01C060800FE
:1035D00008480078002802D00020C043704701202E
:1035E0000549400208600020704710B5FFF7D4F984
:1035F00010BD00003C80002080E100E00843012174
:10360000890303460B4343490B80434B184308800F
:10361000092002434A8070473E490A880F239B01D4
:1036200000079A43800D02430A8070473949002001
:103630000880704737483949028802231A430280BC
:10364000491E02D302889207FAD4002101814089E1
:1036500070470AE000BF00BF00BF00BF00BF00BF4F
:1036600000BF00BF00BF00BF00BF401EF2D27047C6
:1036700070B50222510204464E003046FFF7BEFFED
:103680001420FFF7E6FF002C01D0092000E00720FE
:10369000FFF7C2FFFFF7CEFF05460120FFF7D9FF76
:1036A000022200213046FFF7A9FF002C01D009209B
:1036B00000E00720FFF7B0FFFFF7BCFF4019154AF5
:1036C0000021118070BDF0B5124C154820801420E7
:1036D000FFF7BFFF01256D02A580E5802088E90086
:1036E0000843208020888E10B0432080FFF7A2FF7F
:1036F0000746208830432080FFF79CFF0246780071
:1037000071424018281A52005118691AA080E180AD
:10371000F0BD00000015005001400000A08601002F
:103720000148000008B58921052000070181012119
:10373000614A490311800188802211430180018878
:103740008908890001805D48018A022211430182B3
:10375000FFF75AF901F0B4F801F0B8F80020694613
:1037600001E00888401C088008889128F9D308BD2A
:1037700008B55349002008804880534A514BD380F4
:10378000FF23D2331381C880C32151804F4A0821BF
:1037900011806946088003E06A461188491C11803F
:1037A000694609889129F7D36946088003E06A468B
:1037B0001188491C1180694609889129F7D3694607
:1037C00001E00888401C088008889128F9D308BDCA
:1037D0003F4A5080918001201080D088C007FCD1E2
:1037E0007047F1B5FFB0FFB094B011AC334804940A
:1037F000008AA41C1090FFF795FF314801880F91B3
:1038000041880E913049CA880D920A890C92C2886B
:103810000B92408B0A902F48408809904888844634
:10382000FFF7A6FF00252B46FF2111A8FFF7D0FFC9
:1038300000210A460846049E275C365C7E40F60757
:10384000F60F8E401643491CC9B2F2B2082906D1C0
:10385000FFA9C96C4A556D1C0021ADB20A46103053
:10386000FF2680B2B600B042E5D95B1C9BB2022BAA
:10387000DAD31249109808821449002008801048B1
:103880000F9901800E9941800F490D9ACA800C9AB8
:103890000A810B9AC2800A9A42830E4A0998508084
:1038A00060464880052000070188802291430180FE
:1038B0007FB07FB015B0F0BD00020040E030005096
:1038C000002400508080000060280050202000501C
:1038D000003500500026005070B516460C460546CF
:1038E00001280FD106221749174800F0F5FF0028DC
:1038F00008D006221449304600F0A6FF06202070AA
:10390000002070BD32462146284600F0EBFF70BD16
:1039100070B50E480E49C405228880252A432280AE
:103920000C4A53891B0701D4401EFAD20A4A0120CF
:1039300010600622044800F087FF2088A8432080FA
:1039400070BD0000A83C03003D800020A08601005F
:10395000D47F04002000005000800040F8B54E4E97
:103960004E4C70690090002520792F46022800D126
:103970000097FEF723FE00280DD100F0B9FF0028C4
:1039800009D0E0780125002805D005200007808AAD
:10399000C00701D004257DE000F0CCFE002879D1DD
:1039A0002079002801D1306900903D4880690028C5
:1039B00001D070690090A1786846009E00F09EFFDB
:1039C000002867D0A178684600F0C6FE002861D0C4
:1039D00000F09AFF00285DD0FF2100962D310126CE
:1039E000B607306A8842FCD3A178684600F086FFAB
:1039F00000280CD0A178684600F0AEFE002806D062
:103A0000284A832012780099022A03D003E000F0AC
:103A100081FF3FE0B520244A1378012B00D12130EB
:103A20001770F36B0F229B0A9B021343F363F26B35
:103A30001E4B80021A400243F263F06B3722C00231
:103A4000C00A92051043F0630425002901D0091D26
:103A5000009100986421C00200F062FF1449401EEA
:103A600008602179002900D0012100F05FFF114892
:103A7000C06A8047306B0004C00FFBD00E4801685D
:103A8000C905FCD500F058FF0520000701898022F8
:103A9000914301812846F8BDA0020020B20708002A
:103AA00050070800780308004D800020FF03E0FF66
:103AB00044800020080808000002004070B501257D
:103AC000AD07AC6B2046FEF756FD814900F028FF9C
:103AD00027221201511A00D101217E4A5060116043
:103AE000286B08218843084328637B4804607B488F
:103AF0000068002802D0A04200D200BE70BD10B500
:103B0000052000074189890708D041898908890073
:103B1000418173494A88520852004A8001898022B3
:103B200011430181018A042291430182818A89071C
:103B3000FCD500F007FF012080070169490700D587
:103B400000BE01694907FCD510BDF8B5654EF08887
:103B500000282DD10120F080634908200880052726
:103B60003F077889800720D0B88A400701D5FEF743
:103B700026FC5B4D28888021084328805B4CFF2071
:103B8000608004202080FEF7FCFE7D21C900E088D3
:103B9000A288000480188842F9D905202080B088C6
:103BA000788029888020814329805149102008602D
:103BB000F8BD70B5FEF7F0FEFFF7A1FF0026494CF7
:103BC0000520E6800007418A8022914341824648D1
:103BD000018949084900018100F09CFE012080070D
:103BE000816904221143816100F0B2FE4049102036
:103BF00080310125086000F0B1FE00F0B5FE3848C4
:103C000026704089800510D5607800280DD139488C
:103C100065700088C00708D10120FFF729FD8B21BE
:103C20008900884201D90220607070BD10B500F093
:103C3000A1FE00F046F82B490120087010BD10B518
:103C400001208007008A000601D500F03AF810BD77
:103C500010B500F095FE10BD10B501208007008A58
:103C6000000704D500F092FE1E490420087010BD24
:103C700070B52148008885062048AD0E446820486C
:103C8000006B0078002802D1284600F085FE1D4810
:103C90000089144EC00507D520060BD5E00709D0D2
:103CA000284600F07FFE03E0200603D5E00701D0A0
:103CB00003203070200403D5E00501D502203070C8
:103CC00070BD10B507490120887000F071FE10BD6D
:103CD0007102000040000040488000204480002025
:103CE000200000504C80002000330050001600508F
:103CF00000E200E0001500500020005000020040EB
:103D000020020020002C005010B51221244800F0A1
:103D100055FE24491C2000F057FE00211C2000F015
:103D200075FD10BD30B503460120002103241A465D
:103D3000CA40D20704D04D006D1C2246AA40104351
:103D4000491CC9B20929F2D330BD0246002012290C
:103D500001D98D207047062A06D0072A07D0082AE5
:103D6000F8D10729F5D170470829F2D17047062903
:103D7000EFD3704770B50A4C0546218802231C22F8
:103D8000094800F073FD058000F076FDE088002111
:103D900000F020FE01211C2000F038FD70BD000065
:103DA00054800020E432002004700000FEB53B4E39
:103DB0001C2070801D46174634460888FFF7B2FF66
:103DC00002903748334601900833132202A9009726
:103DD000A01D00F005FE040008D1F088002100F0CD
:103DE000F9FD044601211C2000F010FD01231C22D6
:103DF00029462C4800F03AFD047000F03DFD0020FB
:103E0000FEBD70B50C4625490B802078082814D8D3
:103E1000CA880831415C51188DB2822D0BD061786F
:103E2000FFF793FF010009D16D1C6178A8B2A21CB5
:103E300000F0DCFD08E0822100E08121194B1748E9
:103E40005B1CDA1C00F05EF9002070BD70B51D46E9
:103E50000C46088800F0D0FD104AFF28107115802C
:103E600009D0A178D08800F0B5FD02211C2000F017
:103E7000CDFC002070BD0B4B89219B1C9A1C074870
:103E800000F040F9F5E710B5044A180A127990429B
:103E900002D10888FFF76EFF002010BD548000207B
:103EA000D03100200170000010B50C21254800F031
:103EB00085FD2549102000F087FD0021102000F02D
:103EC000A5FC10BD70B506461E480D461446018877
:103ED000042310221D4800F0C9FC04808670C570C0
:103EE00000F0CAFC70BD7CB5164C0646E088002187
:103EF00000F070FD2089002802D0002100F06AFD4A
:103F00006089002802D0002100F064FD0F4821885C
:103F100004231022401E00F0A9FC0546E0886A46F2
:103F2000801C80B201A900F06DFD2E800098007801
:103F3000A870284600F0A0FC0121102000F066FCCB
:103F40007CBD000068800020B833002002400000E3
:103F5000FFB5674C83B010206080664816460F4658
:103F600000230092019003221946A01D00F038FDA5
:103F70000546E088002100F02DFD3878C0071CD0F0
:103F80005D48019000232046032219460096083020
:103F900000F026FD2089002100F01CFD574801900B
:103FA000002320460322194600960A3000F018FD2F
:103FB00005466089002100F00DFD002D03D101218F
:103FC000102000F023FC012310224D48069900F038
:103FD0004DFC057000F050FC002007B0F0BD70B53E
:103FE000434C0D462380088800F006FD2071FF2811
:103FF00023D0A978E08800F0EDFCE088EA1C801C62
:1040000080B2012100F0F2FC2089002802D0A978BA
:1040100000F0E0FC6089002809D0801C80B22A1DD5
:10402000012100F0E3FCA978608900F0D3FC0221B3
:10403000102000F0EBFB002070BD01239B035A1DF4
:1040400089212B4800F05EF8F5E770B5284D0C4645
:1040500029798022180A88422AD1E9882088891C77
:10406000884201D1012604E02989891C88421FD198
:104070000226217A02290AD822460832012100F0BC
:10408000B5FCE079002801D0022E03D00022012ED9
:104090000AD00DE0287900F0BBFC237A02463146B5
:1040A0001846FFF70FFF03E02188287900F0B6FCDF
:1040B000002070BD1CB50E480C460279190A9142C9
:1040C00014D1A17813290ED016290CD0C0886A46C5
:1040D000801C80B201A900F095FC0098228800782D
:1040E0000121FFF7EFFE2088FFF7FDFE00201CBD39
:1040F0006880002034330020583300207C330020B7
:1041000004400000F8B514460F461E460546428896
:1041100001880623204600F0A9FB0446287900F018
:1041200077FC208027716680204600F0A5FBF8BD53
:1041300070B51446428800790D4601020C31042303
:104140002D4800F093FB002D01D0132100E0122137
:104150000170448000F090FB70BD0A880270120A62
:1041600042708A788270CA78C2700A7902714A797C
:104170004271897981710720704742780378120271
:104180001A430A8082788A70C278CA7002790A71EA
:1041900042794A71807988710720704710B5FFF71E
:1041A000B3FDFFF781FE00F029F810BD70B506469B
:1041B00015460C46102000F017FB022805D1E2B28C
:1041C00010232946304600F02FFC362000F00CFB6F
:1041D000022805D1E2B236232946304600F024FCFD
:1041E0001C2000F001FB022805D1E2B21C23294665
:1041F000304600F019FC70BD0D30000010B50821EC
:104200001A4800F0DBFB1A49362000F0DDFB0021E4
:10421000362000F0FBFA10BD70B5144D0646298813
:1042200018233622134800F021FB0446287900F0B9
:10423000EFFB2080A670204600F01EFB70BD70B51D
:104240000A4D0446E888002100F0C4FB094829888B
:1042500004233622001F00F009FB048000F00CFB51
:104260000121362000F0D2FA70BD000076800020D7
:104270006C34002005D80000FFB58BB00521C902C1
:1042800068468182C91C0182FA490183FA4C3621B1
:10429000618006219925009108220023019536218D
:1042A000A01D00F0C7FB05007ED1A01D01250095D3
:1042B00001900222E08805AB114600F0C1FBE088C6
:1042C000EE4A022100F092FB03AE01960095E088D1
:1042D00004AB0222132100F0B3FB02AF09200197C7
:1042E0000090E088E64B1022042100F0A9FBE5498C
:1042F0006846007A48706846407A88700A46684680
:104300001321808900F072FB01960095E08804ABD0
:104310000222132100F094FB092001970090E0880D
:10432000D94B1022042100F08BFBD8496846007A53
:1043300048706846407A88700A466846132180892A
:1043400000F054FB01960095E08804AB0222132193
:1043500000F076FB01970095E088CD4B10220421F8
:1043600000F06EFBCB496846007A48706846407A98
:1043700088700A4668461321808900F037FB019651
:104380000095E08804AB0222132100F059FB0920BC
:1043900001970090E088C04B1022022100F050FBF2
:1043A0006846BE49007A00E058E048706846407AA6
:1043B00088700A4668461321808900F017FB019631
:1043C0000095E08804AB0222132100F039FB09209C
:1043D00001970090E088B24B1022142100F030FBCE
:1043E000B0496846007A48706846407A88700A4644
:1043F00068461321808900F0F9FAAB4D01960095CB
:10440000E08804AB0222132100F01AFB019700950B
:10441000E088A64B1022012100F012FBA449684657
:10442000007A48706846407A88700A4668461321C8
:10443000808900F0DBFA09A909200191009002228D
:10444000E08806AB114600F0FBFA0546E088002143
:1044500000F0C0FA0121362000F0D8F901233622FD
:1044600094480E9900F002FA057000F005FA002059
:104470000FB0F0BD3EB5804C0D46E08802AA0C306E
:1044800080B2694600F0BEFAE08801AA0D3080B221
:10449000694600F0B7FAE088AA1C0C3080B201210E
:1044A00000F0A4FA01980088002806D0E0880021D6
:1044B0000C3082B22046FFF73BFE00203EBD10B517
:1044C0006D480A46C0880421801D80B200F08EFA33
:1044D000002010BD38B50D4600206946664C0880A6
:1044E0002380288800F088FA2071FF2817D0E08800
:1044F0006A460D3080B2022100F078FAE0886A4600
:104500000C3080B2012100F071FAA978E08800F047
:1045100061FA0221362000F079F9002038BD654AA1
:104520001B23DB02521C89215348FFF7EBFDF4E704
:10453000F8B5514D0C4629798022180A88427DD160
:10454000E988208826468B1C0027083698420ED121
:10455000012100916188324600F048FAE079002894
:1045600075D05448082336222988C01F10E00B1D3F
:10457000984229D1022100916188324600F036FA32
:10458000E079002863D04B48298808233622801F11
:1045900000F06CF90646287900F03AFA308077602E
:1045A000E07A01067160A07A000401437160607ACC
:1045B000000201437160207A014371600098B0707D
:1045C000304600F059F942E00B460A3398421BD1BD
:1045D00004200090E079002839D036482988182333
:1045E0003622001F00F042F90746287900F010FA41
:1045F000388062883146381D00F026F9A078F870BE
:104600000098B8703846DCE70B460833984220D152
:10461000032100916188324600F0E8F9E079002832
:1046200015D02448298806233622401F00F01EF9A1
:104630000646287900F0ECF9308000E018E0B780F9
:10464000607A0102B180207A0143B180B6E700228E
:1046500007E00D31884204D16188324600F0C6F986
:10466000F5E7A079012803D12188287900F0D6F94F
:104670000020F8BD022900007680002008340020C8
:104680000A340020003500201A34002013350020A1
:104690002A340020263500203A3400203935002005
:1046A0004A3400204C350020010200005A3400201A
:1046B0005F35002009D8000010B5054A180A1279A4
:1046C000904202D10888FFF7BAFD002010BD00001B
:1046D00076800020064C0125064E05E02046E36862
:1046E00007C82B4398471034B442F7D3FDF734FB87
:1046F000CC340020FC34002003B40148019001BDFB
:104700009D1B020003B40148019001BD6F390300F5
:1047100003B40148019001BDDF29030003B401483F
:10472000019001BD032B030003B40148019001BDBA
:10473000218D020003B40148019001BDF92B030053
:1047400003B40148019001BDBD1E030003B401483C
:10475000019001BD012C030003B40148019001BD8B
:104760007F65020003B40148019001BD1B300300C6
:1047700003B40148019001BD6B30030003B401484C
:10478000019001BD8F1F030003B40148019001BDDA
:104790007B1B020003B40148019001BD672D03009B
:1047A00003B40148019001BDB18C020003B401487B
:1047B000019001BDAB8C020003B40148019001BD22
:1047C000DF89020003B40148019001BD598C020049
:1047D00003B40148019001BD7B64020003B40148A9
:1047E000019001BD8D64020003B40148019001BD38
:1047F000AD24030003B40148019001BD431D020034
:1048000003B40148019001BD238E020003B40148A6
:10481000019001BD2924030003B40148019001BDAA
:104820003DA4020003B40148019001BD0FB0020095
:1048300003B40148019001BDA3A2020003B40148E2
:10484000019001BDFBA2020003B40148019001BD2B
:104850008139030003B40148019001BD99A202000F
:1048600003B40148019001BD6B96020003B40148F6
:10487000019001BD7D21030003B40148019001BDF9
:10488000AD21030003B40148019001BDEF610200B6
:1048900003B40148019001BD5350020003B4014824
:1048A000019001BD2D50020003B40148019001BDEB
:1048B00031D2020003B40148019001BDF13B030075
:1048C00003B40148019001BD0B8C020003B4014800
:1048D000019001BD398B020003B40148019001BD74
:1048E000D939030003B40148019001BDE727030053
:1048F00003B40148019001BD2D1E030003B401481B
:10490000019001BD2D27030003B40148019001BDB2
:10491000F18D020003B40148019001BD0B9102002A
:1049200003B40148019001BD0739030003B40148F5
:10493000019001BD1B65020003B40148019001BD57
:10494000452A030003B40148019001BD9D2A0300DC
:1049500003B40148019001BD132D030003B40148C5
:10496000019001BDED1B020003B40148019001BD9F
:10497000FB2A030003B40148019001BD452F030049
:1049800003B40148019001BD6F62020003B4014805
:10499000019001BD5F62020003B40148019001BDB6
:1049A000198A020003B40148019001BDE78C02009E
:1049B00003B40148019001BD4F62020003B40148F5
:1049C000019001BDB339030003B40148019001BD5A
:1049D0006B23030003B40148019001BD9D990200BF
:1049E00003B40148019001BD619C020003B4014879
:1049F000019001BD8B98020003B40148019001BDF4
:104A00005FE1020003B40148019001BDC3980200B8
:104A100003B40148019001BD8BE1020003B40148D9
:104A2000019001BD23AD020003B40148019001BD16
:104A30003DE1020003B40148019001BDA9950200C7
:104A400003B40148019001BDA996020002E008C824
:104A5000121F08C1002AFAD170477047002001E0F8
:104A600001C1121F002AFBD170470101000A04286E
:104A70000A040203AA0055032A00A001FFFF2C012B
:104A8000FFFF0000A10D002002FC0000958F020036
:104A900003FC0000A18F0200803100200300000011
:104AA000810E00200D0F0020000000009831002032
:104AB0002006080002000100051C0020171C002031
:104AC0005F1B0020B71B0020FF003F00FF03FF011A
:104AD0000028010002000200B43200200328010077
:104AE00005000500B6320020292A0100120000004E
:104AF000000000000328010005000500BB32002073
:104B0000242A010012000000000000000328010018
:104B100005000500C0320020252A01001200000017
:104B2000000000000328010005000500C532002038
:104B3000272A0100120000000000000003280100E5
:104B400005000500CA320020262A010012000000DC
:104B5000000000000328010005000500CF320020FE
:104B6000282A0100120000000000000003280100B4
:104B700005000500D4320020232A010008000000AF
:104B8000000000000328010005000500D9320020C4
:104B90002A2A010012000000000000000328010082
:104BA00005000500DE320020502A01000700000049
:104BB000000000000A18020000292A020100242A2D
:104BC000020200252A020300272A020400262A02E4
:104BD0000500282A020600232A0207002A2A0208C2
:104BE00000502A00143300202C330020668000205F
:104BF0000300010000700000AD24002002700000DE
:104C000003250020037000004D250020033800001C
:104C100087250020F432002001000000FC32002033
:104C20000200000000000000000000000C33002023
:104C3000010000000028010002000200A033002053
:104C40000328010005000500A2330020062A090000
:104C50000100000000000000002801000200020026
:104C6000A83300200328010005000500AA33002016
:104C7000062A0800010000000000000000280100D2
:104C800002000200B03300200328010005000500E7
:104C9000B2330020072A01000100000000000000DC
:104CA00003180A0000062A000218040000062A0061
:104CB0000418020000072A00E83300200034002016
:104CC00074800020030001000340000051260020F2
:104CD00000400000DF2600200E3000004B2700209F
:104CE00003380000B5270020C83300200100000071
:104CF000D033002001000000D83300200100000064
:104D0000E033002001000000F5FE34CC54B9F95620
:104D1000C6912140A641A8CA82805186F05A3442E9
:104D200004885F4BC35EF0494272D44F33FB927CE0
:104D300022A0FE45A14725DB536C31DA3F675B8536
:104D40008391D8490C00A3B9849DB29C7BB1D05704
:104D50001691A14C16D5E8717845885C066AEBB3CC
:104D60000A99F5468C7994DF785F0000AC34002016
:104D7000C43400207E8000200300010008D8000019
:104D80007929002000D80000D52B00200E3000002B
:104D9000312C002006D80000BF2B002007D80000CF
:104DA000752B002003380000B92D00207C34002032
:104DB0000100000084340020010000008C34002039
:104DC00003000000A434002001000000743500201E
:104DD00000800020800000005C310020743500203D
:104DE00020900020C40000005C3100200809080069
:104DF000D0280800300700005C310020800C000043
:104E00000A000034CC54B9F956C6912140A641A8F5
:104E1000CA82800A00005186F05A344204885F4BEF
:104E2000C35EF0494272020000D44F33FB927C22F1
:104E3000A0FE45A14725DB536C0A000031DA3F672D
:104E40005B858391D8490C00A3B9849D0E0000B204
:104E50009C7BB1D0571691A14C16D5E871784512BC
:104E60000000885C066AEBB30A99F5468C7994DFFA
:104E7000785F0000944E0020008000201C0000009D
:104E8000E4000020B04E00201C80002084070000B9
:104E90000001002000E1F505000000000000000016
:104EA0000000000000000000000000000000000002
:04000005200000A136
:00000001FF
