:020000042000DA
:1000000000980020A5040020AD040020C5040020B5
:1000100000000000000000000000000000000000E0
:10002000000000000000000000000000DD040020CF
:100030000000000000000000F504002065250020FD
:10004000F12A0020CF2B00200D310300BD2B002012
:10005000532B00208D310300E12B0020EF2B0020DB
:1000600055250020F92100202F2C0020AD31030060
:1000700057810200BB250020F9040020F90400206C
:10008000F9040020F9040020F90400209D2100203B
:10009000A1210020A5210020A9210020AD210020C0
:020000042000DA
:1001600032000000CD0600208B27002087310020C0
:10017000000000000000000063800200BD8002005B
:10018000C10A0020FB8002001981020035810200B3
:100190005D810200352900203D0B0020AD0A0020C2
:1001A000B70A002000000000000000003F0000002F
:1001B000F48B002000040000740B080048010000CC
:1001C0006807080000040000C80C080020050000B3
:1001D000000000002000000048000000580000005F
:1001E0006800000004010000160100002801000062
:1001F0002E010000202A00008E2E000001000000C9
:100200008813000015280020E9600200FD93020019
:100210006113002019280300A574020015060020B0
:1002200003000000D5200200E1310020040000009E
:10023000D74902000F4902001D0C00206391020003
:10024000B7910200BF910200078202007182020092
:10025000B0680020AD830200938402004185020053
:1002600015860200378602005F860200758602004E
:10027000F9870200258902005D8A0200D38C020002
:10028000098D02000F900200438D0200278E0200AC
:10029000F98E0200478F0200230A0020D58F02004A
:1002A00049510200775102002F5202001000000055
:1002B00020030000803E000000000000000000005D
:020000042000DA
:1002C000504600030003983A6400F401B80B000C98
:1002D000B80B120030003000CD009A01120024004B
:1002E00030006400B0001800280012001200D0078F
:1002F0000000FFFF00000000000000000000000000
:100300001F00000244413134353833000000000042
:1003100000000000000000000000000000000000DD
:0403200000000000D9
:020000042000DA
:10034000FFFF010000C201000000000000000000EB
:100350000000F4010100010000090000000000009D
:10036000000000000000000000000000000000008D
:10037000000000000000000000000000000000007D
:10038000000000000000000000000000000000006D
:1003900000000000000000000000424250472042E0
:1003A000616E64000000000000000000000000001A
:1003B000000000000000000000000000000000003D
:1003C000000000000000000000000000000000002D
:1003D0000000000000000000424250473031D007CA
:0403E000064064323D
:020000042000DA
:100440000348854605F070FD00480047C7200200BC
:10045000009800200F4906200880FF200E49013037
:1004600008600E4988683E2290432E308860002242
:10047000052000070280018A0F231B021943018215
:1004800001210748C90404C1401E0028FBDA62B6F6
:10049000704700000034005080E100E0003300505D
:1004A000FF0B00001548804715480047042071469F
:1004B000084203D0EFF3098012490847EFF30880A0
:1004C0001049084704207146084203D0EFF3098021
:1004D0000D490847EFF308800B490847042071468F
:1004E000084203D0EFF3098008490847EFF308807A
:1004F00006490847FEE7FEE7FEE700005504002036
:10050000410400207905002011050020210E002063
:1005100005221207518A8023194351821349036827
:100520000B6043684B6083688B60C368CB60036972
:100530000B6143694B6183698B61C369CB6108625D
:100540000B48836A4B62C36A8B62036BCB62C36BDB
:100550000B63436B4B63806B8863064908200880FC
:10056000908A800601D500BE7047FEE7001808009B
:1005700000ED00E000330050052109070A8A04233A
:100580001A430A820A8A02231A430A820A894023EA
:100590001A430A811B4B01221A601B4B08221A8046
:1005A0004A8A80231A434A82184A036813614368BF
:1005B000536183689361C368D361036913624369BC
:1005C000536283699362C369D36210631048836A7C
:1005D0005363C36A9363036BD363C36B0B4A4032A9
:1005E0001360436B5360806B9060888A800608D5E7
:1005F00000BE488A012280088000D203104348824E
:100600007047FEE780E200E0003300504018080029
:1006100000ED00E070B516460C460546012802D0F4
:100620000C2D26D10DE006222149224805F08EFC32
:1006300000281ED006221F49304605F08DFC0620FA
:1006400012E01D4D29680878C00610D520782028B2
:1006500003D200202070042070BD0A7E30463A315B
:1006600005F07AFC2868007E2070002070BD012013
:1006700070BD32462146284605F074FC70BD70B549
:100680000E480F49C405228880252A4322800D4A3E
:1006900053891B0701D4401EFAD20B4A0120106077
:1006A0000622044805F058FC2088A843208070BD2D
:1006B000383E030078810020C0060800A0860100B3
:1006C000D47F0400200000500080004008B500F0F6
:1006D00042FA052400252407C826684F09E00421B2
:1006E0006846009505F044FC002817D000F0A7F9F3
:1006F00014E02089000611D501208007006B00045A
:100700000CD405F03BFCC00708D1042005F03CFCEC
:10071000009005F03FFC00980028E0D172B602F08E
:10072000D9FA042806D002280BD0032809D00128C2
:1007300016D016E052480078012801D0032000E0CE
:10074000022000F011F8A08A800602D54D49082049
:10075000088030BF4C48016904229143016100E0E8
:1007600030BF62B63E80C4E7F8B50446684605254A
:1007700004702D07288A0421084328824348444FE7
:10078000C0690126012811D9032C18D105F008FCF5
:10079000002814D005F00AFC002810D0032005F032
:1007A0000BFC00280BD00220387009E0032C06D186
:1007B000032005F001FC002801D03E7000E0022477
:1007C00068460470204600F023F800203149022CCE
:1007D000087001D0032C1AD12F494A88FF23013316
:1007E0009A434A806A882D4B1A804A8832434A804D
:1007F00000900099491C00911429FADB6989890845
:100800008900491C698169894906FCD56880F8BD61
:1008100010B5022801D0032828D11B490B690422F6
:1008200013430B61052109074B8A2024A3434B8204
:100830000B8A022423430B8210230228488A16D0F5
:10084000104348827F220888920180242043088038
:100850000020401CC0B20A28FBD3488A18434882B3
:100860000F48521E42610888A043088010BD104303
:100870004882488A9843488210BD000000310050E9
:10088000540208000033005000ED00E0E0010020B9
:10089000C4060800ED81002020000050EE810020F9
:1008A000008000407047000026480178002902D0EF
:1008B0008021417070472449002008702349C87086
:1008C000704720480178002902D08121417070478B
:1008D0001D49012008701D49C870704719480178EA
:1008E000002902D082214170704700BE16490220C3
:1008F000087016490120C8707047002804D00128EC
:1009000003D0022802D1E9E7CEE7DAE770470D48C5
:10091000C07870470020EFF31081012282F3108825
:10092000052212071289120605D4094802890123FB
:100930001A4302811846002900D0012181F3108852
:10094000704700007F81002054020800C60608009E
:100950000033005070B50520000701893022914313
:10096000018101898022114301810189890889005F
:10097000491C01810189082319430181AF490C8871
:1009800014430C80448A9C434482058940242543B7
:100990000581058A0426B5430582858AAD07FCD505
:1009A000A74E002575600E8801252E430E804D89C7
:1009B000AE05A44D0E8801D52E4300E0AE430E8057
:1009C0000D887826B54328350D800D8806263543D9
:1009D0000D80458A1D4345820B8893430B80028915
:1009E000A24302814889800503D5944905206031DE
:1009F0008880012080070168821591430160924838
:100A000001683F2252029143421489180160016833
:100A100002031143016070BD10B58C4805F0D2FA95
:100A200010BD70B5854C6088C006050F05F0D0FA82
:100A300061881E2291436A001143618070BD70B5C8
:100A400083490120C863C86B0028FCD101208007BE
:100A5000C169804800220368994200D20260784C44
:100A6000012663787C4D002B04D06270016005F094
:100A7000B5FA11E0026819238A1ADB019A4214D3ED
:100A8000016005F0ABFA2988884201D9411A00E0DB
:100A9000091A89B2182908D32880012005F0A4FA80
:100AA00005F0A8FA002800D1667070BD08B505F001
:100AB000A7FA009008BD08B505F0A8FA009008BD97
:100AC00008B5664901204A695206D20F13D04A6917
:100AD0009206D20F0FD000220A610092FF225F32ED
:100AE000009B5B1C00939342FAD34969C907C90F65
:100AF00002D005F091FA002008BD1FB5684601F04C
:100B0000AAFC009805F08EFA1FBD554B00201978FD
:100B100000290DD04E490122CA63CA6B002AFCD1BC
:100B200001218907C9694F4A1268914201D2012007
:100B300070470021197070470020704710B54A496E
:100B400000200860FFF768FF01208007016B490063
:100B50004908016310BDF8B501204149434C0870B4
:100B6000C82525800026668041480827478005F073
:100B70005FFA01F06FF90D207901800105F05EFA4E
:100B8000FFF77DFD03F0F7FA012005F04BFA01F0C5
:100B90005FFDFFF7DFFE042000F048F8072000F0BB
:100BA00045F80A2000F042F8062000F03FF80B203C
:100BB00000F03CF8012000F039F8022000F036F88F
:100BC000002000F033F82B48006805F03DFA00F0F3
:100BD000A8F800F0E1FF00F0D0F901F086F8A005D8
:100BE0000168821511430160FFF787FFFFF75CFE84
:100BF00002F0EAFE02F05CFDFFF7A0FF052000070F
:100C0000C6820E494888E0229043A03048800120E7
:100C100005F020FA258016484780F8BD164910B522
:100C2000884200D000BE05F01BFA10BDC106C90EF7
:100C300001208840114908607047000020000050E2
:100C4000848100200010000000020040E204000047
:100C5000C00000407C040800780408000010005028
:100C60007E810020886E00208C0308000031005037
:100C700000330050049000201111111180E200E0B7
:100C8000FEB5784D019117461E4600240090294676
:100C900005F0ECF9050005D033463A460199009875
:100CA000A84704462046FEBDFFB581B01F460E464C
:100CB0004D780C78002005F0DFF9042824D00028B6
:100CC0001DD121E06848816E2E2060430918888874
:100CD0000207120F130005F0D5F9070505050F05EA
:100CE0000F050F008204920E062A05D27278012A9F
:100CF00012D0072210438880641C6407640F2846C2
:100D00006D1EEDB20028DDD13B463146039A0198B5
:100D100005F0BEF905B0F0BD204605F0BFF9002092
:100D2000F8E770B551480378021D0021504D07E0E7
:100D3000CC00165D002E01D12418A560491CC9B253
:100D40009942F5D370BD028908894A49101A80B2C8
:100D5000884201D90120704700207047FFB586788E
:100D60000446300281B00E30009005F085F900286D
:100D700001D0FF2652E00021442005F095F93E4FB6
:100D8000B5007851442105F095F90121009805F04E
:100D900097F979590298888079596088C88078597C
:100DA00022792030417CD20749084900D20F1143F3
:100DB000417478590622A11D3B3005F0CDF87859D1
:100DC000617940304170785906223430039905F03A
:100DD000C3F8795904982031887602980D281DD0DF
:100DE000264810230088009A81B2254805F06EF944
:100DF0000546608828806079687228460622A11D11
:100E00000A3005F0A9F8A0896880E089A880208AC6
:100E1000E880A07C2872284605F05EF9304679E724
:100E200081692039897F082905D2114A8900103249
:100E3000515881617047FEE70D4A12493032002057
:100E400008CA401C08C11028FADB01200E49C00660
:100E500008600E49CA691202120ACA610A49803939
:100E60000860704784430300D802080004060800A5
:100E7000E46800203075000054050800600100207F
:100E8000013800001084004080E100E000ED00E047
:100E900070B516460D46104605F0EEF800286AD0EB
:100EA000340A304605F0E8F8012812D0A87A1E2846
:100EB00011D029460A310E2846D019DC801E0300C5
:100EC00005F0E0F80B255929592D59315939593E6A
:100ED0005900022070BD3146314805F003F9002168
:100EE000204605F005F90221304605F0E9F842E018
:100EF00018283DD006DC102819D012282CD016282E
:100F000039D131E0522823D0D22834D128E02046EC
:100F100005F0F4F82FE0204605F0F6F82BE0204627
:100F200005F0F8F827E0204605F0FAF823E020461F
:100F300005F0FCF81FE01B4A2046126890471AE0B3
:100F4000204605F0F9F816E0204605F0FBF812E01F
:100F5000204605F0FDF80EE0204605F0FFF80AE017
:100F6000204605F001F906E0204605F003F902E00D
:100F7000204605F005F9002070BD70B50A480378D9
:100F8000021D0021094D07E0CC00165D0A2E01D19B
:100F90002418A560491CC9B29942F5D370BD000060
:100FA00001280000C868002004060800B469002079
:100FB000F7B507461646019805F0E8F80546C488D7
:100FC000384605F0E9F8401E844200D2204684B23B
:100FD00022460B21384605F0E5F80746002E05D0DD
:100FE00033460A21019A05F0E3F8FEBD29467C80CC
:100FF00022460831381D04F0AFFF384605F0DEF810
:10100000FEBDF8B50646002000900C464A88014611
:101010006B46304605F0D8F8020001D061881EE02A
:10102000608805F0D7F8002817D005890120EAB2BA
:10103000002105F0D5F80C4B0CCB104019400843AB
:101040000BD032020223294608480A3205F03EF846
:101050006188018005F040F804E061880022304694
:10106000FFF7A6FF0020F8BDA081002002280000A5
:10107000F8B50D46064681002B48EA884458521CB4
:1010800020686B89018F294F5143009101464031FF
:101090004A89C989511A8AB2991A89B2B94214D2B5
:1010A0009A4212D0294605F0A1F82D8920490098CE
:1010B00005F0A2F82818801C4034E0823002401C61
:1010C00080B2042104F0FCFFF8BD2821304605F071
:1010D00099F8F8BDF8B50546870013480C46C05985
:1010E000C9880068114E024640325389D2899A1A43
:1010F00092B28B1A9BB2B34211D20B4E8A420ED0DF
:1011000005F086F8F05905225F30611C04F024FFD9
:101110002802401C80B2052104F0D2FFF8BD28212E
:10112000284605F06FF8F8BD4C030800FF7F00006B
:101130001027000070B50446007800250D2801D066
:101140000A2200E002225A494B7A002B06D00D28D1
:1011500004D0637C032B01D0432551E0097A8A43F4
:1011600039D10D2809D00E2802D00F2803D134E040
:10117000607C032804D3402542E0607C0328FAD831
:10118000A07C0428F7D20A2908D0607C012822D04C
:10119000022820D06078032809D811E005F03EF835
:1011A000012806D16078032803D0002801D0492502
:1011B00026E005F033F8002802D160780228F6D83E
:1011C0003020035D22462046E17C3132143000F0AD
:1011D00019F8054614E0422512E005F01FF8012831
:1011E00007D16078052804D1A01D05F01DF800285E
:1011F000DDD005F013F8002802D160780228D6D897
:10120000284670BDFFB5002086B001216A461170E6
:10121000044605910021002C06D0089D099A1F2341
:101220009A4234D9402032E01C23069D079AF7E702
:101230006B185E78330004F025FF1D261010101087
:1012400010101010102626262626262626262626AC
:1012500026261010101010102600059B03E06F4684
:10126000FF5CB74204D05B1E5BB2002BF7DA03E0F1
:10127000002B01DB4A2006E0059B6F46FE54059BD0
:101280005B1CDBB205936B5C491C5918C9B29142D7
:1012900001D20028CCD0914202D04A200AB0F0BD41
:1012A000641CE4B2022CF9D20028B3D0F6E70000A7
:1012B0009805080070B5EFF31085012080F31088C1
:1012C0002C4804F0B7FF0446002D1DD0012080F308
:1012D0001088002C2DD020464038C08F26498842E7
:1012E00027D16189208904F0ABFF05000ED021468B
:1012F0001031A38962892089A847002806D00128D7
:1013000017D0022815D105E00020E0E7204604F0C0
:101310009DFF0EE0EFF31085012080F31088154843
:1013200021460C3004F098FF002D0CD0012080F3F2
:101330001088EFF31084012080F310880D480068B6
:10134000002802D004E00020F1E7012004F08AFF29
:10135000002C03D0012080F3108870BD0020FAE734
:1013600010B5BC21054804F0A5FE0549012004F094
:101370007FFF10BDA80508003883000004060800A0
:10138000B512002000B502790021130004F07AFEA6
:101390000C34070735352035353535352734427956
:1013A000042A27D8C279530707D05207520F012ABF
:1013B00003D0042A01D0052A1CD18279002A01D049
:1013C000012A17D1007AC01F0A2816D3062114E07B
:1013D0004279521E0A2A10D3082242710DE0407948
:1013E00042070AD04007400F012806D0042804D045
:1013F000052802D00A2100E00721084600BDF3B508
:1014000081B001980C460102CA1D022332480E31F8
:1014100004F05CFE04700199054602272F488E00F7
:10142000002C06D0042C16D0062C10D0072C3FD14F
:1014300008E0815905224968897C1140697080590A
:10144000C77335E0084604F019FF687030E0805932
:101450000F21C1732CE0044680594068417C01296A
:1014600002D1007E01280FD0019804F00DFF012168
:101470000028A0590BD04268D07D00281CD001283C
:101480001AD004280DD00FE0002068700DE04068ED
:10149000C27D022A01D0042A06D1007C02280BD189
:1014A00002E0107C022807D06F70A1590320C87396
:1014B000284604F011FEFEBD6970F6E701460A7881
:1014C0000120042A01D90020704749780029FBD067
:1014D0000129F8D170470000021C0000280508000F
:1014E000FFB589B00D4600206946059008720B983B
:1014F000000A009004F0C8FE07460B9804F0BCFDFB
:1015000000287DD00B982978000A8400784E0129A4
:1015100063D0042904D0062948D0072968D125E0E2
:101520003059C17B032901D0042961D16978002990
:101530001AD040681022A91C04F00EFD002F06D01E
:101540003159C87B032807D0042808D050E030590F
:10155000C07B032803D04BE00B20C87348E0052173
:10156000009804F097FE43E00120B6E03059C07BBC
:101570000E283DD1009804F081FE002103E02A18D6
:10158000401C9170C0B21028F9D3688A694608835C
:10159000294606A808221431023004F0DDFC06AB0F
:1015A000AA1C3946009804F07BFE21E03059C07B2C
:1015B0000F281DD1AA1C0A21009804F077FE002FE5
:1015C00004D03946009804F077FE11E000231A4653
:1015D0003946009804F076FE0AE0012F08D10B98F6
:1015E00004F04AFD01281CD0002801D002200590FB
:1015F0006846007A002811D002AA0521009800E070
:101600000CE004F053FE6846027A6020024368460C
:10161000027201233946009804F054FE05980DB07B
:10162000F0BD3059C07B0228E2D16878002851D043
:1016300002210B9804F044FD305907224068A91C90
:10164000173004F089FCE878002804D1305940684C
:10165000407C01283AD0009804F03AFE002837D0A8
:10166000297A009804F03AFE002833D0009804F05C
:101670003BFE0121009804F03DFE00282CD030599B
:101680004068417E00292BD0042929D0C17E027DEB
:101690001140C17630594068017F427D1140017789
:1016A0006846007A0028A7D1305902214268009884
:1016B000173204F0FBFD305941684031897B002925
:1016C00013D004210098FFF79AFE91E7022004E06E
:1016D000062002E0082000E00320694608728BE73C
:1016E0000021C17630594068D9E70B21C1737FE7EB
:1016F00028050800F8B50546FD49123080B2496E4C
:101700002A2250430C1804202071241D04F0F8FDF7
:1017100000902046093004226946064604F01CFC6D
:1017200004F0EEFD009004226946601C04F014FCF5
:1017300004F0E6FD009004226946601D04F00CFCF4
:10174000EC4A2946964600204E22EB4BB4465143C4
:10175000420066469619727836781202324376460F
:101760003668871C76187F00FF18F253401C022849
:10177000EEDBE249A80008580822611C783004F02A
:10178000EBFB2802401C80B20D2104F099FC0D21D6
:10179000284604F0BBFDF8BDF3B5044681B0042033
:1017A00004F0BAFD0246D549A0000858002A25D009
:1017B0000299082270300B3104F0CEFB02992046CA
:1017C00013318C460022CB4B4E21CB4E4843550063
:1017D00061466F1879783F78090239431F683F18CE
:1017E000AD197953521C022AF1DB20460299FFF70A
:1017F00081FF2046029904F095FDFEBD6030C17B5B
:10180000490704D50621204604F092FDFEBD2102C1
:10181000491C807B8DB2002807D07D2252012946C9
:10182000B74804F08BFD032100E00121284604F0B5
:1018300047FC0621204604F087FDFEBDFFB581B0C0
:101840000398070A04F018FC0646102836D004DC7A
:10185000002E37D0082E04D130E0142E32D0152EB1
:101860000BD0A64CBD0060596030C07BC00607D5C8
:101870003D21384604F0C6FC24E0022005B0F0BD4E
:1018800004F068FD01281DD1032E07D19C4803995F
:1018900004F028FC605901216030817360591822DE
:1018A0006030C17B1143C17360598030007C0028D7
:1018B00004D00721039804F003FCDEE738460299C0
:1018C000FFF76AFF0020D9E710B50C4604F048FD89
:1018D00021888A00894989580968002902D0894BE2
:1018E000C968995010BDF8B50E461046150A04F0A7
:1018F000C3FBAC00814F002817D0142815D0152841
:1019000009D038596030C07BC00606D53D21284635
:1019100004F078FC09E0022008E004F01BFD012837
:1019200003D131462846FFF7A3FB00203959096847
:10193000002902D0734AC9681151F8BDFFB50F469E
:101940001546110A6D4A8800125881B012681E4669
:10195000002A01D0D46803E06A4A002314581350C7
:10196000002C18D0201F4288674B9A4213D1008860
:10197000602810D12046403002898A420BD18088ED
:10198000002808D0A068002802D0204604F0EEFC11
:10199000204604F0F1FC33462A463946019804F00B
:1019A000F1FC6BE7F8B5160A544CB50060591746C0
:1019B00000281CD04030017E104604F081FB3846E0
:1019C00004F05AFB012802D006280FD108E0615923
:1019D0006031C87B020709D5F7221040C87305E0C3
:1019E00060598030417C304604F00CFC0020F8BD8A
:1019F000F0B50646050285B0681C009080B201462D
:101A000002903F4804F06EFB0121029804F058FB5D
:101A100004F0A0FC394CB7000128E05903D0603035
:101A2000C17BE72214E06030807B002809D07D2252
:101A300052013348029904F081FC0321029804F01A
:101A40003FFB304604F0A4FCE0596030C17BEF223C
:101A50001140C173E0596030C17B4A0711D5FB22A8
:101A60001140C1730098ED1D82B225480024A9B22F
:101A700004230D3804F02AFB4680047004F02CFB8C
:101A8000FCE600220121304604F088FCF6E610B5A1
:101A90001046140A04F0F0FA0B280CD01749A000E5
:101AA00008586030C07BC00603D53D21204604F0B5
:101AB000A9FB002010BD2046FFF79AFFF9E770B59B
:101AC00010460D46140A04F0D7FA002828D014282E
:101AD00026D015281AD00949A00008586030C07BCC
:101AE000C00615D53D21204604F08CFB18E000000F
:101AF000D8020800E0010020300008004C03080074
:101B000024040000A881002038830000022070BD5A
:101B100004F020FC012803D129462046FFF7DAFA19
:101B2000002070BDF8B507461D460E461446104607
:101B300004F0A2FA142806D02B4622463146384635
:101B400004F032FCF8BD0020F8BDF8B507461D468C
:101B50000E461446104604F08FFA142806D02B4681
:101B600022463146384604F025FCF8BD0020F8BD79
:101B7000FEB5124D019117461E46002400902946DD
:101B800004F074FA050005D033463A4601990098EE
:101B9000A84704462046FEBD70B509480378021DDB
:101BA0000021084D07E0CC00165D012E01D124185C
:101BB000A560491CC9B29942F5D370BD8C410300A0
:101BC00004060800D46A0020FEB5514D0191174665
:101BD0001E4600240090294604F048FA050005D06E
:101BE00033463A4601990098A84704462046FEBD70
:101BF00070B5064614460D46104604F03DFA240A18
:101C0000002836D04348301806D001281FD00C28B1
:101C100021D00E2827D11AE02878002829D03E4D5F
:101C2000A600A859428E002A23D041230121204634
:101C300004F0C6FBA95900204886A859006800286E
:101C400017D1200201210E3004F03AFA11E0287871
:101C5000002808D10DE0204604F0B8FB0A2808D17E
:101C60002878002801D0412100E00021204604F01E
:101C7000B3FB002070BDF8B515460C46104604F0C5
:101C8000FBF92F0A00282CD0234DBE00A859408E06
:101C90000D280BD02148A2780088217983B23846DC
:101CA00004F0A0FBA859408E00280CD02078002812
:101CB00019D04123A8590121428E384604F080FBF7
:101CC000A95900204886384604F080FB012803D03B
:101CD0004621384604F080FB22796188384604F0BA
:101CE00087FB0020F8BD0023E4E7F0B50D480E2384
:101CF000021D0B4C0578002107E0CE00975D9F4246
:101D000001D13618B460491CC9B2A942F5D3F0BD5F
:101D100028490300F4FBFFFF540508006001002080
:101D2000046B002004060800F3B505462049800036
:101D30000C582802401C87B281B00026384604F0B7
:101D40009BF9152807D19520005D002803D004F0E9
:101D500001FB002818D023464033988AD98A88424C
:101D600000D808464004020C99823946114804F014
:101D7000E5FA012194200155384604F0A1F9803498
:101D8000607D002805D101E01F26F8E7A07D00282E
:101D90000CD000206075A075022004F0BDFA002868
:101DA00004D029463046029A04F028FBFEBD00000C
:101DB0004C0308002304000005200007018830229E
:101DC00011430180018803221143018070470520DF
:101DD0000007018830229143018001888908890029
:101DE0000180704730B5F9480023016DDB430029BD
:101DF00001D01A4600E00122F449026508390C6856
:101E00004D680C602A434A60426F002A01D01A468E
:101E100000E0012242670C6852024D680C602A43C0
:101E20004A60026E002A01D01A4600E001220266D2
:101E30000C6812014D680C602A434A60C26D002A8A
:101E400000D10123C3650A68D8004B680A601843B3
:101E5000486030BDFEB50020DC4E0346282200213C
:101E6000424392198C00491C13510A29FADB401C89
:101E70000428F3DBFFF7B6FF02F07CF9D348002219
:101E800008380260426015460024D1486900475A6C
:101E90000120A04080B207421CD02820684380194E
:101EA000A1004058411C19D0002810D0C11722466B
:101EB00004F096F92A0104F093F9C44B083B1A6820
:101EC0005B681043C14A1943083A10605160641CB2
:101ED0000A2CDDDB6D1C042DD6DBFEBD00950194C4
:101EE00000BEE3E7F8B5164604460D460A461F460F
:101EF0000120002104F074F9220104F071F9B34BC0
:101F0000083B1A685B6810401940084300D100BEC6
:101F1000032C00D10424AF4960014018690008185F
:101F20003E43C680F8BD70B504460D460A46012002
:101F3000002104F055F9220104F052F9A34A083AAD
:101F40001368526818401140084300D100BE032CAA
:101F500000D104249F49600140180121A9408180DB
:101F600070BD70B504460D460A460120002104F0FC
:101F700037F9220104F034F9944A083A1368526898
:101F800018401140084300D100BE032C00D10424A6
:101F90009049600140180121A940418070BDFFB502
:101FA00081B00C4605460A461F46012000210A9EC4
:101FB00004F016F92A0104F013F9844B083B1A685F
:101FC0005B6810401940084300D100BE002E214636
:101FD000284602D0FFF7C5FF01E0FFF7A4FF3B460C
:101FE00021462846039AFFF77DFF05B0F0BD70B586
:101FF00004460D460A460120002104F0F1F82201B2
:1020000004F0EEF8714A083A13685268184011401B
:10201000084300D100BE032C00D104246D496001A7
:10202000401800880121A940084000D0012070BD5F
:10203000FFB585B01446012000210F9F069A04F0D9
:10204000CFF8059A120104F0CBF8604A083A1368F9
:10205000526818401140084300D100BE5EA00068DD
:10206000029020461338FF26013686400090B0B219
:1020700000F09EF8002F01D0012100E00021574D13
:102080008140A889B0430143A9813F2000F090F826
:102090008740A889800980010743AF81B0B200F072
:1020A00087F80E998140288AB0430143298201268E
:1020B000009930468840074680B200F079F80899C8
:1020C0008140288AB843014329823F2000F070F8FC
:1020D000059902AA525C0699511881403F48620056
:1020E00040381018428B9209920111434183A00796
:1020F000C20EFF21914080209040002C0BDA220775
:10210000120F083A9308364A9B009B18DA698A43F3
:102110000243DA6107E0A308324A9B009B181A6861
:102120008A4302431A60E006C00E86402E480660CD
:1021300009B0F0BD70B501242146133881400D4629
:1021400088B200F035F884402448C189A9430C4383
:10215000C48170BD0246133A042A05D81B4A800088
:10216000A032801880384163704710B50446133898
:1021700004280BD82046FFF7DDFF1449A000A0314A
:1021800040188038406B002801D0804710BDE10620
:10219000C90E012088401549086010BD1320E4E7EE
:1021A0001420E2E71520E0E71620DEE71720DCE741
:1021B00000281DD0411E4840C003010C002001E052
:1021C0004908401C0029FBD113E0000028900020A2
:1021D000146B00200030005001090F19001400504A
:1021E00000ED00E000E400E000E100E080E200E05B
:1021F000102080B27047000010B5FFF7E8FD052100
:1022000009078888174AC30B104618D0164B1C883C
:10221000640714D51178890710D519880222114353
:10222000198019884908490019804468002C05D094
:10223000985E0421595E0A229A5EA04710BD8988E3
:10224000C906FBD51178C907F8D0084901228A8050
:102250000A8880239A430A8080680028EED080474D
:1022600010BD0000C081002000020050000100509D
:1022700008430121890303460B4343490B80434B29
:1022800018430880092002434A8070473E490A8863
:102290000F239B0100079A43800D02430A80704779
:1022A000394900200880704737483949028802239D
:1022B0001A430280491E02D302889207FAD40021F1
:1022C0000181408970470AE000BF00BF00BF00BF26
:1022D00000BF00BF00BF00BF00BF00BF00BF401E67
:1022E000F2D2704770B50222510204464E003046C9
:1022F000FFF7BEFF1420FFF7E6FF002C01D00920F6
:1023000000E00720FFF7C2FFFFF7CEFF05460120E0
:10231000FFF7D9FF022200213046FFF7A9FF002C6A
:1023200001D0092000E00720FFF7B0FFFFF7BCFF56
:102330004019154A0021118070BDF0B5124C1548A6
:1023400020801420FFF7BFFF01256D02A580E580E6
:102350002088E9000843208020888E10B043208028
:10236000FFF7A2FF0746208830432080FFF79CFF3D
:102370000246780071424018281A52005118691A12
:10238000A080E180F0BD0000001500500140000079
:10239000A08601000148000008B58921052000073A
:1023A00001810121634A4903118001888022114380
:1023B000018001888908890001805F48018A022222
:1023C0001143018200F06EF904F01EF804F022F8C7
:1023D0000020694601E00888401C08800888912890
:1023E000F9D308BD08B55549002008804880554AF2
:1023F000534BD380FF23D2331381C880C321518034
:10240000514A082111806946088003E06A46118814
:10241000491C1180694609889129F7D369460880CB
:1024200003E06A461188491C118069460988912990
:10243000F7D3694601E00888401C08800888912885
:10244000F9D308BD414A5080918001201080D08886
:10245000C007FCD17047F1B5FFB0FFB094B011AC2C
:1024600035480494008AA41C1090FFF795FF334868
:1024700001880F9141880E913249CA880D920A89CC
:102480000C92C2880B92408B0A9031484088099088
:1024900048888446FFF7A6FF00252B46FF2111A898
:1024A000FFF7D0FF00210A460846049E275C365CF1
:1024B0007E40F607F60F8E401643491CC9B2F2B2B1
:1024C000082906D1FFA9C96C4A556D1C0021ADB27F
:1024D0000A46194FC82620373E801030FF2680B2AA
:1024E000B600B042E1D95B1C9BB2022BD6D3124995
:1024F0001098088214490020088010480F99018024
:102500000E9941800F490D9ACA800C9A0A810B9A44
:10251000C2800A9A42830E4A0998508060464880D9
:102520000520000701888022914301807FB07FB0A1
:1025300015B0F0BD00020040E03000500024005013
:10254000808000006028005020200050003500509E
:102550000026005002480068002800D0004770475D
:102560000080002002480068002800D00047704723
:102570000480002030B4344C33493448603409E0DE
:1025800043681A780A6002685B1C521E0CC0083847
:10259000002A05D0A28B9207D20FF1D130BC704730
:1025A000002242604B680224A3434B6081680029EB
:1025B000F4D0826030BC0020084710B52248816802
:1025C0000907090F01291AD002291CD0042917D0A4
:1025D0000C2914D11D4A117E012910D14169090627
:1025E000C90F0CD00021D160116183885B085B00AA
:1025F00083805369002B02D001205161984710BDA0
:1026000000F004F810BDFFF7B5FF10BD0F490E48EC
:1026100009E002680B691A70CA685B1C521E0B61E4
:10262000CA60002A04D04269D207D20FF1D17047A4
:1026300000220A6143685B085B0043604B69002B22
:10264000F5D000204A61184700110050CC810020CD
:1026500030B58C498C48CA05148880231C431480EB
:102660008A4C65892D0701D4491EFAD2884C012174
:102670002160884C01882180874940880880108823
:102680009843108030BD00207047704770477047F6
:102690000020704701218907086B07221043086357
:1026A0007047704730B57E497C4808607D494C20B2
:1026B00008807C4C7C4B203C23827D497B484880B1
:1026C0007D487C4901807B4919314180222141812B
:1026D00081218900018279494182794901837749C1
:1026E00011314183744A77492032918041227649E1
:1026F00012018A80754ACA80744D1035CD810A82D4
:102700004A82921C8A826A1FCA82FF2246320A8348
:102710006F4A4A836F4A592111806E496E4D2031AC
:102720000D8043254D806D4D5582D5228A80FF2234
:10273000D3320A816A4A4A816A4A8A816B4A6A4963
:10274000118058496A4A60394A80CA8810252A434C
:10275000CA80614A0A3A0A81524D664A403D6A80FF
:10276000638208224A814C495A4A0988403A1182B8
:102770004849614A0988118060490978002901D0D7
:102780003021018330BD4008704700B58BB05C4AF2
:1027900042625C4A82625C4A42615C4AC2625C4A52
:1027A00002605C4A02625C4A42605C4AC2613C4A26
:1027B0003A48002110603A484038026B03129A43AD
:1027C0000263426B1F231B049A4303231B04D2188A
:1027D000426353480268C3129A43026002680313BB
:1027E0009A43026068464154491CC9B22829FAD369
:1027F000014628224B4803F0AFFBFFF753FF03F0DD
:10280000EDFB49490880002003F0EEFB03F0F2FBEA
:102810000BB000BD10B52249204808602048403860
:10282000416B1F2212049143032212048918416351
:1028300000060168C908C900016005200007018978
:1028400089088900491C01810189082211430181FD
:102850000E484189890504D50188782291430831C1
:102860000180FFF71FFF3148006F0078002804D077
:102870002F4800880B496039C880012003F0EAFB2B
:1028800010BD0000A0860100087F04002000005059
:1028900000800040560208004A0308004C05540717
:1028A00080000040602C00507F7F0000AC290000B9
:1028B00000220050090900000024005022040000FA
:1028C00030D00000EE110000002500502E02000064
:1028D00044200000402800500D95000002420000F6
:1028E000E4DC00001092000053780000002A005041
:1028F0008B1000009DD5000000260050E8810020CC
:10290000872600208B260020912600209526002077
:102910008D260020A32600208F2600208727002058
:10292000000200402000080078040800E0010020B8
:102930005204080070B50125AD07AC6B2046FEF7C8
:10294000BAF8D34903F058FC27221201511A00D1DA
:102950000121D04A50601160286B08218843084348
:102960002863CD480460CD480068002802D0A0420A
:1029700000D200BE70BDFFB500256A461570C8497B
:10298000096800297CD00A464032937C002B77D01E
:10299000C44CC54B012813D0098D26460907803E3B
:1029A0000127366FC90EFF04C919715A6E46890B8B
:1029B00031713179002963D03179012906D011E0D4
:1029C0006E46E16C3170002199700BE011894E2642
:1029D0007143B64E25688919695A6E460D0AD17C35
:1029E000691A3170317800294BD0B14DB049603D42
:1029F000AE6E097B2E254D43B446751905E0491C82
:102A00004907490F2E254D4365446E463678761E9C
:102A100037063F0E6E463770F1D1AD786E06760EF2
:102A20006D462E712D79AE06B60E6D462E722E2590
:102A300069439E4DA469463D4919615A6D46C906D0
:102A4000C90F2973012805D000209870287B002821
:102A50000FD10BE0287B002802D1287A00280FD064
:102A6000107D00280CD101201AE009E0287A002806
:102A700006D0107D002803D1D07D08210843D075F1
:102A8000FFBD0128FCD0002D02D09878002806D088
:102A9000107D002803D1D07D08210843D075002087
:102AA0009870FFBD10B5052000074189890708D03F
:102AB00041898908890041817E494A88520852002B
:102AC0004A800189802211430181018A04229143B5
:102AD0000182818A8907FCD503F0A2FC01208007CE
:102AE0000169490700D500BE01694907FCD510BD41
:102AF000F8B56D4EF08800282AD101200527F08016
:102B00003F077889800720D0B88A400701D501F0B7
:102B100032FB684D2888802108432880664CFF20BE
:102B2000608004202080FFF747F97D21C900E088FC
:102B3000A288000480188842F9D905202080B08836
:102B4000788029888020814329805C491020086092
:102B5000F8BD70B5FFF73BF9FFF7A4FF524C002614
:102B60005748E68001894908490001810120800712
:102B7000816904221143816103F058FC4F49102000
:102B800080310125086003F057FC03F05BFC4948E5
:102B900026704089800510D5607800280DD14948FD
:102BA00065700088C00708D10120FFF79BFB8B21CF
:102BB0008900884201D90220607070BD10B503F011
:102BC00047FC00F05DF838490120087010BD10B5D1
:102BD00001208007008A000601D500F051F810BDE1
:102BE00010B50120FFF7C7FE03F038FC10BD10B58B
:102BF0000124A407208A000718D50220FFF7BBFE96
:102C000003F032FC20684000400861000843206067
:102C10002068C00FFCD11F48803001680906090EEA
:102C200001D00121016020490420087010BD70B559
:102C30002548008885062548AD0E44681948006F70
:102C40000078002802D1284603F014FC20480089AF
:102C5000154EC00507D520060BD5E00709D028463C
:102C600003F00EFC03E0200603D5E00701D00320AB
:102C70003070200403D5E00501D50220307070BD0E
:102C800010B509490120C87003F000FC10BD000018
:102C90007102000040000040F8810020F481002013
:102CA0006C030800E0010020EA8100204A000800CF
:102CB00038030800200000500016005000E200E039
:102CC000003300500015005000200050000200406A
:102CD000002C0050FEB5604C0026606D3746009019
:102CE000FDF715FE5D4D002802D12879022801D19B
:102CF00000200090FDF709FF00280ED103F0CCFB67
:102D000000280AD055480126C078002805D005259E
:102D10002D07A88AC00701D004269AE003F02EF9F7
:102D200000287DD14E488069002801D0606D009058
:102D30004A48009C8178684603F0B4FB00286FD0B5
:102D400001208007406940066AD44448817868467B
:102D500003F00EF900287CD00020FF2100942D31D3
:102D600001240190A407206A8842FCD33B48817863
:102D7000684603F097FB00286BD06069400668D472
:102D800036488178684603F0F3F8002861D000984F
:102D9000002804D00199002901D0401E009031493B
:102DA000002209788320022900D1B5202E490B7812
:102DB000012B00D121300A70E26B0F21920A92029E
:102DC0000A43E263E16B294A800211400143E16357
:102DD000E06B3721C002C00A89050843E063009810
:102DE0000426002801D0001D0090C002642103F0D9
:102DF00003FA002800D0401E1D49086017490979D0
:102E0000002900D0012103F053FB1A48C06A804713
:102E1000FDF792FE00280AD028883021084300E000
:102E200017E0288028880321084328800127206B89
:102E30000004C00FFBD010480168C905FCD5002F65
:102E400001D0FEF7C4FF03F039FB288980218843B5
:102E500028813046FEBD000060020020C606080042
:102E6000A805080054020800EB810020FF03E0FFE2
:102E7000F48100201C07080000020040FFB5002676
:102E800085B0154641486A463446374610820029C7
:102E900004D0042203A803F05FF802E00020C0433E
:102EA0000390002016E003990141C90710D00F9943
:102EB000020151180A79022A02D0102A05D102E033
:102EC000761CF6B201E0641CE4B20989C9198FB21C
:102ED000401CC0B2A842E6D30094002332460197BA
:102EE0000E99059803F0F0FA00242AE00399214195
:102EF000C90724D00F9927017E18F18802A80091F4
:102F000001900F983279C35905983189008803F0F0
:102F1000E1FA002813D17189002910D030790228F4
:102F200007D10F980222C05904A903F00FF8002816
:102F30000DD0684671890089F26803F0D1FA641CEB
:102F4000E4B2AC4201D20028D0D009B0F0BDF068A4
:102F50004078FF2809D00899002906D005996A46CB
:102F600009781289511A089A11546A461089411C2D
:102F700011807189F26803F0B3FA0028DFD16B4643
:102F800002220121188903F0B1FAD8E703280000D2
:102F900010B51221244803F0AFFA24491C2003F095
:102FA000B1FA00211C2003F08BF810BD30B50346A8
:102FB0000120002103241A46CA40D20704D04D0044
:102FC00022466D1CAA401043491CC9B20929F2D3FC
:102FD00030BD02460020122901D98D207047062AF3
:102FE00006D0072A07D0082AF8D10729F5D170475B
:102FF0000829F2D170470629EFD3704770B50A4C03
:103000000546218802231C22094803F05FF8058049
:1030100003F062F8E088002103F07AFA01211C2015
:1030200003F04EF870BD0000FC810020306C0020E1
:1030300004700000FEB53B4E1C2070801D461746F4
:1030400034460888FFF7B2FF0290374833460190B4
:103050000833132202A90097A01D03F05FFA0400B1
:1030600008D1F088002103F053FA044601211C2006
:1030700003F026F801231C2229462C4803F026F8E9
:10308000047003F029F80020FEBD70B50C462549F8
:103090000B802078082814D8CA880831415C511860
:1030A0008DB2822D0BD06178FFF793FF010009D11B
:1030B0006D1C6178A8B2A21C03F012FA08E082210C
:1030C00000E08121194B17485B1CDA1C00F030F836
:1030D000002070BD70B51D460C46088803F024FA28
:1030E000104AFF281071158009D0A178D08803F00C
:1030F0000FFA02211C2002F0E3FF002070BD0B4BF1
:1031000089219B1C9A1C074800F012F8F5E710B5BE
:10311000044A180A1279904202D10888FFF76EFF1C
:10312000002010BDFC8100201C6B002001700000FD
:10313000F8B514460F461E46054642880188062308
:10314000204602F0C3FF0446287903F0F3F92080FB
:1031500027716680204602F0BFFFF8BD70B51446A7
:10316000428800790D46010204232E480C3102F0FA
:10317000ADFF002D01D0132100E012210170448029
:1031800002F0AAFF70BD38B520206946264C0870B1
:103190006088002800D0401C0B4680B2012200212C
:1031A00003F0A4F96088002800D0801C80B2402180
:1031B00003F0C6F9FFF7ECFE00241C4D09E04019AE
:1031C0004069002803D0641CE4B2804701E0641C1D
:1031D000E4B220461C214843295CFF29EFD138BDC9
:1031E000F7B50D461C2002F047FF022805D1EAB2D0
:1031F0001C230299009803F0F5F8009800240B4E68
:10320000070208E03B460343641CE4B2EAB20299B9
:10321000009803F0E7F81C206043305CFF28F1D1F0
:10322000FEBD00000D300000F6040800E06D002037
:1032300002464B880020022B01D00D2070470989DF
:10324000002A05D00029F9D00129F7D08120704744
:103250000029FCD00229F9D1704770B586B0044628
:1032600002F0B8FF05461D4E0EE06A4604A920464E
:1032700003F06CF968460088B04203D1641CA0B228
:1032800006B070BD641EA4B2A888A04202D8E88827
:10329000A042EAD20020F3E7F0B585B0044602F080
:1032A00099FF0E4E0546FF360C4F0FE06A4604A903
:1032B000204603F04BF968460088B04202D1204610
:1032C00005B0F0BDB84207D0641CA4B2A888A042E3
:1032D00002D8E888A042E9D20020F1E703280000E4
:1032E00010B50E21104803F007F91049362003F0FD
:1032F00009F90121362002F0E3FE10BD70B50A4C39
:103300000546628821880223094802F0DFFE058015
:1033100002F0E2FEE088002103F0FAF800213620F6
:1033200002F0CEFE70BD000010820020806C0020F4
:1033300009D80000FEB5DA4C1F460D466280002316
:10334000D84816E0914212D13118496800290ED0B0
:103350001C214B4318184068019000922A78A01D48
:103360006B68A968FFF78AFD060008D011E05B1CB6
:10337000DBB21C265E43815DFF29E3D112E0287891
:103380002072E088002103F0C3F80021362002F00B
:1033900097FE012336223946C34802F097FE067095
:1033A00002F09AFE0020FEBD70B51D460C4608884E
:1033B00003F0BAF8BA4AFF281071158009D0A17835
:1033C000D08803F0A5F80221362002F079FE002013
:1033D00070BDB54BB44A5B1C09328921B048FFF778
:1033E000A7FEF4E7F0B5AE4815460C460279190A77
:1033F0008FB091427DD12388C188007A591A8EB24C
:10340000B04278D90AAA0EA9184603F09FF8684678
:10341000018D2046A54A08300190914218D120889C
:10342000FFF71BFF07A903F097F86846808B40055C
:10343000800F012800D000202146FFF7F9FE050685
:103440002D0E2DD161882088019A03F049F826E0DD
:103450000020944F15E0A94211D1D11989690029A2
:103460000DD0019900911C256843C01985696388B6
:10347000A288E1793046A847050008D010E0401C3A
:10348000C0B21C2141430A46B95CFF29E3D1A2889E
:10349000002AD7D061882088019B03F063F8054695
:1034A000E079002828D0002D26D1208809AA02A979
:1034B00003F05EF868460089801D83B27848428830
:1034C00001887948C01D02F001FE0746684602895E
:1034D000B81D099902F040FD7148007903F02AF8FF
:1034E00038807E8068460089B880384602F0F4FD56
:1034F00002E00AE0FFE78225A079012805D16848AB
:10350000218800792A4603F039F800200FB0F0BD79
:1035100070B5634C0E46087821886288122802D064
:10352000132808D018E060480623001D02F0CEFDE5
:103530000546608906E05C480623801D02F0C6FD52
:103540000546A0896880207902F0F4FF2880707811
:103550002871284602F0C0FD002070BD70B5504DA6
:103560000C46287902F0E6FF2188884207D1E888D6
:103570006188A21D401880B2A18802F0B1FF00202E
:1035800070BDFEB5464D0C46287902F0D3FF218868
:10359000884223D1E8886188A21D401880B2A188A2
:1035A00002F09EFFE8886188401880B2297AFFF710
:1035B00073FE6A4601A902F0DBFF0098008801282B
:1035C00001D08B260BE0E8886188401882B2002188
:1035D0003348FFF7C3FD6088688112E081263248D6
:1035E0006A8829880623001D02F070FD074660885E
:1035F0007880287902F09EFF38803E71384602F0CC
:103600006BFD0020FEBDFEB5254D0C46287902F06D
:1036100091FF2188884223D1E8886188A21D401843
:1036200080B2A18802F05CFFE8886188401880B20F
:10363000297AFFF731FE6A4601A902F099FF009846
:103640000088022801D08B260BE0E88861884018AA
:1036500082B201211248FFF781FD6088A88112E043
:10366000812611486A8829880623801D02F02EFDD4
:10367000074660887880287902F05CFF38803E71C8
:10368000384602F029FD0020FEBD10B5044A180A94
:103690001279904202D10888FFF730FE002010BD59
:1036A00010820020E06D002001D8000002290000F7
:1036B00010B500F0D9FA00F0E4F90020FDF71DF98B
:1036C00010BD0C225043104A10B580188078FF2896
:1036D00003D0088800F02AF810BD00F0A2F910BD50
:1036E00010B500F09EF910BD10B500F0A7F9002844
:1036F00001D000F096F910BD10B500F092F902204B
:1037000000F0CAFE10BD0000388200200021ED4A02
:1037100005E0834201D101207047491CC9B20C2346
:103720004B43D35CFF2BF4D100207047F8B505461E
:103730000024E44E0AE080198168002904D0641C4A
:10374000E4B22846884701E0641CE4B220460C211C
:103750004843315CFF29EED1DA4E00240C3609E0F3
:103760008F19B968002903D0FFF7D0FF002809D0CE
:10377000641CE4B20C216143705CFF28F0D100248A
:10378000D14E10E0641CB968E4B228468847F1E7DE
:1037900080190169002904D0641CE4B228468847D6
:1037A00001E0641CE4B220461C214843315CFF293F
:1037B000EED1F8BD70B5C349C44C0E460C36C24DAF
:1037C0000DE052185268002A07D0C2B20C235A43A7
:1037D00051184968401C60702DE0401C6070607892
:1037E0000C2242438B5CFF2BEBD10AE0891949681C
:1037F000002903D0FFF78AFF002809D02078401C59
:10380000207021780C204143705CFF28EED117E036
:1038100020780C21414389194968401C20700AE036
:103820004919C968002909D0C1B21C22514349195C
:10383000C968401CA0708847002070BD401CA07063
:10384000A0781C2141436A5CFF2AE9D10020A070C6
:1038500060702070012070BDFFB581B004461E4627
:10386000154618460A9F02F0EDFF0090267021468B
:103870003846009A02F088FE002803D000BE0020DF
:1038800020700BE02278AA4200D900BEAA4200D3E1
:103890002A4622700099029802F05EFB009802F01E
:1038A000A7FF05B0F0BDF0B5884899B0C068002802
:1038B0005DD1502332220D21854802F007FC0446D9
:1038C000824E0025F0600E2020706570A580814832
:1038D000A081E0810720207401206074A574214636
:1038E0000B2014310090481E20231C2217910190B8
:1038F000FFF7B2FF21460C2031310090481E2023F3
:103900001F2218910290FFF7A7FFF0681A22C17CCE
:103910002030571A007C1D210E1A68460574002FAE
:1039200001DC002E23DD3E206946087406AA04A9A6
:10393000022002F029FE002803D000BE684605746C
:1039400015E06846017C002911D08F4205DBE27C3E
:10395000179806AB1218019807E08E4207DB203457
:10396000227C189806AB1218029800F099F8574874
:10397000C06819B0F0BD70B5544DA868002821D1B9
:103980005348222332220D210A3802F09FFB0321E3
:1039900001700446A8600A204A496070102221394B
:1039A000A01C02F0D9FA00216182217561751720EF
:1039B000E0820820208310206083A1836420E083BC
:1039C00020342170A86870BD404810B50C21183013
:1039D00002F092FD3D490020183101220C2343439F
:1039E0005B18401C00061A71000EF7D035493220D2
:1039F000243102F087FD0021322002F061FB10BD6E
:103A000070B50D46010214462C23322232480E3185
:103A100002F05CFB014620310D724C7202F05CFB3F
:103A200070BD10B5FFF73FFF02F056FB274900209D
:103A3000C8600221322002F043FB10BD10B5012105
:103A4000322002F03DFBFFF7B5FE10BDB2E610B527
:103A5000FFF791FF02F040FB1C490020886010BD79
:103A60001A4A002124324B00D35C834203D1480020
:103A7000801840787047491CC9B20A29F3D3012045
:103A80007047124910B50020FF2324310124420061
:103A90008B545218401CC0B254700A28F7D310BD82
:103AA00070B50646481C1070092015460C4650702B
:103AB00022461946A81C02F04FFA3078A41C0019BF
:103AC000307070BD246D0020E06D00202082002049
:103AD0000E3400004C0400000238000010B51046FF
:103AE00002F0CAFA002809D1012332220D215A48D6
:103AF00002F0ECFA0121017002F0EEFA002010BD94
:103B000070B50D78554C0E2D15D008DC012D14D054
:103B1000022D0CD0032D16D00D2D08D10BE00F2D4A
:103B200009D0102D07D0112D05D0122D03D02568F6
:103B3000002D00D0A847002070BD48780028FAD199
:103B4000FFF785FFF7E748780028F4D1FFF7CCFDB1
:103B5000F1E7F8B51C4610460E4602F08DFA022831
:103B600029D1240A00D000BE0C20274647433C48F8
:103B70003D18AC70FF2C1AD00121E97005213220CC
:103B800002F09EFA36483188C153707A6871314626
:103B9000A81D06220A3102F0DFF94C2031496043AA
:103BA00040184030417A00222046FFF729FF314675
:103BB000204600F04BFB0020F8BD70B50C4609789C
:103BC00016460A2908D0254D2968002902D0214629
:103BD0002C68A047002070BD104602F04DFA042862
:103BE000F8D160780028F5D10521304602F068FA56
:103BF000F0E710B510460C4602F03EFA032803D059
:103C0000052801D0042802D1204600F026FB002020
:103C100010BD10B510460C4602F02EFA012808D14E
:103C20002078002805D1FFF711FF002801D0FFF709
:103C300063FD002010BD0020704700207047FEB5D6
:103C40001C46064D089B08262D1D6F4668C7134667
:103C5000224600F00AF9FEBD02340000586D002033
:103C6000388200205A820020704710B51C210223A0
:103C70003222880202F02AFAFF217431018002F018
:103C80002BFA10BD70B50546042332221C210748CB
:103C900002F01CFA044605801C20FFF7E1FEA0702C
:103CA0000020E070204602F017FA70BD037000009B
:103CB000FEB510460E4602F0DFF901287ED13078BD
:103CC000002877D10B2332221C21484802F0FEF94C
:103CD000044600202070082565702A4644A1A01CD7
:103CE00002F03AF9204602F0F7F90F2332221C21A4
:103CF0003E4802F0EBF90446012020700C20607071
:103D000002463EA1A01C02F027F9204602F0E4F989
:103D10000B2332221C21354802F0D8F90446062034
:103D200020706570082239A1A01C02F015F9204608
:103D300002F0D2F9082332221C212C4802F0C6F9E5
:103D400005270770044647703A4633A1801C02F0ED
:103D500003F9204602F0C0F9082332221C2123482F
:103D600002F0B4F904460420207067703A462CA192
:103D7000A01C02F0F1F8204602F0AEF90A2332222C
:103D80001C211A4802F0A2F9044605700720607051
:103D90000120A070D221684601800B21C901418019
:103DA0006901818006226946E01C02F0D5F82046B0
:103DB00002F092F901233222114600E006E090025F
:103DC00002F084F93178017002F086F90020FEBD1E
:103DD00000207047FEB51C46089B0226124D6F4618
:103DE00068C71346224600F040F8FEBD027000008E
:103DF000526F636B6579204A00000000434F5245C3
:103E00005F4441313435383300000000123456FF2E
:103E1000FE9ABCDE00000000352E302E340000007B
:103E2000312E312E30000000AC6D0020FFB583B084
:103E30001E4F002401AEA00000963D5803A80FC8F5
:103E4000A84700280ED0641C042CF4D3174C241F60
:103E50002068002803D003AD0FCD2468A0470020C0
:103E600007B0F0BD68460079FAE7F8B5089C9C46B3
:103E7000079D0346002C16D0641E14D40C4FE60098
:103E8000AE5B9E4201D0BE420BD1E3005B195C6881
:103E9000002C08D013466246A047069908700020FF
:103EA000F8BD641EEBD50120F8BD0000C06D0020F8
:103EB000FFFF000010B5052000070089000608D5A7
:103EC00001208007006B000403D402F057F8C007FC
:103ED00001D0002010BD012010BD704770470000C8
:103EE00070B50D460446FFF7E5FF002807D06E4881
:103EF0002A46201880B2322102F020FA70BDFCF769
:103F000009FD6948322204231146801E02F0DEF8C2
:103F10004580047002F0E0F870BDF8B5634C069D72
:103F200006190024002E26D0012E0BD0604B1A4615
:103F3000283A022E0AD05D49C91E41180A292BD3FE
:103F40000120F8BD00F086F828703AE00878461E97
:103F5000092E0ED88000001F1058564FB8422FD19E
:103F6000B0001B5813504A8808781146FFF7B8FF75
:103F700026E000BE24E04A88002A0BD04E48824248
:103F800000D300BE08784849401880B2322102F0C0
:103F9000D5F915E000BEF5E74449891E4018C0B2C6
:103FA000411E09290BD88600B1188039C86F002836
:103FB00006D0CC67F1188039CC67804700E000BE9E
:103FC0002C700020F8BD0A46010010B53A480ED00A
:103FD000814200D300BE364B0020283B84001C5990
:103FE000002C06D0401C0A28F8DB002010BD00BEC3
:103FF000F1E784001A51401C0406240EF5D0204637
:10400000FFF76EFF204610BD70B50446401E09281C
:104010001ED82748A10028380D18803DE86F0028D9
:1040200014D0264EB04211D01F483221201880B241
:1040300002F058F81C48322204231146401EEE6755
:1040400002F044F8047002F047F870BD00BE70BD85
:1040500000BE70BD10B508780C46411E09291FD856
:1040600082001348121F28388258144B9A4205D1F7
:104070000022890042502830425012E08900405806
:104080000C4988420DD1322204231146064802F021
:104090001DF8217801706188418002F01DF800E070
:1040A00000BE002010BD000003C80000FF37FFFF66
:1040B000D0820020DD3E002030750000DB3E002075
:1040C00010B5362110233222880201F0FFFF0021B3
:1040D000144A03E0362B0DD0491CC9B21C234B43B4
:1040E000D35CFF2BF6D1002141608160818101F01A
:1040F000F3FF10BD1C2359438918097A0170F2E7B8
:1041000070B50546042332223621074801F0DEFF50
:10411000044605803620FFF7A3FCA070204601F07E
:10412000DBFF70BDE06D002002D8000010B5104626
:104130000C4601F0A1FF012809D1322201231146CA
:10414000900201F0C3FF2178017001F0C5FF00204B
:1041500010BD00207047FEB51C46089B0226044D8A
:104160006F4668C713462246FFF77FFEFEBD00007C
:10417000D06D0020704770B505242407208A88B0D0
:104180000225A8432082A08A0007FCD52C4841883C
:10419000FF22013211434180FCF74EFE608A20214C
:1041A00008436082FF207D21F430082207260901A0
:1041B0000095019603920490069105900222062331
:1041C00002950521104600F0E3FD00F030FF642069
:1041D00000F0BBFE642000F0C7FE002000F0D3FE1C
:1041E00000F0ADFE00200124019069230522042186
:1041F0000094029001F02EF801940623002202217F
:1042000001200096029401F0D4F901F010F9022285
:1042100009230321104600F010FF0221084601F097
:10422000DFFB00F075FD07491320FDF793FF0649FA
:104230001520FDF78FFF002001F066FA08B070BD71
:1042400020000050094400205144002010B5FFF721
:1042500038FA002000F020F910BD10B5FFF740FA41
:10426000012000F019F910BD10B5074CE04206D14D
:104270004C88022C04D0062C01D100F0C4F810BDEB
:1042800000F004F810BD0000F827FFFF70B590B0F3
:104290008A886846891D01F05FFE684600782328F9
:1042A00078D168464078232875D16846407B252818
:1042B0007CD16846807B252878D168468178C07893
:1042C000091868460279467990190918684685796F
:1042D000C4794919007A091909186846407A0918F9
:1042E0006846807A09186846C07A08181A2101F0D1
:1042F00083FF68466131007BC9B2814256D100A874
:10430000023001F0DDFB00BA000A0002E121304377
:10431000C90140185649012D48603DD0022D43D0B7
:10432000032D43D0534C042D40D100F00BFD01214F
:1043300001F00EFC0546402108A801704170684656
:10434000817808A881706846C17808A8C17068465D
:10435000017908A801716846417908A84171284689
:1043600001F066FD0022234601F0A2FC00220E4669
:104370000446134601F070FD1AD82046314600224B
:104380003D4B01F0A3FC00223C4B02F003F901F08D
:1043900031FD0EE02FE009E039480078012805D012
:1043A000062000F079F826E03648047010B070BDA1
:1043B000002008A98871284601F007FD020A08A913
:1043C000CA7108722420487288722623322236214C
:1043D0002D4801F07BFE04462C4808A90088208067
:1043E000022060802020A0800246A01D01F0B4FDC4
:1043F000204601F071FE684600780128D6D10620DB
:1044000000F04AF8D2E7704710B519480178012941
:1044100009D0022906D10121017000F078FE0420A4
:1044200000F03AF810BD0221017000F063FE032095
:10443000F6E71CB50120009002210190002315220F
:104440000846FDF7F5FD00200E49C04348801CBD1D
:1044500010B501200E4940050860052000F01CF849
:104460000C49C820FFF7AFFD0649488010BD000089
:10447000DC90002000E8AC4000407F400000594044
:104480000C800020E06F002004D80000388200205B
:1044900080E100E033440020F8B54149414D424CF1
:1044A0000F7801262A782178030001F0EBFD08053A
:1044B00009264254563D722502202870012054E0FE
:1044C000002903D12670082000F05FFA287802281E
:1044D00007D0042000F059FA34480178022902D0AC
:1044E00008E00720F6E70670042000F04EFA0B20E3
:1044F00000F04BFA03202870F8BD294C002F0ED194
:1045000000F0EEFD002807D00220207000F0F2FD40
:10451000052000F03AFA02E0267000F0F8FD0D20C8
:1045200000F033FA102020E0022AE5D12E7002209C
:104530001BE0052000F029FA2078002808D0012887
:10454000DAD11A4801780229D6D106700B200CE086
:104550002670082009E0062007E0002A08D001297B
:104560000AD00029C8D12670092000F00EFAF8BD43
:10457000022028700320F8E70C480078012803D0B7
:104580000228F4D10A20F0E7012AF0D1012F02D04D
:10459000F8BD0129FCD1002020700C20E5E70000C7
:1045A000DC9000200C800020E46F002010800020B0
:1045B00010B501F0C9F8F9A20821002001F0CEF9E8
:1045C000F7A20821102001F0C9F9F6A20821202045
:1045D00001F0C4F9F4A20821302001F0BFF910BDA8
:1045E00010B5012001F090F810BD10B5022001F0C7
:1045F0008BF810BD10B5032001F086F810BD10B582
:1046000001F0A2F8E9A20821002001F0A7F9E8A230
:104610000821102001F0A2F9E6A20821202001F0D3
:104620009DF9E5A20821302001F098F910BD10B5E0
:10463000042001F069F810BD10B501F085F8D9A289
:104640000821002001F08AF9D7A20821102001F0EA
:1046500085F9DAA20821202001F080F9D8A20821EA
:10466000302001F07BF910BD10B5052001F04CF8A9
:1046700010BD10B501F068F8CAA20821002001F0B1
:104680006DF9C9A20821102001F068F9CDA2082116
:10469000202001F063F9CCA20821302001F05EF95E
:1046A00010BD10B5062001F02FF810BD10B501F0B7
:1046B0004BF8C6A20821002001F050F9C4A208213D
:1046C000102001F04BF9C3A20821202001F046F987
:1046D000C1A20821302001F041F910BD10B507201A
:1046E00001F012F810BD10B501F02EF8BBA20821A0
:1046F000002001F033F9BAA20821102001F02EF9B0
:10470000B4A20821202001F029F9B3A20821302009
:1047100001F024F910BD70B5B24801F095F90446D6
:1047200040680A2101F03CFF30313030CEB2C5B2D2
:104730000A21A06801F034FF30313030C9B2C0B274
:1047400033462A4601F04BF870BD10B5002000F04A
:10475000DBFF10BD0178A44A89005050704700214A
:10476000A14A80001150704710B500209F4C9E490F
:10477000C043608108390879421C0A710A2805D3B0
:1047800098480268521C026000200871984801682D
:104790006431016097490A20FFF715FC608110BD64
:1047A00070B50020914D904CC0432880083C607942
:1047B00081008D484658002E0CD070688047708864
:1047C0008D49FFF700FC28806079072814D2401C2F
:1047D000607170BD6179072901D2491C00E0002198
:1047E000C9B2617189004658002EE6D100218A00C5
:1047F0008258002A06D101E00020E9E7491CC9B22D
:104800000829F4D30829E5D178487430FFF7A2FFCE
:1048100079490120FFF7D7FB288070BDF8B500204B
:10482000724EC043308100F08DFA012101F090F901
:1048300004466D4D7148724F083D844201DD0120F0
:1048400006E06F486F49C0432018884203D8022011
:10485000E8710F2004E0BC4204DC0320E8710E2064
:1048600000F093F8BC4201DC002010E0204601F08B
:10487000DFFA0022644B01F01BFA0022634B01F0C7
:1048800025FA0022624B01F085FE01F0B3FA687050
:104890007D206049C000FFF796FB3081F8BD10B560
:1048A0000020524CC04360804F480838C17800292E
:1048B00005D0002181700720FFF7EEFD10BD01211A
:1048C000C170FFF728FFFF205349F530FFF77BFB4E
:1048D000608010BD30B50020444D89B0C043E880F1
:1048E0004E480078002831D04D48007801281CD16E
:1048F0003C484CA203684EA1684601F069FE26239D
:10490000322236214C4801F0E1FB04464B4869460F
:10491000008820800A2060802020A0800246A01D00
:1049200001F01AFB204601F0D7FB2F4808388179A7
:10493000002903D0C9438171002002E0FF21817169
:10494000642000F002FB322000F01DFB3C49642093
:10495000FFF739FBE88009B030BD10B500202349CE
:10496000C0438880354802238078322201023548CE
:104970000E3101F0ABFB012101701321417001F0F8
:10498000ABFB072000F001F810BDF8B5164D01276C
:10499000083D29782C4E154C58E00000B5C80000A1
:1049A000B4FD0000C5E40000B6D40000C9E8000072
:1049B000B1B80000D2EC0000B3A30000B3C90000FE
:1049C000B9A60000B6AA0000CAA70000C6C600002B
:1049D000B2F00000BEAF0000B1A80000B5E70000D3
:1049E000C1BF0000E090002018800020E86F002088
:1049F0000880002069470020A147002000007A4578
:104A000000406745FFBF120000E8AC4000407F4017
:104A1000000059401D4800209F480020E06F002002
:104A20000C800020554E444F5F414C41524D0000D8
:104A3000257320256400000004D80000388200207F
:104A4000D548002004380000FFFF0000030001F0FB
:104A500019FB110A21445B717A88549C9FB3F2F1CF
:104A6000F0EFEEED2000012908D02F70A048FFF7ED
:104A700071FE9F480830FFF76DFE57E09C48FFF736
:104A800069FE9B4808305BE09A490120FFF79BFADA
:104A90002080F8BD012917D095482F701030FFF7FE
:104AA00059FE93481830FFF755FE2088B04204D1D4
:104AB00090490120FFF787FA20807D208E49C000B1
:104AC000FFF781FAA080F8BD89481030FFF742FE59
:104AD00087481830FFF73EFEEFE785483030FFF794
:104AE00039FE83483830FFF735FEA088B042EAD05F
:104AF000C0B2FFF789FAA680F8BD7D482030FFF7E5
:104B000029FE7B4828301BE000F00BFA7B48401E52
:104B1000FDD200F00DFA7648FFF71CFE744808300D
:104B2000FFF718FE2878012800D02F702088B042A7
:104B3000AAD0F8BD6E484030FFF70CFE6C484830F4
:104B4000FFF708FEF8BD6A485030FFF703FE6848DB
:104B50005830FFF7FFFD6A490120FFF734FAE08083
:104B6000F8BD0220FFF7FBFD0320FFF7F8FD6420EE
:104B700000F0EBF9002000F006FAE088B042EFD038
:104B8000C0B2FFF741FAE680F8BD00F0FAFCC9E7D1
:104B900000F0C7F95948401EFDD200F0C9F900F0F5
:104BA000F0FC2878022801D002202870AF70002085
:104BB000E870544901204DE000F0B3F94F48401E21
:104BC000FDD200F0B5F96088B04203D0C0B2FFF763
:104BD0001BFA6680A9783220012906D002290CD060
:104BE000032929D0042932D12EE00221A9703123D2
:104BF000342200901946012015E00320A87068783F
:104C00000A21064601F0F8FA0D463030C7B23035B9
:104C10006421304601F0F0FA3030C1B23F200090FC
:104C20002B463A46002000F018FE10E05AE042E021
:104C30003CE032E012E044E00421A9703723302246
:104C4000402100900220EEE7AF70FFF764FDFF20E7
:104C50002C49F530FFF7B7F96080F8BD00F061F935
:104C60002648401EFDD200F063F90020FFF777FDD3
:104C70000120FFF774FD0620FFF771FD00F071FCC5
:104C80002878012806D12088B04203D0C0B2FFF7AF
:104C9000BBF9268000202870F8BDE8790028FBD1F8
:104CA00019490120FFF78FF92081F8BD0129FCD1B6
:104CB0000F48603044E70129F7D10420FFF74FFD8A
:104CC000F8BD6088B04203D0C0B2FFF79DF966809E
:104CD0002088B04204D107490120FFF774F92080F1
:104CE0002F70F8BD09490120FFF76DF96081F8BD0B
:104CF000F46F0020A14700205B4900203E420F00D6
:104D0000D54800209F4800201D480020694700200A
:104D100038B51C490868002802D00020C04300E0D4
:104D20000120194A08601468C117536820431943C9
:104D30001060516000200F23024601460090FDF7ED
:104D40002EF938BD10B5FDF7F8FA022251024800DD
:104D5000FDF78EFA1420FDF7B6FA0020FDF796FA5B
:104D6000FDF7A2FA0446FDF79BFAA0B200F009F89D
:104D7000E1210901484301F021F8044900F0AAFEAD
:104D800010BD7047289000202090002000C07F4474
:104D9000FFB581B0E4480B9E0C9D0A9F0D9C0570E9
:104DA00044708770C6701099C1802820DF4978430D
:104DB0004318B2009858002802D00020C04300E0F9
:104DC00001209850C117324601F00AFA3A0101F069
:104DD00007FAD74B1A685B681043D54A194310602D
:104DE0005160019828214843D04941180298820017
:104DF0008858002802D00020C04300E001208850DD
:104E0000C117029A01F0ECF9019A120101F0E8F9D8
:104E1000C74B1A685B681043C54A1943106051605C
:104E2000039828214843C1494318049882009858A0
:104E3000002802D00020C04300E001209850C11794
:104E4000049A01F0CDF9039A120101F0C9F9B84BA7
:104E50001A685B681043B64A1943106051602820F5
:104E6000B24968434218A1005058002802D00020DF
:104E7000C04300E001205050C117224601F0B0F9B4
:104E80002A0101F0ADF9AA4B1A685B681043A84AE1
:104E90001943106051600020032200901923120270
:104EA00031463846FDF77BF801260322172312020C
:104EB000009602990198FDF772F818235A0100969E
:104EC00004990398FDF76BF8002003460322009035
:104ED000120221462846FDF762F805200007818866
:104EE000032211438180828808210A4382809148ED
:104EF00002880A430280028802210A4302800E9A35
:104F000082800F9AC280C289109B920B92031A432F
:104F1000C281028A32430282028A0A43028205B0B7
:104F2000F0BD10B5804841780078FDF71AF810BD43
:104F300010B57D4841780078FCF7F5FF10BD7D483D
:104F40000188490849000180704710B57649C98831
:104F50004843642101F050F976490A89920B920383
:104F6000401C1043088110BD10B56F49C9884843E3
:104F7000642101F041F96F494A89920B9203401C68
:104F80001043488110BDF1B5674F2820BE786749AE
:104F90007043FC7882B04218A100029B5058350142
:104FA000002B04D000281BD00020C04319E00028AB
:104FB00002D00020C04300E001205050C11722461B
:104FC00001F00EF92A4601F00BF9594A13685568A9
:104FD000184329431060516000200346009012E0FE
:104FE00001205050C117224601F0FAF82A4601F07C
:104FF000F7F84F4A13685568184329431060516009
:105000000020192300900322120221463046FCF7AB
:10501000C6FFF98802984843642101F0EDF845493C
:105020008A89920B9203401C10438881FEBD41483F
:10503000018A0222914301827047FEB505463A4833
:105040001E46057141712820384B17460C466843AF
:10505000C21889005058002802D00020C04300E048
:1050600001205050C117224601F0BAF82A0101F080
:10507000B7F82F4B1A685B6810432D4A194310602C
:10508000516028203946414328480A18B100505839
:10509000002802D00020C04300E001205050C1177A
:1050A000324601F09DF83A0101F09AF8204A13685F
:1050B0005668184331431060516000200346024691
:1050C000009021462846FCF76AFF01200A2103468A
:1050D00001910090132221462846FCF7A9FFFEBD4E
:1050E00010B5114841790079FCF781FF401C00D0D0
:1050F000012010BD1CB5012000900A210A48019131
:105100004179002313220079FCF792FF1CBD1CB5E6
:105110000120034600900A2103480191417913229E
:105120000079FCF785FF1CBD388000202890002006
:105130002090002000340050F0B5434D2B70052323
:105140001B079C88202634439C80404C0023A3816D
:105150003E4B6126603B1E801E880627BE434900E9
:105160000E431E8019881026B14312011143198085
:105170008105890D99800121A181218A8906FCD4AC
:105180006870F0BDF0B5314B304C304D0020082236
:10519000603B2E492034203D1A820E8A7607FCD5CA
:1051A0000E8AB606FCD42688AF8AF60705D0284EAC
:1051B000401CB042F0D30120F0BD0020F0BD30B55E
:1051C0000104214C0B0E214922786039012A02D0BA
:1051D000022A0ED110E01D4A00259581C50364788E
:1051E000ED0F25438D8001249481148AA406FCD4FC
:1051F0000B82C0B2088230BD0202120E0A82F7E7AB
:1052000070B50D460646FFF7BDFF002801D001200E
:1052100070BDEFF31084012080F310883046FFF753
:10522000CEFF0A4860380582002C0BD0012080F3A5
:1052300010880648018A4907FCD5018A8906FCD4F2
:10524000002070BD0020F2E7408000206013005075
:10525000400D0300FFB50E46074628203E4978431F
:105260004418B100605881B01546002802D00020D3
:10527000C04300E001206050C117324600F0B0FF8B
:105280003A01009200F0ACFF344B1A685B6810439F
:10529000324A194310605160A9006058002802D0BA
:1052A0000020C04300E001206050C1172A4600F0F2
:1052B00097FF009A00F094FF284A13685468184337
:1052C00021431060516000240923224631463846AC
:1052D0000094FCF764FE0A23002229463846009415
:1052E000FCF75DFE0AA90EC90498FFF725FF082107
:1052F0006B20FFF785FF7D24E400204600F01FF8B7
:1053000007216C20FFF77CFF204600F018F8FF21F2
:105310001920FFF775FF18211C20FFF771FF0521E9
:105320001D20FFF76DFF204600F009F8022137200D
:10533000FFF766FF204600F002F805B0F0BD00223E
:1053400006E00021491C89B2A029FBD9521C92B267
:105350008242F6D97047000028900020209000205B
:1053600010B5E54CA1792079FCF7FBFD6179207936
:10537000FCF7F7FD61792079FCF7D5FDA17920795B
:10538000FCF7D1FD10BD10B5DB4CA1792079FCF7FD
:10539000CAFD61792079FCF7C6FD61792079FCF7B7
:1053A000E0FDA1792079FCF7DCFD10BD70B5D24C91
:1053B00006460025A1792079FCF7B5FD3006617914
:1053C000207902D5FCF7CDFD01E0FCF7ACFD7006BD
:1053D000060EA1792079FCF7C4FD6D1CEDB2082DF5
:1053E000E8D3A1792079FCF79EFDA1792079FCF71B
:1053F000B8FD70BD10B50446FFF7B2FF7820FFF787
:10540000D5FF0020FFF7D2FF2046FFF7CFFFFFF7C1
:10541000BAFF10BD01E0401E80B20028FBD17047EA
:1054200010B5B54841780078FCF79BFD10BD70B50C
:10543000B14CE178A078FCF776FD7D25ED0028469B
:10544000FFF7E8FFE178A078FCF78BFD2846FFF72F
:10545000E1FFAE20FFF7CEFF0020FFF7CBFF1220C9
:10546000FFF7C8FF4020FFF7C5FFB020FFF7C2FFDE
:105470008120FFF7BFFF4F20FFF7BCFFA120FFF700
:10548000B9FFA620FFF7B6FFA820FFF7B3FF1F2044
:10549000FFF7B0FFC820FFF7ADFFD320FFF7AAFF4B
:1054A0000020FFF7A7FFD520FFF7A4FF8020FFF71C
:1054B000A1FFD920FFF79EFF1F20FFF79BFF812050
:1054C000FFF798FF4F20FFF795FFDA20FFF792FFD5
:1054D0001220FFF78FFFDB20FFF78CFF4020FFF744
:1054E00089FF8D20FFF786FF1420FFF783FFFFF76A
:1054F00097FF824C2046FFF78DFFAF20FFF77AFF22
:105500002046FFF787FF70BD70B506460024204691
:10551000B030C0B2FFF76EFF0020FFF76BFF122024
:10552000FFF768FFFFF71CFF7820FFF73FFF4020E1
:10553000FFF73CFF00253078FFF738FF6D1CEDB218
:10554000761C402DF7D3FFF71EFF641CE4B2042C39
:10555000DDD370BD10B5684841780078FCF7E3FCF6
:1055600010BD10B5AE20FFF745FF8D20FFF742FFBD
:105570001020FFF73FFF6148FFF74CFFFFF7EAFFFE
:1055800010BD10B5FFF74CFF5C4C2046FFF742FF03
:105590008D20FFF72FFF1420FFF72CFFAF20FFF720
:1055A00029FF2046FFF736FF10BDAE2022E7AF20CF
:1055B00020E7FFB50646504881B006700299417059
:1055C0000B9981700C99C170027143710A991C4644
:1055D000817128204A4B15467043C21802988100F9
:1055E0005058002802D00020C04300E00120505055
:1055F000C117029A00F0F4FD320100F0F1FD414ABA
:105600001368576818433943106051600B9828217C
:1056100048433B4943180C9882009858002802D010
:105620000020C04300E001209850C1170C9A00F000
:10563000D7FD0B9A120100F0D3FD324A1368576868
:10564000184339431060516028202D49684347189A
:10565000A1007858002802D00020C04300E00120BB
:105660007850C117224600F0BBFD2A01009200F0DD
:10567000B7FD244B1A685B681043224A1943106037
:1056800051600A9881007858002802D00020C04359
:1056900000E001207850C1170A9A00F0A1FD009A9D
:1056A00000F09EFD174A136857681843394310608D
:1056B0005160002703223B461202009730460299B0
:1056C000FCF76DFC03220023120200970C990B9843
:1056D000FCF765FC032200231202214628460097AE
:1056E000FCF75DFC032200970023120228460A996A
:1056F000FCF755FC05B0F0BD4280002060EA0000D8
:10570000289000202090002010B50446FFF74DFFA0
:10571000230000F0B7FC0805070D0F111315170A39
:10572000A44800E0A44800F038F9FFF740FF10BD9E
:10573000A248F8E7A248F6E7A248F4E7A248F2E751
:10574000A248F0E7A248EEE710B50020A1490246C2
:105750000A54401C80B2FF28FAD9FFF726FF9D4863
:10576000FFF7D2FEFFF723FF10BD30B54D076D0FD9
:105770000124AC40C908974B89010918585C002ADC
:1057800001D0204300E0A043585430BDF7B50025B8
:105790000127009800244619E0080C21484302998B
:1057A0004018425D6007400F3946814001980A4029
:1057B0000019202800D32038C1B2402E02D3304631
:1057C000403800E03046C0B2FFF7CFFF641CE4B2BF
:1057D000182CE1D36D1CEDB20C2DDAD3FEBDFFB554
:1057E00015460E4600237B4A81B01946D1545B1CF6
:1057F0009BB2FF2BFAD924214843774C1B27001971
:10580000BF01C21B04210220FFF7C0FF2420464332
:105810003019C21B04210E20FFF7B8FF6F4A042184
:105820001A20FFF7B3FF242045432819C21B042187
:105830002620FFF7ABFF0498242148430019C21B20
:1058400004213220FFF7A2FFFFF7AFFE6148FFF708
:105850005BFEFFF7ACFE05B0F0BDF8B515460E4691
:1058600000245C4A1F4621461155641CA4B2FF2C3B
:10587000FAD9002806D0012809D0022839D00328F7
:105880000BD13BE0554A04212432022003E0534A65
:10589000042148320220FFF779FF24204E4C464372
:1058A00030191B26B601821B04210E20FFF76EFF64
:1058B000242045432819821B04211A20FFF766FF84
:1058C000242047433819821B04212620FFF75EFF5E
:1058D0000698242148430019821B04213220FFF737
:1058E00055FFFFF762FE3B48FFF70EFEFFF75FFE36
:1058F000F8BD3A4A04216C320220CCE7374A042131
:1059000090320220C7E7F7B5002501270098002450
:105910004619E008010102980818425D6007400F2F
:105920003946814001980A400019202800D32038C8
:10593000C1B2402E02D33046403800E03046C0B2FB
:10594000FFF713FF641CE4B2102CE2D36D1CEDB220
:10595000102DDBD31F48FFF7D7FDFEBDF8B50023A0
:105960001E4CD656FC3422255D436757B7420ED1F4
:105970002F1901257D570127D757BD4207D1222274
:1059800053431A19921CFFF7BEFF0120F8BD5B1CA0
:10599000DBB2132BE7D30020F8BD10B50D4A002170
:1059A000435C5354491C89B2FF29F9D90948FFF7D0
:1059B000ABFD10BD4E7500204E7600204E770020C6
:1059C0004E7800204E7900204E7A00204E7B002039
:1059D0004E7C0020EC90002064700020CC710020F0
:1059E0007CB50C4605462820154968434218A1009D
:1059F0005058002802D00020C04300E00120505041
:105A0000C117224600F0ECFB2A0100F0E9FB0D4A29
:105A100013685668184331431060516000200346F4
:105A20000246009021462846FCF7B9FA0120009072
:105A300001900023152221462846FCF7F9FA7CBD87
:105A4000289000202090002070B5194C00683C215F
:105A500000F0D2FB21603C2100F0CEFB61601821F8
:105A600000F0CAFB0546A1600721001D00F0C4FB41
:105A7000A1611048A90008180F4900F0BDFB44308F
:105A800060618808E0613B2803D3217D890700D04D
:105A9000401C0021094B0A462161995C814203D8D0
:105AA000401A521C2261F8E7401CE060204670BD9D
:105AB0004C8000206C0B0000B5050000186E002023
:105AC0000321001D401E037812021A43491EF9D516
:105AD0001046704770B502464A40D50F40004A0054
:105AE000ED0740085208002814D0002A12D0C40D37
:105AF000D30D41020120C0055202490A520AE41A9C
:105B0000091812187D34914201D3641C00E0490049
:105B1000002C01DA002070BD0023914201D3891AC4
:105B20000343400849000028F7D100290AD09142D8
:105B300002D10121C90705E0914201D2012101E012
:105B40000121C943E005C018401900F0ACF970BD4F
:105B5000420005D04200120E52428A4201DB002070
:105B60007047C90508187047F0B507460846584001
:105B700087B0C00F049048000E46590040084908FD
:105B8000BC1A884105D2384631461E4617460B4698
:105B900002465800400810434CD0300D0390400599
:105BA0005900400D490D0590401A0290402872DAC4
:105BB00018030121000B0905084301900498009285
:105BC000002805D00199524200208841009201909E
:105BD000029840210A1A0199009800F001FB05463D
:105BE0000C466B4607CB00F04BF9C0197141039A84
