:020000040002F8
:101000001FB51FBD10B510BD00F02DF81146FFF73C
:10101000F7FF00F063F800F045F803B4FFF7F2FFC4
:1010200003BC00F04BF80000074880470748004722
:10103000FEE7FEE7FEE7FEE7FEE7FEE704480549B8
:10104000054A064B70470000CD100200A1000020A9
:101050006851002068540020685200206852002027
:10106000704770477047754600F024F8AE4605009B
:1010700069465346C008C000854618B020B5FFF742
:10108000DDFF60BC00274908B6460026C0C5C0C5C4
:10109000C0C5C0C5C0C5C0C5C0C5C0C5403D49006C
:1010A0008D46704710B50446C046C0462046FFF73F
:1010B000B4FF10BD004870470851002001491820B6
:1010C000ABBEFEE72600020070470000014802495F
:1010D0000860704700E1F505045100200021052259
:1010E000120711800821274A118005210907498A22
:1010F0002022914320310522120751821146498A4C
:101100008022914380310522120751821146098ABB
:10111000022291430522120711821B49898A032268
:10112000120291438918184A91821146C98A0322F2
:10113000120291438918144AD1821146098B032265
:10114000120291438918104A118319E0401C0F497B
:10115000884200DD0020002807D10B494988890A10
:1011600089020B4A8918084A51800A49884207D1E6
:1011700005498988890A8902054A8918024A9180A5
:10118000E4E700000033005040300050801A0600B1
:08119000FF030000400D030005
:020000042000DA
:100000006854002029100200311002003310020051
:1000100000000000000000000000000000000000E0
:100020000000000000000000000000003510020089
:10003000000000000000000037100200391002002C
:100040003B1002003B1002003B1002003B1002007C
:100050003B1002003B1002003B1002003B1002006C
:100060003B1002003B1002003B1002003B1002005C
:100070003B1002003B1002003B1002003B1002004C
:100080003B1002003B1002003B1002003B1002003C
:100090003B1002003B1002003B1002003B1002002C
:1000A00000F002F800F03AF80CA030C80838241824
:1000B0002D18A246671EAB4654465D46AC4201D1A0
:1000C00000F02CF87E460F3E0FCCB6460126334298
:1000D00000D0FB1AA246AB46334318474C00000041
:1000E0006C000000103A02D378C878C1FAD85207E1
:1000F00001D330C830C101D504680C6070470000DE
:100100000023002400250026103A01D378C1FBD833
:10011000520700D330C100D50B60704703B40148CB
:10012000019001BD0910020048010020005100208B
:1001300008000000E40000205001002008510020C9
:10014000600300000001002000E1F50500E1F50575
:04000005200000A136
:00000001FF
