:020000042000DA
:1000000068830020450100204D0100204F010020A1
:1000100000000000000000000000000000000000E0
:10002000000000000000000000000000510100205E
:1000300000000000000000005301002055010020D6
:1000400057010020570100205701002057010020D0
:1000500057010020570100205701002057010020C0
:1000600057010020570100205701002057010020B0
:1000700057010020570100205701002057010020A0
:100080005701002057010020570100205701002090
:100090005701002057010020570100205701002080
:1000A00000F002F800F03EF80CA030C80838241820
:1000B0002D18A246671EAB4654465D46AC4201D1A0
:1000C00000F030F87E460F3E0FCCB6460126334294
:1000D00000D0FB1AA246AB463343184798030000F2
:1000E000B8030000103A02D378C878C1FAD8520792
:1000F00001D330C830C101D504680C6070470000DE
:100100000023002400250026103A01D378C1FBD833
:10011000520700D330C100D50B6070471FB51FBD1B
:1001200010B510BD00F073F91146FFF7F7FF00F0AE
:1001300031F800F08BF903B4FFF7F2FF03BC00F0D5
:1001400091F900000748804707480047FEE7FEE7AF
:10015000FEE7FEE7FEE7FEE704480549054A064BD1
:10016000704700007D010020A10000206880002071
:1001700068830020688100206881002003480449CA
:1001800008607047014802490860704700E1F505C2
:1001900004800020002005210907088008202F493D
:1001A000088005200007408A20218843203005214F
:1001B000090748820846408A80218843803005210B
:1001C000090748820846008A022188430521090759
:1001D00008822348008A03210902884340182049E5
:1001E00008820846408A03210902884340181C49B6
:1001F00048820846808A032109028843401818492A
:10020000888217484038C08803210902884314496E
:100210004039C88000F07BF81EE0641C114884421D
:1002200000DD00241048844209D10D484088800A2E
:100230008002E0300A4948800CA000F0A4F80E4883
:10024000844209D106488088800A8002E03004494F
:1002500088800AA000F097F8DFE700000033005024
:100260004030005040420F0020A107006C65642020
:100270006F66660A00000000A0BB0D006C6564207C
:100280006F6E0A0010B5132000F0ABF8142000F0D8
:10029000A8F8152000F0A5F8162000F0A2F800201C
:1002A0005449088048808880C8805349C880888124
:1002B000C88108824882888010BD10B503200002E2
:1002C0004D49C880012040028881C8810882488247
:1002D000012048804948474988810F200002088250
:1002E0001220088013204880142088801520C880A0
:1002F0000F20C881132000F06DF8142000F06AF878
:10030000152000F067F8162000F064F810BD0520F5
:100310000007808880218843803005210907888074
:1003200080203749888100208880092008800320A8
:1003300088810846008A402188433149088201208B
:1003400008810846808840084000888002202A49A9
:100350004039488101208881704700BF2848808A41
:10036000C007C00F0028F9D025480088C0B27047E8
:1003700000BF2349898A202211400029F9D0C1B247
:100380001F4A1180704700B5034603E01878FFF755
:10039000EFFF5B1C18780028F8D100BD10B50446AB
:1003A000F020204003110A2B01DA302000E0372032
:1003B000C018C3B21846FFF7DBFF23071B0F0A2B39
:1003C00001DA302000E03720C018C3B21846FFF72A
:1003D000CFFF10BDC206D20E01219140094A116023
:1003E0007047C206D20E01219140064A8032116048
:1003F0007047000000140050403000503F0F0000D4
:100400000010005000E100E07047704770477546EB
:1004100000F024F8AE46050069465346C008C00007
:10042000854618B020B5FFF797FE60BC0027490845
:10043000B6460026C0C5C0C5C0C5C0C5C0C5C0C57C
:10044000C0C5C0C5403D49008D46704710B5044643
:10045000C046C0462046FFF76EFE10BD00487047FC
:100460000880002001491820ABBEFEE726000200EC
:100470007047000094040020008000200800000065
:10048000E40000209C04002008800020600300009D
:0C0490000001002000E1F50500E1F50589
:04000005200000A136
:00000001FF
