:020000042000DA
:1000000068830020450100204D0100204F010020A1
:1000100000000000000000000000000000000000E0
:10002000000000000000000000000000510100205E
:1000300000000000000000005301002055010020D6
:1000400057010020570100205701002057010020D0
:1000500057010020570100205701002057010020C0
:1000600057010020570100205701002057010020B0
:1000700057010020570100205701002057010020A0
:100080005701002057010020570100205701002090
:100090005701002057010020570100205701002080
:1000A00000F002F800F03EF80CA030C80838241820
:1000B0002D18A246671EAB4654465D46AC4201D1A0
:1000C00000F030F87E460F3E0FCCB6460126334294
:1000D00000D0FB1AA246AB4633431847E0010000AC
:1000E00000020000103A02D378C878C1FAD852074B
:1000F00001D330C830C101D504680C6070470000DE
:100100000023002400250026103A01D378C1FBD833
:10011000520700D330C100D50B6070471FB51FBD1B
:1001200010B510BD00F097F81146FFF7F7FF00F08B
:1001300031F800F0AFF803B4FFF7F2FF03BC00F0B2
:10014000B5F800000748804707480047FEE7FEE78C
:10015000FEE7FEE7FEE7FEE704480549054A064BD1
:10016000704700007D010020A10000206880002071
:1001700068830020688100206881002003480449CA
:1001800008607047014802490860704700E1F505C2
:100190000480002000210522120711800821274A2F
:1001A000118005210907498A202291432031052227
:1001B000120751821146498A8022914380310522DB
:1001C000120751821146098A022291430522120721
:1001D00011821B49898A0322120291438918184A05
:1001E00091821146C98A0322120291438918144A46
:1001F000D1821146098B0322120291438918104AB9
:10020000118319E0401C0F49884200DD00200028BE
:1002100007D10B494988890A89020B4A8918084A7B
:1002200051800A49884207D105498988890A89028B
:10023000054A8918024A9180E4E700000033005023
:1002400040300050801A0600FF03000050C3000039
:10025000704770477047754600F024F8AE460500B9
:1002600069465346C008C000854618B020B5FFF760
:1002700073FF60BC00274908B6460026C0C5C0C54C
:10028000C0C5C0C5C0C5C0C5C0C5C0C5403D49008A
:100290008D46704710B50446C046C0462046FFF75D
:1002A0004AFF10BD0048704708800020014918200F
:1002B000ABBEFEE72600020070470000DC02002013
:1002C0000080002008000000E4000020E40200207C
:1002D00008800020600300000001002000E1F50517
:0402E00000E1F5053F
:04000005200000A136
:00000001FF
